{
	"contracts/lecture_01/basics.sol": {
		"lecture01": {
			"abi": [
				{
					"inputs": [],
					"name": "Found",
					"outputs": [
						{
							"internalType": "bool",
							"name": "",
							"type": "bool"
						}
					],
					"stateMutability": "view",
					"type": "function"
				},
				{
					"inputs": [],
					"name": "a",
					"outputs": [
						{
							"internalType": "int256",
							"name": "",
							"type": "int256"
						}
					],
					"stateMutability": "view",
					"type": "function"
				},
				{
					"inputs": [],
					"name": "check",
					"outputs": [
						{
							"internalType": "bool",
							"name": "",
							"type": "bool"
						}
					],
					"stateMutability": "nonpayable",
					"type": "function"
				},
				{
					"inputs": [
						{
							"internalType": "int256",
							"name": "num1",
							"type": "int256"
						}
					],
					"name": "check_even",
					"outputs": [],
					"stateMutability": "pure",
					"type": "function"
				},
				{
					"inputs": [
						{
							"internalType": "string",
							"name": "str1",
							"type": "string"
						},
						{
							"internalType": "string",
							"name": "str2",
							"type": "string"
						}
					],
					"name": "concat",
					"outputs": [
						{
							"internalType": "string",
							"name": "",
							"type": "string"
						}
					],
					"stateMutability": "nonpayable",
					"type": "function"
				},
				{
					"inputs": [],
					"name": "decrement",
					"outputs": [
						{
							"internalType": "int256",
							"name": "",
							"type": "int256"
						}
					],
					"stateMutability": "nonpayable",
					"type": "function"
				},
				{
					"inputs": [
						{
							"internalType": "int256",
							"name": "num1",
							"type": "int256"
						},
						{
							"internalType": "string",
							"name": "message",
							"type": "string"
						}
					],
					"name": "even_odd",
					"outputs": [
						{
							"internalType": "string",
							"name": "",
							"type": "string"
						}
					],
					"stateMutability": "pure",
					"type": "function"
				},
				{
					"inputs": [],
					"name": "increment",
					"outputs": [
						{
							"internalType": "int256",
							"name": "",
							"type": "int256"
						}
					],
					"stateMutability": "nonpayable",
					"type": "function"
				},
				{
					"inputs": [],
					"name": "message",
					"outputs": [
						{
							"internalType": "address",
							"name": "",
							"type": "address"
						}
					],
					"stateMutability": "view",
					"type": "function"
				},
				{
					"inputs": [],
					"name": "time",
					"outputs": [
						{
							"internalType": "uint256",
							"name": "",
							"type": "uint256"
						}
					],
					"stateMutability": "view",
					"type": "function"
				}
			],
			"devdoc": {
				"kind": "dev",
				"methods": {},
				"version": 1
			},
			"evm": {
				"assembly": "    /* \"contracts/lecture_01/basics.sol\":74:1780  contract lecture01 ... */\n  mstore(0x40, 0x80)\n    /* \"contracts/lecture_01/basics.sol\":124:125  5 */\n  0x05\n    /* \"contracts/lecture_01/basics.sol\":108:125  int256 public a=5 */\n  0x00\n  sstore\n    /* \"contracts/lecture_01/basics.sol\":147:162  block.timestamp */\n  timestamp\n    /* \"contracts/lecture_01/basics.sol\":130:162  uint public time=block.timestamp */\n  0x01\n  sstore\n    /* \"contracts/lecture_01/basics.sol\":355:359  true */\n  0x01\n    /* \"contracts/lecture_01/basics.sol\":335:359  bool public Found = true */\n  0x02\n  exp(0x0100, 0x00)\n  dup2\n  sload\n  dup2\n  0xff\n  mul\n  not\n  and\n  swap1\n  dup4\n  iszero\n  iszero\n  mul\n  or\n  swap1\n  sstore\n  pop\n    /* \"contracts/lecture_01/basics.sol\":1675:1685  msg.sender */\n  caller\n    /* \"contracts/lecture_01/basics.sol\":1658:1685  address _owner = msg.sender */\n  0x04\n  exp(0x0100, 0x00)\n  dup2\n  sload\n  dup2\n  0xffffffffffffffffffffffffffffffffffffffff\n  mul\n  not\n  and\n  swap1\n  dup4\n  0xffffffffffffffffffffffffffffffffffffffff\n  and\n  mul\n  or\n  swap1\n  sstore\n  pop\n    /* \"contracts/lecture_01/basics.sol\":74:1780  contract lecture01 ... */\n  callvalue\n  dup1\n  iszero\n  tag_1\n  jumpi\n  0x00\n  dup1\n  revert\ntag_1:\n  pop\n  dataSize(sub_0)\n  dup1\n  dataOffset(sub_0)\n  0x00\n  codecopy\n  0x00\n  return\nstop\n\nsub_0: assembly {\n        /* \"contracts/lecture_01/basics.sol\":74:1780  contract lecture01 ... */\n      mstore(0x40, 0x80)\n      callvalue\n      dup1\n      iszero\n      tag_1\n      jumpi\n      0x00\n      dup1\n      revert\n    tag_1:\n      pop\n      jumpi(tag_2, lt(calldatasize, 0x04))\n      shr(0xe0, calldataload(0x00))\n      dup1\n      0x919840ad\n      gt\n      tag_13\n      jumpi\n      dup1\n      0x919840ad\n      eq\n      tag_8\n      jumpi\n      dup1\n      0xbaa78317\n      eq\n      tag_9\n      jumpi\n      dup1\n      0xd09de08a\n      eq\n      tag_10\n      jumpi\n      dup1\n      0xe21f37ce\n      eq\n      tag_11\n      jumpi\n      dup1\n      0xed34644b\n      eq\n      tag_12\n      jumpi\n      jump(tag_2)\n    tag_13:\n      dup1\n      0x0dbe671f\n      eq\n      tag_3\n      jumpi\n      dup1\n      0x16ada547\n      eq\n      tag_4\n      jumpi\n      dup1\n      0x2baeceb7\n      eq\n      tag_5\n      jumpi\n      dup1\n      0x63281b1d\n      eq\n      tag_6\n      jumpi\n      dup1\n      0x89c19ddb\n      eq\n      tag_7\n      jumpi\n    tag_2:\n      0x00\n      dup1\n      revert\n        /* \"contracts/lecture_01/basics.sol\":108:125  int256 public a=5 */\n    tag_3:\n      tag_14\n      tag_15\n      jump\t// in\n    tag_14:\n      mload(0x40)\n      tag_16\n      swap2\n      swap1\n      tag_17\n      jump\t// in\n    tag_16:\n      mload(0x40)\n      dup1\n      swap2\n      sub\n      swap1\n      return\n        /* \"contracts/lecture_01/basics.sol\":130:162  uint public time=block.timestamp */\n    tag_4:\n      tag_18\n      tag_19\n      jump\t// in\n    tag_18:\n      mload(0x40)\n      tag_20\n      swap2\n      swap1\n      tag_21\n      jump\t// in\n    tag_20:\n      mload(0x40)\n      dup1\n      swap2\n      sub\n      swap1\n      return\n        /* \"contracts/lecture_01/basics.sol\":254:327  function decrement() public returns(int256) {... */\n    tag_5:\n      tag_22\n      tag_23\n      jump\t// in\n    tag_22:\n      mload(0x40)\n      tag_24\n      swap2\n      swap1\n      tag_17\n      jump\t// in\n    tag_24:\n      mload(0x40)\n      dup1\n      swap2\n      sub\n      swap1\n      return\n        /* \"contracts/lecture_01/basics.sol\":335:359  bool public Found = true */\n    tag_6:\n      tag_25\n      tag_26\n      jump\t// in\n    tag_25:\n      mload(0x40)\n      tag_27\n      swap2\n      swap1\n      tag_28\n      jump\t// in\n    tag_27:\n      mload(0x40)\n      dup1\n      swap2\n      sub\n      swap1\n      return\n        /* \"contracts/lecture_01/basics.sol\":1281:1459  function concat(string memory str1, string memory str2) public returns(string memory){... */\n    tag_7:\n      tag_29\n      0x04\n      dup1\n      calldatasize\n      sub\n      dup2\n      add\n      swap1\n      tag_30\n      swap2\n      swap1\n      tag_31\n      jump\t// in\n    tag_30:\n      tag_32\n      jump\t// in\n    tag_29:\n      mload(0x40)\n      tag_33\n      swap2\n      swap1\n      tag_34\n      jump\t// in\n    tag_33:\n      mload(0x40)\n      dup1\n      swap2\n      sub\n      swap1\n      return\n        /* \"contracts/lecture_01/basics.sol\":368:558  function check() public returns(bool){... */\n    tag_8:\n      tag_35\n      tag_36\n      jump\t// in\n    tag_35:\n      mload(0x40)\n      tag_37\n      swap2\n      swap1\n      tag_28\n      jump\t// in\n    tag_37:\n      mload(0x40)\n      dup1\n      swap2\n      sub\n      swap1\n      return\n        /* \"contracts/lecture_01/basics.sol\":570:871  function even_odd(int256 num1, string memory message) public pure returns(string memory){... */\n    tag_9:\n      tag_38\n      0x04\n      dup1\n      calldatasize\n      sub\n      dup2\n      add\n      swap1\n      tag_39\n      swap2\n      swap1\n      tag_40\n      jump\t// in\n    tag_39:\n      tag_41\n      jump\t// in\n    tag_38:\n      mload(0x40)\n      tag_42\n      swap2\n      swap1\n      tag_34\n      jump\t// in\n    tag_42:\n      mload(0x40)\n      dup1\n      swap2\n      sub\n      swap1\n      return\n        /* \"contracts/lecture_01/basics.sol\":169:242  function increment() public returns(int256) {... */\n    tag_10:\n      tag_43\n      tag_44\n      jump\t// in\n    tag_43:\n      mload(0x40)\n      tag_45\n      swap2\n      swap1\n      tag_17\n      jump\t// in\n    tag_45:\n      mload(0x40)\n      dup1\n      swap2\n      sub\n      swap1\n      return\n        /* \"contracts/lecture_01/basics.sol\":1694:1773  function message() public view returns(address){... */\n    tag_11:\n      tag_46\n      tag_47\n      jump\t// in\n    tag_46:\n      mload(0x40)\n      tag_48\n      swap2\n      swap1\n      tag_49\n      jump\t// in\n    tag_48:\n      mload(0x40)\n      dup1\n      swap2\n      sub\n      swap1\n      return\n        /* \"contracts/lecture_01/basics.sol\":879:997  function check_even(int256 num1) public pure{... */\n    tag_12:\n      tag_50\n      0x04\n      dup1\n      calldatasize\n      sub\n      dup2\n      add\n      swap1\n      tag_51\n      swap2\n      swap1\n      tag_52\n      jump\t// in\n    tag_51:\n      tag_53\n      jump\t// in\n    tag_50:\n      stop\n        /* \"contracts/lecture_01/basics.sol\":108:125  int256 public a=5 */\n    tag_15:\n      sload(0x00)\n      dup2\n      jump\t// out\n        /* \"contracts/lecture_01/basics.sol\":130:162  uint public time=block.timestamp */\n    tag_19:\n      sload(0x01)\n      dup2\n      jump\t// out\n        /* \"contracts/lecture_01/basics.sol\":254:327  function decrement() public returns(int256) {... */\n    tag_23:\n        /* \"contracts/lecture_01/basics.sol\":290:296  int256 */\n      0x00\n        /* \"contracts/lecture_01/basics.sol\":318:319  a */\n      dup1\n      0x00\n        /* \"contracts/lecture_01/basics.sol\":316:319  --a */\n      dup2\n      sload\n      tag_55\n      swap1\n      tag_56\n      jump\t// in\n    tag_55:\n      swap2\n      swap1\n      pop\n      dup2\n      swap1\n      sstore\n        /* \"contracts/lecture_01/basics.sol\":309:319  return --a */\n      swap1\n      pop\n        /* \"contracts/lecture_01/basics.sol\":254:327  function decrement() public returns(int256) {... */\n      swap1\n      jump\t// out\n        /* \"contracts/lecture_01/basics.sol\":335:359  bool public Found = true */\n    tag_26:\n      0x02\n      0x00\n      swap1\n      sload\n      swap1\n      0x0100\n      exp\n      swap1\n      div\n      0xff\n      and\n      dup2\n      jump\t// out\n        /* \"contracts/lecture_01/basics.sol\":1281:1459  function concat(string memory str1, string memory str2) public returns(string memory){... */\n    tag_32:\n        /* \"contracts/lecture_01/basics.sol\":1352:1365  string memory */\n      0x60\n        /* \"contracts/lecture_01/basics.sol\":1413:1417  str1 */\n      dup3\n        /* \"contracts/lecture_01/basics.sol\":1418:1422  str2 */\n      dup3\n        /* \"contracts/lecture_01/basics.sol\":1396:1423  abi.encodePacked(str1,str2) */\n      add(0x20, mload(0x40))\n      tag_58\n      swap3\n      swap2\n      swap1\n      tag_59\n      jump\t// in\n    tag_58:\n      mload(0x40)\n      0x20\n      dup2\n      dup4\n      sub\n      sub\n      dup2\n      mstore\n      swap1\n      0x40\n      mstore\n        /* \"contracts/lecture_01/basics.sol\":1377:1386  newString */\n      0x03\n        /* \"contracts/lecture_01/basics.sol\":1377:1424  newString = string(abi.encodePacked(str1,str2)) */\n      swap1\n      dup2\n      tag_60\n      swap2\n      swap1\n      tag_61\n      jump\t// in\n    tag_60:\n      pop\n        /* \"contracts/lecture_01/basics.sol\":1442:1451  newString */\n      0x03\n        /* \"contracts/lecture_01/basics.sol\":1435:1451  return newString */\n      dup1\n      sload\n      tag_62\n      swap1\n      tag_63\n      jump\t// in\n    tag_62:\n      dup1\n      0x1f\n      add\n      0x20\n      dup1\n      swap2\n      div\n      mul\n      0x20\n      add\n      mload(0x40)\n      swap1\n      dup2\n      add\n      0x40\n      mstore\n      dup1\n      swap3\n      swap2\n      swap1\n      dup2\n      dup2\n      mstore\n      0x20\n      add\n      dup3\n      dup1\n      sload\n      tag_64\n      swap1\n      tag_63\n      jump\t// in\n    tag_64:\n      dup1\n      iszero\n      tag_65\n      jumpi\n      dup1\n      0x1f\n      lt\n      tag_66\n      jumpi\n      0x0100\n      dup1\n      dup4\n      sload\n      div\n      mul\n      dup4\n      mstore\n      swap2\n      0x20\n      add\n      swap2\n      jump(tag_65)\n    tag_66:\n      dup3\n      add\n      swap2\n      swap1\n      0x00\n      mstore\n      keccak256(0x00, 0x20)\n      swap1\n    tag_67:\n      dup2\n      sload\n      dup2\n      mstore\n      swap1\n      0x01\n      add\n      swap1\n      0x20\n      add\n      dup1\n      dup4\n      gt\n      tag_67\n      jumpi\n      dup3\n      swap1\n      sub\n      0x1f\n      and\n      dup3\n      add\n      swap2\n    tag_65:\n      pop\n      pop\n      pop\n      pop\n      pop\n      swap1\n      pop\n        /* \"contracts/lecture_01/basics.sol\":1281:1459  function concat(string memory str1, string memory str2) public returns(string memory){... */\n      swap3\n      swap2\n      pop\n      pop\n      jump\t// out\n        /* \"contracts/lecture_01/basics.sol\":368:558  function check() public returns(bool){... */\n    tag_36:\n        /* \"contracts/lecture_01/basics.sol\":400:404  bool */\n      0x00\n        /* \"contracts/lecture_01/basics.sol\":429:433  true */\n      0x01\n        /* \"contracts/lecture_01/basics.sol\":420:433  Found == true */\n      iszero\n      iszero\n        /* \"contracts/lecture_01/basics.sol\":420:425  Found */\n      0x02\n      0x00\n      swap1\n      sload\n      swap1\n      0x0100\n      exp\n      swap1\n      div\n      0xff\n      and\n        /* \"contracts/lecture_01/basics.sol\":420:433  Found == true */\n      iszero\n      iszero\n      sub\n        /* \"contracts/lecture_01/basics.sol\":416:528  if (Found == true){... */\n      tag_69\n      jumpi\n        /* \"contracts/lecture_01/basics.sol\":457:462  false */\n      0x00\n        /* \"contracts/lecture_01/basics.sol\":449:454  Found */\n      0x02\n      0x00\n        /* \"contracts/lecture_01/basics.sol\":449:462  Found = false */\n      0x0100\n      exp\n      dup2\n      sload\n      dup2\n      0xff\n      mul\n      not\n      and\n      swap1\n      dup4\n      iszero\n      iszero\n      mul\n      or\n      swap1\n      sstore\n      pop\n        /* \"contracts/lecture_01/basics.sol\":416:528  if (Found == true){... */\n      jump(tag_70)\n    tag_69:\n        /* \"contracts/lecture_01/basics.sol\":512:516  true */\n      0x01\n        /* \"contracts/lecture_01/basics.sol\":504:509  Found */\n      0x02\n      0x00\n        /* \"contracts/lecture_01/basics.sol\":504:516  Found = true */\n      0x0100\n      exp\n      dup2\n      sload\n      dup2\n      0xff\n      mul\n      not\n      and\n      swap1\n      dup4\n      iszero\n      iszero\n      mul\n      or\n      swap1\n      sstore\n      pop\n        /* \"contracts/lecture_01/basics.sol\":416:528  if (Found == true){... */\n    tag_70:\n        /* \"contracts/lecture_01/basics.sol\":545:550  Found */\n      0x02\n      0x00\n      swap1\n      sload\n      swap1\n      0x0100\n      exp\n      swap1\n      div\n      0xff\n      and\n        /* \"contracts/lecture_01/basics.sol\":538:550  return Found */\n      swap1\n      pop\n        /* \"contracts/lecture_01/basics.sol\":368:558  function check() public returns(bool){... */\n      swap1\n      jump\t// out\n        /* \"contracts/lecture_01/basics.sol\":570:871  function even_odd(int256 num1, string memory message) public pure returns(string memory){... */\n    tag_41:\n        /* \"contracts/lecture_01/basics.sol\":644:657  string memory */\n      0x60\n        /* \"contracts/lecture_01/basics.sol\":684:685  2 */\n      0x02\n        /* \"contracts/lecture_01/basics.sol\":677:681  num1 */\n      dup4\n        /* \"contracts/lecture_01/basics.sol\":677:685  num1 % 2 */\n      tag_72\n      swap2\n      swap1\n      tag_73\n      jump\t// in\n    tag_72:\n        /* \"contracts/lecture_01/basics.sol\":669:685  num1  = num1 % 2 */\n      swap3\n      pop\n        /* \"contracts/lecture_01/basics.sol\":708:709  0 */\n      0x00\n        /* \"contracts/lecture_01/basics.sol\":700:704  num1 */\n      dup4\n        /* \"contracts/lecture_01/basics.sol\":700:709  num1 == 0 */\n      sub\n        /* \"contracts/lecture_01/basics.sol\":696:839  if (num1 == 0){... */\n      tag_74\n      jumpi\n        /* \"contracts/lecture_01/basics.sol\":725:756  message = \"It's an even number\" */\n      mload(0x40)\n      dup1\n      0x40\n      add\n      0x40\n      mstore\n      dup1\n      0x13\n      dup2\n      mstore\n      0x20\n      add\n      0x4974277320616e206576656e206e756d62657200000000000000000000000000\n      dup2\n      mstore\n      pop\n      swap2\n      pop\n        /* \"contracts/lecture_01/basics.sol\":696:839  if (num1 == 0){... */\n      jump(tag_75)\n    tag_74:\n        /* \"contracts/lecture_01/basics.sol\":797:827  message = \"It's an odd number\" */\n      mload(0x40)\n      dup1\n      0x40\n      add\n      0x40\n      mstore\n      dup1\n      0x12\n      dup2\n      mstore\n      0x20\n      add\n      0x4974277320616e206f6464206e756d6265720000000000000000000000000000\n      dup2\n      mstore\n      pop\n      swap2\n      pop\n        /* \"contracts/lecture_01/basics.sol\":696:839  if (num1 == 0){... */\n    tag_75:\n        /* \"contracts/lecture_01/basics.sol\":856:863  message */\n      dup2\n        /* \"contracts/lecture_01/basics.sol\":849:863  return message */\n      swap1\n      pop\n        /* \"contracts/lecture_01/basics.sol\":570:871  function even_odd(int256 num1, string memory message) public pure returns(string memory){... */\n      swap3\n      swap2\n      pop\n      pop\n      jump\t// out\n        /* \"contracts/lecture_01/basics.sol\":169:242  function increment() public returns(int256) {... */\n    tag_44:\n        /* \"contracts/lecture_01/basics.sol\":205:211  int256 */\n      0x00\n        /* \"contracts/lecture_01/basics.sol\":233:234  a */\n      dup1\n      0x00\n        /* \"contracts/lecture_01/basics.sol\":231:234  ++a */\n      dup2\n      sload\n      tag_77\n      swap1\n      tag_78\n      jump\t// in\n    tag_77:\n      swap2\n      swap1\n      pop\n      dup2\n      swap1\n      sstore\n        /* \"contracts/lecture_01/basics.sol\":224:234  return ++a */\n      swap1\n      pop\n        /* \"contracts/lecture_01/basics.sol\":169:242  function increment() public returns(int256) {... */\n      swap1\n      jump\t// out\n        /* \"contracts/lecture_01/basics.sol\":1694:1773  function message() public view returns(address){... */\n    tag_47:\n        /* \"contracts/lecture_01/basics.sol\":1733:1740  address */\n      0x00\n        /* \"contracts/lecture_01/basics.sol\":1759:1765  _owner */\n      0x04\n      0x00\n      swap1\n      sload\n      swap1\n      0x0100\n      exp\n      swap1\n      div\n      0xffffffffffffffffffffffffffffffffffffffff\n      and\n        /* \"contracts/lecture_01/basics.sol\":1752:1765  return _owner */\n      swap1\n      pop\n        /* \"contracts/lecture_01/basics.sol\":1694:1773  function message() public view returns(address){... */\n      swap1\n      jump\t// out\n        /* \"contracts/lecture_01/basics.sol\":879:997  function check_even(int256 num1) public pure{... */\n    tag_53:\n        /* \"contracts/lecture_01/basics.sol\":964:965  0 */\n      0x00\n        /* \"contracts/lecture_01/basics.sol\":959:960  2 */\n      0x02\n        /* \"contracts/lecture_01/basics.sol\":952:956  num1 */\n      dup3\n        /* \"contracts/lecture_01/basics.sol\":952:960  num1 % 2 */\n      tag_81\n      swap2\n      swap1\n      tag_73\n      jump\t// in\n    tag_81:\n        /* \"contracts/lecture_01/basics.sol\":952:965  num1 % 2 == 0 */\n      eq\n        /* \"contracts/lecture_01/basics.sol\":944:989  require(num1 % 2 == 0 , \"It's an odd number\") */\n      tag_82\n      jumpi\n      mload(0x40)\n      0x08c379a000000000000000000000000000000000000000000000000000000000\n      dup2\n      mstore\n      0x04\n      add\n      tag_83\n      swap1\n      tag_84\n      jump\t// in\n    tag_83:\n      mload(0x40)\n      dup1\n      swap2\n      sub\n      swap1\n      revert\n    tag_82:\n        /* \"contracts/lecture_01/basics.sol\":879:997  function check_even(int256 num1) public pure{... */\n      pop\n      jump\t// out\n        /* \"#utility.yul\":7:83   */\n    tag_85:\n        /* \"#utility.yul\":43:50   */\n      0x00\n        /* \"#utility.yul\":72:77   */\n      dup2\n        /* \"#utility.yul\":61:77   */\n      swap1\n      pop\n        /* \"#utility.yul\":7:83   */\n      swap2\n      swap1\n      pop\n      jump\t// out\n        /* \"#utility.yul\":89:204   */\n    tag_86:\n        /* \"#utility.yul\":174:197   */\n      tag_138\n        /* \"#utility.yul\":191:196   */\n      dup2\n        /* \"#utility.yul\":174:197   */\n      tag_85\n      jump\t// in\n    tag_138:\n        /* \"#utility.yul\":169:172   */\n      dup3\n        /* \"#utility.yul\":162:198   */\n      mstore\n        /* \"#utility.yul\":89:204   */\n      pop\n      pop\n      jump\t// out\n        /* \"#utility.yul\":210:428   */\n    tag_17:\n        /* \"#utility.yul\":301:305   */\n      0x00\n        /* \"#utility.yul\":339:341   */\n      0x20\n        /* \"#utility.yul\":328:337   */\n      dup3\n        /* \"#utility.yul\":324:342   */\n      add\n        /* \"#utility.yul\":316:342   */\n      swap1\n      pop\n        /* \"#utility.yul\":352:421   */\n      tag_140\n        /* \"#utility.yul\":418:419   */\n      0x00\n        /* \"#utility.yul\":407:416   */\n      dup4\n        /* \"#utility.yul\":403:420   */\n      add\n        /* \"#utility.yul\":394:400   */\n      dup5\n        /* \"#utility.yul\":352:421   */\n      tag_86\n      jump\t// in\n    tag_140:\n        /* \"#utility.yul\":210:428   */\n      swap3\n      swap2\n      pop\n      pop\n      jump\t// out\n        /* \"#utility.yul\":434:511   */\n    tag_87:\n        /* \"#utility.yul\":471:478   */\n      0x00\n        /* \"#utility.yul\":500:505   */\n      dup2\n        /* \"#utility.yul\":489:505   */\n      swap1\n      pop\n        /* \"#utility.yul\":434:511   */\n      swap2\n      swap1\n      pop\n      jump\t// out\n        /* \"#utility.yul\":517:635   */\n    tag_88:\n        /* \"#utility.yul\":604:628   */\n      tag_143\n        /* \"#utility.yul\":622:627   */\n      dup2\n        /* \"#utility.yul\":604:628   */\n      tag_87\n      jump\t// in\n    tag_143:\n        /* \"#utility.yul\":599:602   */\n      dup3\n        /* \"#utility.yul\":592:629   */\n      mstore\n        /* \"#utility.yul\":517:635   */\n      pop\n      pop\n      jump\t// out\n        /* \"#utility.yul\":641:863   */\n    tag_21:\n        /* \"#utility.yul\":734:738   */\n      0x00\n        /* \"#utility.yul\":772:774   */\n      0x20\n        /* \"#utility.yul\":761:770   */\n      dup3\n        /* \"#utility.yul\":757:775   */\n      add\n        /* \"#utility.yul\":749:775   */\n      swap1\n      pop\n        /* \"#utility.yul\":785:856   */\n      tag_145\n        /* \"#utility.yul\":853:854   */\n      0x00\n        /* \"#utility.yul\":842:851   */\n      dup4\n        /* \"#utility.yul\":838:855   */\n      add\n        /* \"#utility.yul\":829:835   */\n      dup5\n        /* \"#utility.yul\":785:856   */\n      tag_88\n      jump\t// in\n    tag_145:\n        /* \"#utility.yul\":641:863   */\n      swap3\n      swap2\n      pop\n      pop\n      jump\t// out\n        /* \"#utility.yul\":869:959   */\n    tag_89:\n        /* \"#utility.yul\":903:910   */\n      0x00\n        /* \"#utility.yul\":946:951   */\n      dup2\n        /* \"#utility.yul\":939:952   */\n      iszero\n        /* \"#utility.yul\":932:953   */\n      iszero\n        /* \"#utility.yul\":921:953   */\n      swap1\n      pop\n        /* \"#utility.yul\":869:959   */\n      swap2\n      swap1\n      pop\n      jump\t// out\n        /* \"#utility.yul\":965:1074   */\n    tag_90:\n        /* \"#utility.yul\":1046:1067   */\n      tag_148\n        /* \"#utility.yul\":1061:1066   */\n      dup2\n        /* \"#utility.yul\":1046:1067   */\n      tag_89\n      jump\t// in\n    tag_148:\n        /* \"#utility.yul\":1041:1044   */\n      dup3\n        /* \"#utility.yul\":1034:1068   */\n      mstore\n        /* \"#utility.yul\":965:1074   */\n      pop\n      pop\n      jump\t// out\n        /* \"#utility.yul\":1080:1290   */\n    tag_28:\n        /* \"#utility.yul\":1167:1171   */\n      0x00\n        /* \"#utility.yul\":1205:1207   */\n      0x20\n        /* \"#utility.yul\":1194:1203   */\n      dup3\n        /* \"#utility.yul\":1190:1208   */\n      add\n        /* \"#utility.yul\":1182:1208   */\n      swap1\n      pop\n        /* \"#utility.yul\":1218:1283   */\n      tag_150\n        /* \"#utility.yul\":1280:1281   */\n      0x00\n        /* \"#utility.yul\":1269:1278   */\n      dup4\n        /* \"#utility.yul\":1265:1282   */\n      add\n        /* \"#utility.yul\":1256:1262   */\n      dup5\n        /* \"#utility.yul\":1218:1283   */\n      tag_90\n      jump\t// in\n    tag_150:\n        /* \"#utility.yul\":1080:1290   */\n      swap3\n      swap2\n      pop\n      pop\n      jump\t// out\n        /* \"#utility.yul\":1296:1371   */\n    tag_91:\n        /* \"#utility.yul\":1329:1335   */\n      0x00\n        /* \"#utility.yul\":1362:1364   */\n      0x40\n        /* \"#utility.yul\":1356:1365   */\n      mload\n        /* \"#utility.yul\":1346:1365   */\n      swap1\n      pop\n        /* \"#utility.yul\":1296:1371   */\n      swap1\n      jump\t// out\n        /* \"#utility.yul\":1377:1494   */\n    tag_92:\n        /* \"#utility.yul\":1486:1487   */\n      0x00\n        /* \"#utility.yul\":1483:1484   */\n      dup1\n        /* \"#utility.yul\":1476:1488   */\n      revert\n        /* \"#utility.yul\":1500:1617   */\n    tag_93:\n        /* \"#utility.yul\":1609:1610   */\n      0x00\n        /* \"#utility.yul\":1606:1607   */\n      dup1\n        /* \"#utility.yul\":1599:1611   */\n      revert\n        /* \"#utility.yul\":1623:1740   */\n    tag_94:\n        /* \"#utility.yul\":1732:1733   */\n      0x00\n        /* \"#utility.yul\":1729:1730   */\n      dup1\n        /* \"#utility.yul\":1722:1734   */\n      revert\n        /* \"#utility.yul\":1746:1863   */\n    tag_95:\n        /* \"#utility.yul\":1855:1856   */\n      0x00\n        /* \"#utility.yul\":1852:1853   */\n      dup1\n        /* \"#utility.yul\":1845:1857   */\n      revert\n        /* \"#utility.yul\":1869:1971   */\n    tag_96:\n        /* \"#utility.yul\":1910:1916   */\n      0x00\n        /* \"#utility.yul\":1961:1963   */\n      0x1f\n        /* \"#utility.yul\":1957:1964   */\n      not\n        /* \"#utility.yul\":1952:1954   */\n      0x1f\n        /* \"#utility.yul\":1945:1950   */\n      dup4\n        /* \"#utility.yul\":1941:1955   */\n      add\n        /* \"#utility.yul\":1937:1965   */\n      and\n        /* \"#utility.yul\":1927:1965   */\n      swap1\n      pop\n        /* \"#utility.yul\":1869:1971   */\n      swap2\n      swap1\n      pop\n      jump\t// out\n        /* \"#utility.yul\":1977:2157   */\n    tag_97:\n        /* \"#utility.yul\":2025:2102   */\n      0x4e487b7100000000000000000000000000000000000000000000000000000000\n        /* \"#utility.yul\":2022:2023   */\n      0x00\n        /* \"#utility.yul\":2015:2103   */\n      mstore\n        /* \"#utility.yul\":2122:2126   */\n      0x41\n        /* \"#utility.yul\":2119:2120   */\n      0x04\n        /* \"#utility.yul\":2112:2127   */\n      mstore\n        /* \"#utility.yul\":2146:2150   */\n      0x24\n        /* \"#utility.yul\":2143:2144   */\n      0x00\n        /* \"#utility.yul\":2136:2151   */\n      revert\n        /* \"#utility.yul\":2163:2444   */\n    tag_98:\n        /* \"#utility.yul\":2246:2273   */\n      tag_159\n        /* \"#utility.yul\":2268:2272   */\n      dup3\n        /* \"#utility.yul\":2246:2273   */\n      tag_96\n      jump\t// in\n    tag_159:\n        /* \"#utility.yul\":2238:2244   */\n      dup2\n        /* \"#utility.yul\":2234:2274   */\n      add\n        /* \"#utility.yul\":2376:2382   */\n      dup2\n        /* \"#utility.yul\":2364:2374   */\n      dup2\n        /* \"#utility.yul\":2361:2383   */\n      lt\n        /* \"#utility.yul\":2340:2358   */\n      0xffffffffffffffff\n        /* \"#utility.yul\":2328:2338   */\n      dup3\n        /* \"#utility.yul\":2325:2359   */\n      gt\n        /* \"#utility.yul\":2322:2384   */\n      or\n        /* \"#utility.yul\":2319:2407   */\n      iszero\n      tag_160\n      jumpi\n        /* \"#utility.yul\":2387:2405   */\n      tag_161\n      tag_97\n      jump\t// in\n    tag_161:\n        /* \"#utility.yul\":2319:2407   */\n    tag_160:\n        /* \"#utility.yul\":2427:2437   */\n      dup1\n        /* \"#utility.yul\":2423:2425   */\n      0x40\n        /* \"#utility.yul\":2416:2438   */\n      mstore\n        /* \"#utility.yul\":2206:2444   */\n      pop\n        /* \"#utility.yul\":2163:2444   */\n      pop\n      pop\n      jump\t// out\n        /* \"#utility.yul\":2450:2579   */\n    tag_99:\n        /* \"#utility.yul\":2484:2490   */\n      0x00\n        /* \"#utility.yul\":2511:2531   */\n      tag_163\n      tag_91\n      jump\t// in\n    tag_163:\n        /* \"#utility.yul\":2501:2531   */\n      swap1\n      pop\n        /* \"#utility.yul\":2540:2573   */\n      tag_164\n        /* \"#utility.yul\":2568:2572   */\n      dup3\n        /* \"#utility.yul\":2560:2566   */\n      dup3\n        /* \"#utility.yul\":2540:2573   */\n      tag_98\n      jump\t// in\n    tag_164:\n        /* \"#utility.yul\":2450:2579   */\n      swap2\n      swap1\n      pop\n      jump\t// out\n        /* \"#utility.yul\":2585:2893   */\n    tag_100:\n        /* \"#utility.yul\":2647:2651   */\n      0x00\n        /* \"#utility.yul\":2737:2755   */\n      0xffffffffffffffff\n        /* \"#utility.yul\":2729:2735   */\n      dup3\n        /* \"#utility.yul\":2726:2756   */\n      gt\n        /* \"#utility.yul\":2723:2779   */\n      iszero\n      tag_166\n      jumpi\n        /* \"#utility.yul\":2759:2777   */\n      tag_167\n      tag_97\n      jump\t// in\n    tag_167:\n        /* \"#utility.yul\":2723:2779   */\n    tag_166:\n        /* \"#utility.yul\":2797:2826   */\n      tag_168\n        /* \"#utility.yul\":2819:2825   */\n      dup3\n        /* \"#utility.yul\":2797:2826   */\n      tag_96\n      jump\t// in\n    tag_168:\n        /* \"#utility.yul\":2789:2826   */\n      swap1\n      pop\n        /* \"#utility.yul\":2881:2885   */\n      0x20\n        /* \"#utility.yul\":2875:2879   */\n      dup2\n        /* \"#utility.yul\":2871:2886   */\n      add\n        /* \"#utility.yul\":2863:2886   */\n      swap1\n      pop\n        /* \"#utility.yul\":2585:2893   */\n      swap2\n      swap1\n      pop\n      jump\t// out\n        /* \"#utility.yul\":2899:3047   */\n    tag_101:\n        /* \"#utility.yul\":2997:3003   */\n      dup3\n        /* \"#utility.yul\":2992:2995   */\n      dup2\n        /* \"#utility.yul\":2987:2990   */\n      dup4\n        /* \"#utility.yul\":2974:3004   */\n      calldatacopy\n        /* \"#utility.yul\":3038:3039   */\n      0x00\n        /* \"#utility.yul\":3029:3035   */\n      dup4\n        /* \"#utility.yul\":3024:3027   */\n      dup4\n        /* \"#utility.yul\":3020:3036   */\n      add\n        /* \"#utility.yul\":3013:3040   */\n      mstore\n        /* \"#utility.yul\":2899:3047   */\n      pop\n      pop\n      pop\n      jump\t// out\n        /* \"#utility.yul\":3053:3478   */\n    tag_102:\n        /* \"#utility.yul\":3131:3136   */\n      0x00\n        /* \"#utility.yul\":3156:3222   */\n      tag_171\n        /* \"#utility.yul\":3172:3221   */\n      tag_172\n        /* \"#utility.yul\":3214:3220   */\n      dup5\n        /* \"#utility.yul\":3172:3221   */\n      tag_100\n      jump\t// in\n    tag_172:\n        /* \"#utility.yul\":3156:3222   */\n      tag_99\n      jump\t// in\n    tag_171:\n        /* \"#utility.yul\":3147:3222   */\n      swap1\n      pop\n        /* \"#utility.yul\":3245:3251   */\n      dup3\n        /* \"#utility.yul\":3238:3243   */\n      dup2\n        /* \"#utility.yul\":3231:3252   */\n      mstore\n        /* \"#utility.yul\":3283:3287   */\n      0x20\n        /* \"#utility.yul\":3276:3281   */\n      dup2\n        /* \"#utility.yul\":3272:3288   */\n      add\n        /* \"#utility.yul\":3321:3324   */\n      dup5\n        /* \"#utility.yul\":3312:3318   */\n      dup5\n        /* \"#utility.yul\":3307:3310   */\n      dup5\n        /* \"#utility.yul\":3303:3319   */\n      add\n        /* \"#utility.yul\":3300:3325   */\n      gt\n        /* \"#utility.yul\":3297:3409   */\n      iszero\n      tag_173\n      jumpi\n        /* \"#utility.yul\":3328:3407   */\n      tag_174\n      tag_95\n      jump\t// in\n    tag_174:\n        /* \"#utility.yul\":3297:3409   */\n    tag_173:\n        /* \"#utility.yul\":3418:3472   */\n      tag_175\n        /* \"#utility.yul\":3465:3471   */\n      dup5\n        /* \"#utility.yul\":3460:3463   */\n      dup3\n        /* \"#utility.yul\":3455:3458   */\n      dup6\n        /* \"#utility.yul\":3418:3472   */\n      tag_101\n      jump\t// in\n    tag_175:\n        /* \"#utility.yul\":3137:3478   */\n      pop\n        /* \"#utility.yul\":3053:3478   */\n      swap4\n      swap3\n      pop\n      pop\n      pop\n      jump\t// out\n        /* \"#utility.yul\":3498:3838   */\n    tag_103:\n        /* \"#utility.yul\":3554:3559   */\n      0x00\n        /* \"#utility.yul\":3603:3606   */\n      dup3\n        /* \"#utility.yul\":3596:3600   */\n      0x1f\n        /* \"#utility.yul\":3588:3594   */\n      dup4\n        /* \"#utility.yul\":3584:3601   */\n      add\n        /* \"#utility.yul\":3580:3607   */\n      slt\n        /* \"#utility.yul\":3570:3692   */\n      tag_177\n      jumpi\n        /* \"#utility.yul\":3611:3690   */\n      tag_178\n      tag_94\n      jump\t// in\n    tag_178:\n        /* \"#utility.yul\":3570:3692   */\n    tag_177:\n        /* \"#utility.yul\":3728:3734   */\n      dup2\n        /* \"#utility.yul\":3715:3735   */\n      calldataload\n        /* \"#utility.yul\":3753:3832   */\n      tag_179\n        /* \"#utility.yul\":3828:3831   */\n      dup5\n        /* \"#utility.yul\":3820:3826   */\n      dup3\n        /* \"#utility.yul\":3813:3817   */\n      0x20\n        /* \"#utility.yul\":3805:3811   */\n      dup7\n        /* \"#utility.yul\":3801:3818   */\n      add\n        /* \"#utility.yul\":3753:3832   */\n      tag_102\n      jump\t// in\n    tag_179:\n        /* \"#utility.yul\":3744:3832   */\n      swap2\n      pop\n        /* \"#utility.yul\":3560:3838   */\n      pop\n        /* \"#utility.yul\":3498:3838   */\n      swap3\n      swap2\n      pop\n      pop\n      jump\t// out\n        /* \"#utility.yul\":3844:4678   */\n    tag_31:\n        /* \"#utility.yul\":3932:3938   */\n      0x00\n        /* \"#utility.yul\":3940:3946   */\n      dup1\n        /* \"#utility.yul\":3989:3991   */\n      0x40\n        /* \"#utility.yul\":3977:3986   */\n      dup4\n        /* \"#utility.yul\":3968:3975   */\n      dup6\n        /* \"#utility.yul\":3964:3987   */\n      sub\n        /* \"#utility.yul\":3960:3992   */\n      slt\n        /* \"#utility.yul\":3957:4076   */\n      iszero\n      tag_181\n      jumpi\n        /* \"#utility.yul\":3995:4074   */\n      tag_182\n      tag_92\n      jump\t// in\n    tag_182:\n        /* \"#utility.yul\":3957:4076   */\n    tag_181:\n        /* \"#utility.yul\":4143:4144   */\n      0x00\n        /* \"#utility.yul\":4132:4141   */\n      dup4\n        /* \"#utility.yul\":4128:4145   */\n      add\n        /* \"#utility.yul\":4115:4146   */\n      calldataload\n        /* \"#utility.yul\":4173:4191   */\n      0xffffffffffffffff\n        /* \"#utility.yul\":4165:4171   */\n      dup2\n        /* \"#utility.yul\":4162:4192   */\n      gt\n        /* \"#utility.yul\":4159:4276   */\n      iszero\n      tag_183\n      jumpi\n        /* \"#utility.yul\":4195:4274   */\n      tag_184\n      tag_93\n      jump\t// in\n    tag_184:\n        /* \"#utility.yul\":4159:4276   */\n    tag_183:\n        /* \"#utility.yul\":4300:4363   */\n      tag_185\n        /* \"#utility.yul\":4355:4362   */\n      dup6\n        /* \"#utility.yul\":4346:4352   */\n      dup3\n        /* \"#utility.yul\":4335:4344   */\n      dup7\n        /* \"#utility.yul\":4331:4353   */\n      add\n        /* \"#utility.yul\":4300:4363   */\n      tag_103\n      jump\t// in\n    tag_185:\n        /* \"#utility.yul\":4290:4363   */\n      swap3\n      pop\n        /* \"#utility.yul\":4086:4373   */\n      pop\n        /* \"#utility.yul\":4440:4442   */\n      0x20\n        /* \"#utility.yul\":4429:4438   */\n      dup4\n        /* \"#utility.yul\":4425:4443   */\n      add\n        /* \"#utility.yul\":4412:4444   */\n      calldataload\n        /* \"#utility.yul\":4471:4489   */\n      0xffffffffffffffff\n        /* \"#utility.yul\":4463:4469   */\n      dup2\n        /* \"#utility.yul\":4460:4490   */\n      gt\n        /* \"#utility.yul\":4457:4574   */\n      iszero\n      tag_186\n      jumpi\n        /* \"#utility.yul\":4493:4572   */\n      tag_187\n      tag_93\n      jump\t// in\n    tag_187:\n        /* \"#utility.yul\":4457:4574   */\n    tag_186:\n        /* \"#utility.yul\":4598:4661   */\n      tag_188\n        /* \"#utility.yul\":4653:4660   */\n      dup6\n        /* \"#utility.yul\":4644:4650   */\n      dup3\n        /* \"#utility.yul\":4633:4642   */\n      dup7\n        /* \"#utility.yul\":4629:4651   */\n      add\n        /* \"#utility.yul\":4598:4661   */\n      tag_103\n      jump\t// in\n    tag_188:\n        /* \"#utility.yul\":4588:4661   */\n      swap2\n      pop\n        /* \"#utility.yul\":4383:4671   */\n      pop\n        /* \"#utility.yul\":3844:4678   */\n      swap3\n      pop\n      swap3\n      swap1\n      pop\n      jump\t// out\n        /* \"#utility.yul\":4684:4783   */\n    tag_104:\n        /* \"#utility.yul\":4736:4742   */\n      0x00\n        /* \"#utility.yul\":4770:4775   */\n      dup2\n        /* \"#utility.yul\":4764:4776   */\n      mload\n        /* \"#utility.yul\":4754:4776   */\n      swap1\n      pop\n        /* \"#utility.yul\":4684:4783   */\n      swap2\n      swap1\n      pop\n      jump\t// out\n        /* \"#utility.yul\":4789:4958   */\n    tag_105:\n        /* \"#utility.yul\":4873:4884   */\n      0x00\n        /* \"#utility.yul\":4907:4913   */\n      dup3\n        /* \"#utility.yul\":4902:4905   */\n      dup3\n        /* \"#utility.yul\":4895:4914   */\n      mstore\n        /* \"#utility.yul\":4947:4951   */\n      0x20\n        /* \"#utility.yul\":4942:4945   */\n      dup3\n        /* \"#utility.yul\":4938:4952   */\n      add\n        /* \"#utility.yul\":4923:4952   */\n      swap1\n      pop\n        /* \"#utility.yul\":4789:4958   */\n      swap3\n      swap2\n      pop\n      pop\n      jump\t// out\n        /* \"#utility.yul\":4964:5103   */\n    tag_106:\n        /* \"#utility.yul\":5053:5059   */\n      dup3\n        /* \"#utility.yul\":5048:5051   */\n      dup2\n        /* \"#utility.yul\":5043:5046   */\n      dup4\n        /* \"#utility.yul\":5037:5060   */\n      mcopy\n        /* \"#utility.yul\":5094:5095   */\n      0x00\n        /* \"#utility.yul\":5085:5091   */\n      dup4\n        /* \"#utility.yul\":5080:5083   */\n      dup4\n        /* \"#utility.yul\":5076:5092   */\n      add\n        /* \"#utility.yul\":5069:5096   */\n      mstore\n        /* \"#utility.yul\":4964:5103   */\n      pop\n      pop\n      pop\n      jump\t// out\n        /* \"#utility.yul\":5109:5486   */\n    tag_107:\n        /* \"#utility.yul\":5197:5200   */\n      0x00\n        /* \"#utility.yul\":5225:5264   */\n      tag_193\n        /* \"#utility.yul\":5258:5263   */\n      dup3\n        /* \"#utility.yul\":5225:5264   */\n      tag_104\n      jump\t// in\n    tag_193:\n        /* \"#utility.yul\":5280:5351   */\n      tag_194\n        /* \"#utility.yul\":5344:5350   */\n      dup2\n        /* \"#utility.yul\":5339:5342   */\n      dup6\n        /* \"#utility.yul\":5280:5351   */\n      tag_105\n      jump\t// in\n    tag_194:\n        /* \"#utility.yul\":5273:5351   */\n      swap4\n      pop\n        /* \"#utility.yul\":5360:5425   */\n      tag_195\n        /* \"#utility.yul\":5418:5424   */\n      dup2\n        /* \"#utility.yul\":5413:5416   */\n      dup6\n        /* \"#utility.yul\":5406:5410   */\n      0x20\n        /* \"#utility.yul\":5399:5404   */\n      dup7\n        /* \"#utility.yul\":5395:5411   */\n      add\n        /* \"#utility.yul\":5360:5425   */\n      tag_106\n      jump\t// in\n    tag_195:\n        /* \"#utility.yul\":5450:5479   */\n      tag_196\n        /* \"#utility.yul\":5472:5478   */\n      dup2\n        /* \"#utility.yul\":5450:5479   */\n      tag_96\n      jump\t// in\n    tag_196:\n        /* \"#utility.yul\":5445:5448   */\n      dup5\n        /* \"#utility.yul\":5441:5480   */\n      add\n        /* \"#utility.yul\":5434:5480   */\n      swap2\n      pop\n        /* \"#utility.yul\":5201:5486   */\n      pop\n        /* \"#utility.yul\":5109:5486   */\n      swap3\n      swap2\n      pop\n      pop\n      jump\t// out\n        /* \"#utility.yul\":5492:5805   */\n    tag_34:\n        /* \"#utility.yul\":5605:5609   */\n      0x00\n        /* \"#utility.yul\":5643:5645   */\n      0x20\n        /* \"#utility.yul\":5632:5641   */\n      dup3\n        /* \"#utility.yul\":5628:5646   */\n      add\n        /* \"#utility.yul\":5620:5646   */\n      swap1\n      pop\n        /* \"#utility.yul\":5692:5701   */\n      dup2\n        /* \"#utility.yul\":5686:5690   */\n      dup2\n        /* \"#utility.yul\":5682:5702   */\n      sub\n        /* \"#utility.yul\":5678:5679   */\n      0x00\n        /* \"#utility.yul\":5667:5676   */\n      dup4\n        /* \"#utility.yul\":5663:5680   */\n      add\n        /* \"#utility.yul\":5656:5703   */\n      mstore\n        /* \"#utility.yul\":5720:5798   */\n      tag_198\n        /* \"#utility.yul\":5793:5797   */\n      dup2\n        /* \"#utility.yul\":5784:5790   */\n      dup5\n        /* \"#utility.yul\":5720:5798   */\n      tag_107\n      jump\t// in\n    tag_198:\n        /* \"#utility.yul\":5712:5798   */\n      swap1\n      pop\n        /* \"#utility.yul\":5492:5805   */\n      swap3\n      swap2\n      pop\n      pop\n      jump\t// out\n        /* \"#utility.yul\":5811:5931   */\n    tag_108:\n        /* \"#utility.yul\":5883:5906   */\n      tag_200\n        /* \"#utility.yul\":5900:5905   */\n      dup2\n        /* \"#utility.yul\":5883:5906   */\n      tag_85\n      jump\t// in\n    tag_200:\n        /* \"#utility.yul\":5876:5881   */\n      dup2\n        /* \"#utility.yul\":5873:5907   */\n      eq\n        /* \"#utility.yul\":5863:5925   */\n      tag_201\n      jumpi\n        /* \"#utility.yul\":5921:5922   */\n      0x00\n        /* \"#utility.yul\":5918:5919   */\n      dup1\n        /* \"#utility.yul\":5911:5923   */\n      revert\n        /* \"#utility.yul\":5863:5925   */\n    tag_201:\n        /* \"#utility.yul\":5811:5931   */\n      pop\n      jump\t// out\n        /* \"#utility.yul\":5937:6074   */\n    tag_109:\n        /* \"#utility.yul\":5982:5987   */\n      0x00\n        /* \"#utility.yul\":6020:6026   */\n      dup2\n        /* \"#utility.yul\":6007:6027   */\n      calldataload\n        /* \"#utility.yul\":5998:6027   */\n      swap1\n      pop\n        /* \"#utility.yul\":6036:6068   */\n      tag_203\n        /* \"#utility.yul\":6062:6067   */\n      dup2\n        /* \"#utility.yul\":6036:6068   */\n      tag_108\n      jump\t// in\n    tag_203:\n        /* \"#utility.yul\":5937:6074   */\n      swap3\n      swap2\n      pop\n      pop\n      jump\t// out\n        /* \"#utility.yul\":6080:6732   */\n    tag_40:\n        /* \"#utility.yul\":6157:6163   */\n      0x00\n        /* \"#utility.yul\":6165:6171   */\n      dup1\n        /* \"#utility.yul\":6214:6216   */\n      0x40\n        /* \"#utility.yul\":6202:6211   */\n      dup4\n        /* \"#utility.yul\":6193:6200   */\n      dup6\n        /* \"#utility.yul\":6189:6212   */\n      sub\n        /* \"#utility.yul\":6185:6217   */\n      slt\n        /* \"#utility.yul\":6182:6301   */\n      iszero\n      tag_205\n      jumpi\n        /* \"#utility.yul\":6220:6299   */\n      tag_206\n      tag_92\n      jump\t// in\n    tag_206:\n        /* \"#utility.yul\":6182:6301   */\n    tag_205:\n        /* \"#utility.yul\":6340:6341   */\n      0x00\n        /* \"#utility.yul\":6365:6417   */\n      tag_207\n        /* \"#utility.yul\":6409:6416   */\n      dup6\n        /* \"#utility.yul\":6400:6406   */\n      dup3\n        /* \"#utility.yul\":6389:6398   */\n      dup7\n        /* \"#utility.yul\":6385:6407   */\n      add\n        /* \"#utility.yul\":6365:6417   */\n      tag_109\n      jump\t// in\n    tag_207:\n        /* \"#utility.yul\":6355:6417   */\n      swap3\n      pop\n        /* \"#utility.yul\":6311:6427   */\n      pop\n        /* \"#utility.yul\":6494:6496   */\n      0x20\n        /* \"#utility.yul\":6483:6492   */\n      dup4\n        /* \"#utility.yul\":6479:6497   */\n      add\n        /* \"#utility.yul\":6466:6498   */\n      calldataload\n        /* \"#utility.yul\":6525:6543   */\n      0xffffffffffffffff\n        /* \"#utility.yul\":6517:6523   */\n      dup2\n        /* \"#utility.yul\":6514:6544   */\n      gt\n        /* \"#utility.yul\":6511:6628   */\n      iszero\n      tag_208\n      jumpi\n        /* \"#utility.yul\":6547:6626   */\n      tag_209\n      tag_93\n      jump\t// in\n    tag_209:\n        /* \"#utility.yul\":6511:6628   */\n    tag_208:\n        /* \"#utility.yul\":6652:6715   */\n      tag_210\n        /* \"#utility.yul\":6707:6714   */\n      dup6\n        /* \"#utility.yul\":6698:6704   */\n      dup3\n        /* \"#utility.yul\":6687:6696   */\n      dup7\n        /* \"#utility.yul\":6683:6705   */\n      add\n        /* \"#utility.yul\":6652:6715   */\n      tag_103\n      jump\t// in\n    tag_210:\n        /* \"#utility.yul\":6642:6715   */\n      swap2\n      pop\n        /* \"#utility.yul\":6437:6725   */\n      pop\n        /* \"#utility.yul\":6080:6732   */\n      swap3\n      pop\n      swap3\n      swap1\n      pop\n      jump\t// out\n        /* \"#utility.yul\":6738:6864   */\n    tag_110:\n        /* \"#utility.yul\":6775:6782   */\n      0x00\n        /* \"#utility.yul\":6815:6857   */\n      0xffffffffffffffffffffffffffffffffffffffff\n        /* \"#utility.yul\":6808:6813   */\n      dup3\n        /* \"#utility.yul\":6804:6858   */\n      and\n        /* \"#utility.yul\":6793:6858   */\n      swap1\n      pop\n        /* \"#utility.yul\":6738:6864   */\n      swap2\n      swap1\n      pop\n      jump\t// out\n        /* \"#utility.yul\":6870:6966   */\n    tag_111:\n        /* \"#utility.yul\":6907:6914   */\n      0x00\n        /* \"#utility.yul\":6936:6960   */\n      tag_213\n        /* \"#utility.yul\":6954:6959   */\n      dup3\n        /* \"#utility.yul\":6936:6960   */\n      tag_110\n      jump\t// in\n    tag_213:\n        /* \"#utility.yul\":6925:6960   */\n      swap1\n      pop\n        /* \"#utility.yul\":6870:6966   */\n      swap2\n      swap1\n      pop\n      jump\t// out\n        /* \"#utility.yul\":6972:7090   */\n    tag_112:\n        /* \"#utility.yul\":7059:7083   */\n      tag_215\n        /* \"#utility.yul\":7077:7082   */\n      dup2\n        /* \"#utility.yul\":7059:7083   */\n      tag_111\n      jump\t// in\n    tag_215:\n        /* \"#utility.yul\":7054:7057   */\n      dup3\n        /* \"#utility.yul\":7047:7084   */\n      mstore\n        /* \"#utility.yul\":6972:7090   */\n      pop\n      pop\n      jump\t// out\n        /* \"#utility.yul\":7096:7318   */\n    tag_49:\n        /* \"#utility.yul\":7189:7193   */\n      0x00\n        /* \"#utility.yul\":7227:7229   */\n      0x20\n        /* \"#utility.yul\":7216:7225   */\n      dup3\n        /* \"#utility.yul\":7212:7230   */\n      add\n        /* \"#utility.yul\":7204:7230   */\n      swap1\n      pop\n        /* \"#utility.yul\":7240:7311   */\n      tag_217\n        /* \"#utility.yul\":7308:7309   */\n      0x00\n        /* \"#utility.yul\":7297:7306   */\n      dup4\n        /* \"#utility.yul\":7293:7310   */\n      add\n        /* \"#utility.yul\":7284:7290   */\n      dup5\n        /* \"#utility.yul\":7240:7311   */\n      tag_112\n      jump\t// in\n    tag_217:\n        /* \"#utility.yul\":7096:7318   */\n      swap3\n      swap2\n      pop\n      pop\n      jump\t// out\n        /* \"#utility.yul\":7324:7651   */\n    tag_52:\n        /* \"#utility.yul\":7382:7388   */\n      0x00\n        /* \"#utility.yul\":7431:7433   */\n      0x20\n        /* \"#utility.yul\":7419:7428   */\n      dup3\n        /* \"#utility.yul\":7410:7417   */\n      dup5\n        /* \"#utility.yul\":7406:7429   */\n      sub\n        /* \"#utility.yul\":7402:7434   */\n      slt\n        /* \"#utility.yul\":7399:7518   */\n      iszero\n      tag_219\n      jumpi\n        /* \"#utility.yul\":7437:7516   */\n      tag_220\n      tag_92\n      jump\t// in\n    tag_220:\n        /* \"#utility.yul\":7399:7518   */\n    tag_219:\n        /* \"#utility.yul\":7557:7558   */\n      0x00\n        /* \"#utility.yul\":7582:7634   */\n      tag_221\n        /* \"#utility.yul\":7626:7633   */\n      dup5\n        /* \"#utility.yul\":7617:7623   */\n      dup3\n        /* \"#utility.yul\":7606:7615   */\n      dup6\n        /* \"#utility.yul\":7602:7624   */\n      add\n        /* \"#utility.yul\":7582:7634   */\n      tag_109\n      jump\t// in\n    tag_221:\n        /* \"#utility.yul\":7572:7634   */\n      swap2\n      pop\n        /* \"#utility.yul\":7528:7644   */\n      pop\n        /* \"#utility.yul\":7324:7651   */\n      swap3\n      swap2\n      pop\n      pop\n      jump\t// out\n        /* \"#utility.yul\":7657:7837   */\n    tag_113:\n        /* \"#utility.yul\":7705:7782   */\n      0x4e487b7100000000000000000000000000000000000000000000000000000000\n        /* \"#utility.yul\":7702:7703   */\n      0x00\n        /* \"#utility.yul\":7695:7783   */\n      mstore\n        /* \"#utility.yul\":7802:7806   */\n      0x11\n        /* \"#utility.yul\":7799:7800   */\n      0x04\n        /* \"#utility.yul\":7792:7807   */\n      mstore\n        /* \"#utility.yul\":7826:7830   */\n      0x24\n        /* \"#utility.yul\":7823:7824   */\n      0x00\n        /* \"#utility.yul\":7816:7831   */\n      revert\n        /* \"#utility.yul\":7843:8074   */\n    tag_56:\n        /* \"#utility.yul\":7881:7884   */\n      0x00\n        /* \"#utility.yul\":7904:7927   */\n      tag_224\n        /* \"#utility.yul\":7921:7926   */\n      dup3\n        /* \"#utility.yul\":7904:7927   */\n      tag_85\n      jump\t// in\n    tag_224:\n        /* \"#utility.yul\":7895:7927   */\n      swap2\n      pop\n        /* \"#utility.yul\":7949:8015   */\n      0x8000000000000000000000000000000000000000000000000000000000000000\n        /* \"#utility.yul\":7942:7947   */\n      dup3\n        /* \"#utility.yul\":7939:8016   */\n      sub\n        /* \"#utility.yul\":7936:8039   */\n      tag_225\n      jumpi\n        /* \"#utility.yul\":8019:8037   */\n      tag_226\n      tag_113\n      jump\t// in\n    tag_226:\n        /* \"#utility.yul\":7936:8039   */\n    tag_225:\n        /* \"#utility.yul\":8066:8067   */\n      0x01\n        /* \"#utility.yul\":8059:8064   */\n      dup3\n        /* \"#utility.yul\":8055:8068   */\n      sub\n        /* \"#utility.yul\":8048:8068   */\n      swap1\n      pop\n        /* \"#utility.yul\":7843:8074   */\n      swap2\n      swap1\n      pop\n      jump\t// out\n        /* \"#utility.yul\":8080:8228   */\n    tag_114:\n        /* \"#utility.yul\":8182:8193   */\n      0x00\n        /* \"#utility.yul\":8219:8222   */\n      dup2\n        /* \"#utility.yul\":8204:8222   */\n      swap1\n      pop\n        /* \"#utility.yul\":8080:8228   */\n      swap3\n      swap2\n      pop\n      pop\n      jump\t// out\n        /* \"#utility.yul\":8234:8624   */\n    tag_115:\n        /* \"#utility.yul\":8340:8343   */\n      0x00\n        /* \"#utility.yul\":8368:8407   */\n      tag_229\n        /* \"#utility.yul\":8401:8406   */\n      dup3\n        /* \"#utility.yul\":8368:8407   */\n      tag_104\n      jump\t// in\n    tag_229:\n        /* \"#utility.yul\":8423:8512   */\n      tag_230\n        /* \"#utility.yul\":8505:8511   */\n      dup2\n        /* \"#utility.yul\":8500:8503   */\n      dup6\n        /* \"#utility.yul\":8423:8512   */\n      tag_114\n      jump\t// in\n    tag_230:\n        /* \"#utility.yul\":8416:8512   */\n      swap4\n      pop\n        /* \"#utility.yul\":8521:8586   */\n      tag_231\n        /* \"#utility.yul\":8579:8585   */\n      dup2\n        /* \"#utility.yul\":8574:8577   */\n      dup6\n        /* \"#utility.yul\":8567:8571   */\n      0x20\n        /* \"#utility.yul\":8560:8565   */\n      dup7\n        /* \"#utility.yul\":8556:8572   */\n      add\n        /* \"#utility.yul\":8521:8586   */\n      tag_106\n      jump\t// in\n    tag_231:\n        /* \"#utility.yul\":8611:8617   */\n      dup1\n        /* \"#utility.yul\":8606:8609   */\n      dup5\n        /* \"#utility.yul\":8602:8618   */\n      add\n        /* \"#utility.yul\":8595:8618   */\n      swap2\n      pop\n        /* \"#utility.yul\":8344:8624   */\n      pop\n        /* \"#utility.yul\":8234:8624   */\n      swap3\n      swap2\n      pop\n      pop\n      jump\t// out\n        /* \"#utility.yul\":8630:9065   */\n    tag_59:\n        /* \"#utility.yul\":8810:8813   */\n      0x00\n        /* \"#utility.yul\":8832:8927   */\n      tag_233\n        /* \"#utility.yul\":8923:8926   */\n      dup3\n        /* \"#utility.yul\":8914:8920   */\n      dup6\n        /* \"#utility.yul\":8832:8927   */\n      tag_115\n      jump\t// in\n    tag_233:\n        /* \"#utility.yul\":8825:8927   */\n      swap2\n      pop\n        /* \"#utility.yul\":8944:9039   */\n      tag_234\n        /* \"#utility.yul\":9035:9038   */\n      dup3\n        /* \"#utility.yul\":9026:9032   */\n      dup5\n        /* \"#utility.yul\":8944:9039   */\n      tag_115\n      jump\t// in\n    tag_234:\n        /* \"#utility.yul\":8937:9039   */\n      swap2\n      pop\n        /* \"#utility.yul\":9056:9059   */\n      dup2\n        /* \"#utility.yul\":9049:9059   */\n      swap1\n      pop\n        /* \"#utility.yul\":8630:9065   */\n      swap4\n      swap3\n      pop\n      pop\n      pop\n      jump\t// out\n        /* \"#utility.yul\":9071:9251   */\n    tag_116:\n        /* \"#utility.yul\":9119:9196   */\n      0x4e487b7100000000000000000000000000000000000000000000000000000000\n        /* \"#utility.yul\":9116:9117   */\n      0x00\n        /* \"#utility.yul\":9109:9197   */\n      mstore\n        /* \"#utility.yul\":9216:9220   */\n      0x22\n        /* \"#utility.yul\":9213:9214   */\n      0x04\n        /* \"#utility.yul\":9206:9221   */\n      mstore\n        /* \"#utility.yul\":9240:9244   */\n      0x24\n        /* \"#utility.yul\":9237:9238   */\n      0x00\n        /* \"#utility.yul\":9230:9245   */\n      revert\n        /* \"#utility.yul\":9257:9577   */\n    tag_63:\n        /* \"#utility.yul\":9301:9307   */\n      0x00\n        /* \"#utility.yul\":9338:9339   */\n      0x02\n        /* \"#utility.yul\":9332:9336   */\n      dup3\n        /* \"#utility.yul\":9328:9340   */\n      div\n        /* \"#utility.yul\":9318:9340   */\n      swap1\n      pop\n        /* \"#utility.yul\":9385:9386   */\n      0x01\n        /* \"#utility.yul\":9379:9383   */\n      dup3\n        /* \"#utility.yul\":9375:9387   */\n      and\n        /* \"#utility.yul\":9406:9424   */\n      dup1\n        /* \"#utility.yul\":9396:9477   */\n      tag_237\n      jumpi\n        /* \"#utility.yul\":9462:9466   */\n      0x7f\n        /* \"#utility.yul\":9454:9460   */\n      dup3\n        /* \"#utility.yul\":9450:9467   */\n      and\n        /* \"#utility.yul\":9440:9467   */\n      swap2\n      pop\n        /* \"#utility.yul\":9396:9477   */\n    tag_237:\n        /* \"#utility.yul\":9524:9526   */\n      0x20\n        /* \"#utility.yul\":9516:9522   */\n      dup3\n        /* \"#utility.yul\":9513:9527   */\n      lt\n        /* \"#utility.yul\":9493:9511   */\n      dup2\n        /* \"#utility.yul\":9490:9528   */\n      sub\n        /* \"#utility.yul\":9487:9571   */\n      tag_238\n      jumpi\n        /* \"#utility.yul\":9543:9561   */\n      tag_239\n      tag_116\n      jump\t// in\n    tag_239:\n        /* \"#utility.yul\":9487:9571   */\n    tag_238:\n        /* \"#utility.yul\":9308:9577   */\n      pop\n        /* \"#utility.yul\":9257:9577   */\n      swap2\n      swap1\n      pop\n      jump\t// out\n        /* \"#utility.yul\":9583:9724   */\n    tag_117:\n        /* \"#utility.yul\":9632:9636   */\n      0x00\n        /* \"#utility.yul\":9655:9658   */\n      dup2\n        /* \"#utility.yul\":9647:9658   */\n      swap1\n      pop\n        /* \"#utility.yul\":9678:9681   */\n      dup2\n        /* \"#utility.yul\":9675:9676   */\n      0x00\n        /* \"#utility.yul\":9668:9682   */\n      mstore\n        /* \"#utility.yul\":9712:9716   */\n      0x20\n        /* \"#utility.yul\":9709:9710   */\n      0x00\n        /* \"#utility.yul\":9699:9717   */\n      keccak256\n        /* \"#utility.yul\":9691:9717   */\n      swap1\n      pop\n        /* \"#utility.yul\":9583:9724   */\n      swap2\n      swap1\n      pop\n      jump\t// out\n        /* \"#utility.yul\":9730:9823   */\n    tag_118:\n        /* \"#utility.yul\":9767:9773   */\n      0x00\n        /* \"#utility.yul\":9814:9816   */\n      0x20\n        /* \"#utility.yul\":9809:9811   */\n      0x1f\n        /* \"#utility.yul\":9802:9807   */\n      dup4\n        /* \"#utility.yul\":9798:9812   */\n      add\n        /* \"#utility.yul\":9794:9817   */\n      div\n        /* \"#utility.yul\":9784:9817   */\n      swap1\n      pop\n        /* \"#utility.yul\":9730:9823   */\n      swap2\n      swap1\n      pop\n      jump\t// out\n        /* \"#utility.yul\":9829:9936   */\n    tag_119:\n        /* \"#utility.yul\":9873:9881   */\n      0x00\n        /* \"#utility.yul\":9923:9928   */\n      dup3\n        /* \"#utility.yul\":9917:9921   */\n      dup3\n        /* \"#utility.yul\":9913:9929   */\n      shl\n        /* \"#utility.yul\":9892:9929   */\n      swap1\n      pop\n        /* \"#utility.yul\":9829:9936   */\n      swap3\n      swap2\n      pop\n      pop\n      jump\t// out\n        /* \"#utility.yul\":9942:10335   */\n    tag_120:\n        /* \"#utility.yul\":10011:10017   */\n      0x00\n        /* \"#utility.yul\":10061:10062   */\n      0x08\n        /* \"#utility.yul\":10049:10059   */\n      dup4\n        /* \"#utility.yul\":10045:10063   */\n      mul\n        /* \"#utility.yul\":10084:10181   */\n      tag_244\n        /* \"#utility.yul\":10114:10180   */\n      0xffffffffffffffffffffffffffffffffffffffffffffffffffffffffffffffff\n        /* \"#utility.yul\":10103:10112   */\n      dup3\n        /* \"#utility.yul\":10084:10181   */\n      tag_119\n      jump\t// in\n    tag_244:\n        /* \"#utility.yul\":10202:10241   */\n      tag_245\n        /* \"#utility.yul\":10232:10240   */\n      dup7\n        /* \"#utility.yul\":10221:10230   */\n      dup4\n        /* \"#utility.yul\":10202:10241   */\n      tag_119\n      jump\t// in\n    tag_245:\n        /* \"#utility.yul\":10190:10241   */\n      swap6\n      pop\n        /* \"#utility.yul\":10274:10278   */\n      dup1\n        /* \"#utility.yul\":10270:10279   */\n      not\n        /* \"#utility.yul\":10263:10268   */\n      dup5\n        /* \"#utility.yul\":10259:10280   */\n      and\n        /* \"#utility.yul\":10250:10280   */\n      swap4\n      pop\n        /* \"#utility.yul\":10323:10327   */\n      dup1\n        /* \"#utility.yul\":10313:10321   */\n      dup7\n        /* \"#utility.yul\":10309:10328   */\n      and\n        /* \"#utility.yul\":10302:10307   */\n      dup5\n        /* \"#utility.yul\":10299:10329   */\n      or\n        /* \"#utility.yul\":10289:10329   */\n      swap3\n      pop\n        /* \"#utility.yul\":10018:10335   */\n      pop\n      pop\n        /* \"#utility.yul\":9942:10335   */\n      swap4\n      swap3\n      pop\n      pop\n      pop\n      jump\t// out\n        /* \"#utility.yul\":10341:10401   */\n    tag_121:\n        /* \"#utility.yul\":10369:10372   */\n      0x00\n        /* \"#utility.yul\":10390:10395   */\n      dup2\n        /* \"#utility.yul\":10383:10395   */\n      swap1\n      pop\n        /* \"#utility.yul\":10341:10401   */\n      swap2\n      swap1\n      pop\n      jump\t// out\n        /* \"#utility.yul\":10407:10549   */\n    tag_122:\n        /* \"#utility.yul\":10457:10466   */\n      0x00\n        /* \"#utility.yul\":10490:10543   */\n      tag_248\n        /* \"#utility.yul\":10508:10542   */\n      tag_249\n        /* \"#utility.yul\":10517:10541   */\n      tag_250\n        /* \"#utility.yul\":10535:10540   */\n      dup5\n        /* \"#utility.yul\":10517:10541   */\n      tag_87\n      jump\t// in\n    tag_250:\n        /* \"#utility.yul\":10508:10542   */\n      tag_121\n      jump\t// in\n    tag_249:\n        /* \"#utility.yul\":10490:10543   */\n      tag_87\n      jump\t// in\n    tag_248:\n        /* \"#utility.yul\":10477:10543   */\n      swap1\n      pop\n        /* \"#utility.yul\":10407:10549   */\n      swap2\n      swap1\n      pop\n      jump\t// out\n        /* \"#utility.yul\":10555:10630   */\n    tag_123:\n        /* \"#utility.yul\":10598:10601   */\n      0x00\n        /* \"#utility.yul\":10619:10624   */\n      dup2\n        /* \"#utility.yul\":10612:10624   */\n      swap1\n      pop\n        /* \"#utility.yul\":10555:10630   */\n      swap2\n      swap1\n      pop\n      jump\t// out\n        /* \"#utility.yul\":10636:10905   */\n    tag_124:\n        /* \"#utility.yul\":10746:10785   */\n      tag_253\n        /* \"#utility.yul\":10777:10784   */\n      dup4\n        /* \"#utility.yul\":10746:10785   */\n      tag_122\n      jump\t// in\n    tag_253:\n        /* \"#utility.yul\":10807:10898   */\n      tag_254\n        /* \"#utility.yul\":10856:10897   */\n      tag_255\n        /* \"#utility.yul\":10880:10896   */\n      dup3\n        /* \"#utility.yul\":10856:10897   */\n      tag_123\n      jump\t// in\n    tag_255:\n        /* \"#utility.yul\":10848:10854   */\n      dup5\n        /* \"#utility.yul\":10841:10845   */\n      dup5\n        /* \"#utility.yul\":10835:10846   */\n      sload\n        /* \"#utility.yul\":10807:10898   */\n      tag_120\n      jump\t// in\n    tag_254:\n        /* \"#utility.yul\":10801:10805   */\n      dup3\n        /* \"#utility.yul\":10794:10899   */\n      sstore\n        /* \"#utility.yul\":10712:10905   */\n      pop\n        /* \"#utility.yul\":10636:10905   */\n      pop\n      pop\n      pop\n      jump\t// out\n        /* \"#utility.yul\":10911:10984   */\n    tag_125:\n        /* \"#utility.yul\":10956:10959   */\n      0x00\n        /* \"#utility.yul\":10911:10984   */\n      swap1\n      jump\t// out\n        /* \"#utility.yul\":10990:11179   */\n    tag_126:\n        /* \"#utility.yul\":11067:11099   */\n      tag_258\n      tag_125\n      jump\t// in\n    tag_258:\n        /* \"#utility.yul\":11108:11173   */\n      tag_259\n        /* \"#utility.yul\":11166:11172   */\n      dup2\n        /* \"#utility.yul\":11158:11164   */\n      dup5\n        /* \"#utility.yul\":11152:11156   */\n      dup5\n        /* \"#utility.yul\":11108:11173   */\n      tag_124\n      jump\t// in\n    tag_259:\n        /* \"#utility.yul\":11043:11179   */\n      pop\n        /* \"#utility.yul\":10990:11179   */\n      pop\n      pop\n      jump\t// out\n        /* \"#utility.yul\":11185:11371   */\n    tag_127:\n        /* \"#utility.yul\":11245:11365   */\n    tag_261:\n        /* \"#utility.yul\":11262:11265   */\n      dup2\n        /* \"#utility.yul\":11255:11260   */\n      dup2\n        /* \"#utility.yul\":11252:11266   */\n      lt\n        /* \"#utility.yul\":11245:11365   */\n      iszero\n      tag_263\n      jumpi\n        /* \"#utility.yul\":11316:11355   */\n      tag_264\n        /* \"#utility.yul\":11353:11354   */\n      0x00\n        /* \"#utility.yul\":11346:11351   */\n      dup3\n        /* \"#utility.yul\":11316:11355   */\n      tag_126\n      jump\t// in\n    tag_264:\n        /* \"#utility.yul\":11289:11290   */\n      0x01\n        /* \"#utility.yul\":11282:11287   */\n      dup2\n        /* \"#utility.yul\":11278:11291   */\n      add\n        /* \"#utility.yul\":11269:11291   */\n      swap1\n      pop\n        /* \"#utility.yul\":11245:11365   */\n      jump(tag_261)\n    tag_263:\n        /* \"#utility.yul\":11185:11371   */\n      pop\n      pop\n      jump\t// out\n        /* \"#utility.yul\":11377:11920   */\n    tag_128:\n        /* \"#utility.yul\":11478:11480   */\n      0x1f\n        /* \"#utility.yul\":11473:11476   */\n      dup3\n        /* \"#utility.yul\":11470:11481   */\n      gt\n        /* \"#utility.yul\":11467:11913   */\n      iszero\n      tag_266\n      jumpi\n        /* \"#utility.yul\":11512:11550   */\n      tag_267\n        /* \"#utility.yul\":11544:11549   */\n      dup2\n        /* \"#utility.yul\":11512:11550   */\n      tag_117\n      jump\t// in\n    tag_267:\n        /* \"#utility.yul\":11596:11625   */\n      tag_268\n        /* \"#utility.yul\":11614:11624   */\n      dup5\n        /* \"#utility.yul\":11596:11625   */\n      tag_118\n      jump\t// in\n    tag_268:\n        /* \"#utility.yul\":11586:11594   */\n      dup2\n        /* \"#utility.yul\":11582:11626   */\n      add\n        /* \"#utility.yul\":11779:11781   */\n      0x20\n        /* \"#utility.yul\":11767:11777   */\n      dup6\n        /* \"#utility.yul\":11764:11782   */\n      lt\n        /* \"#utility.yul\":11761:11810   */\n      iszero\n      tag_269\n      jumpi\n        /* \"#utility.yul\":11800:11808   */\n      dup2\n        /* \"#utility.yul\":11785:11808   */\n      swap1\n      pop\n        /* \"#utility.yul\":11761:11810   */\n    tag_269:\n        /* \"#utility.yul\":11823:11903   */\n      tag_270\n        /* \"#utility.yul\":11879:11901   */\n      tag_271\n        /* \"#utility.yul\":11897:11900   */\n      dup6\n        /* \"#utility.yul\":11879:11901   */\n      tag_118\n      jump\t// in\n    tag_271:\n        /* \"#utility.yul\":11869:11877   */\n      dup4\n        /* \"#utility.yul\":11865:11902   */\n      add\n        /* \"#utility.yul\":11852:11863   */\n      dup3\n        /* \"#utility.yul\":11823:11903   */\n      tag_127\n      jump\t// in\n    tag_270:\n        /* \"#utility.yul\":11482:11913   */\n      pop\n      pop\n        /* \"#utility.yul\":11467:11913   */\n    tag_266:\n        /* \"#utility.yul\":11377:11920   */\n      pop\n      pop\n      pop\n      jump\t// out\n        /* \"#utility.yul\":11926:12043   */\n    tag_129:\n        /* \"#utility.yul\":11980:11988   */\n      0x00\n        /* \"#utility.yul\":12030:12035   */\n      dup3\n        /* \"#utility.yul\":12024:12028   */\n      dup3\n        /* \"#utility.yul\":12020:12036   */\n      shr\n        /* \"#utility.yul\":11999:12036   */\n      swap1\n      pop\n        /* \"#utility.yul\":11926:12043   */\n      swap3\n      swap2\n      pop\n      pop\n      jump\t// out\n        /* \"#utility.yul\":12049:12218   */\n    tag_130:\n        /* \"#utility.yul\":12093:12099   */\n      0x00\n        /* \"#utility.yul\":12126:12177   */\n      tag_274\n        /* \"#utility.yul\":12174:12175   */\n      0x00\n        /* \"#utility.yul\":12170:12176   */\n      not\n        /* \"#utility.yul\":12162:12167   */\n      dup5\n        /* \"#utility.yul\":12159:12160   */\n      0x08\n        /* \"#utility.yul\":12155:12168   */\n      mul\n        /* \"#utility.yul\":12126:12177   */\n      tag_129\n      jump\t// in\n    tag_274:\n        /* \"#utility.yul\":12122:12178   */\n      not\n        /* \"#utility.yul\":12207:12211   */\n      dup1\n        /* \"#utility.yul\":12201:12205   */\n      dup4\n        /* \"#utility.yul\":12197:12212   */\n      and\n        /* \"#utility.yul\":12187:12212   */\n      swap2\n      pop\n        /* \"#utility.yul\":12100:12218   */\n      pop\n        /* \"#utility.yul\":12049:12218   */\n      swap3\n      swap2\n      pop\n      pop\n      jump\t// out\n        /* \"#utility.yul\":12223:12518   */\n    tag_131:\n        /* \"#utility.yul\":12299:12303   */\n      0x00\n        /* \"#utility.yul\":12445:12474   */\n      tag_276\n        /* \"#utility.yul\":12470:12473   */\n      dup4\n        /* \"#utility.yul\":12464:12468   */\n      dup4\n        /* \"#utility.yul\":12445:12474   */\n      tag_130\n      jump\t// in\n    tag_276:\n        /* \"#utility.yul\":12437:12474   */\n      swap2\n      pop\n        /* \"#utility.yul\":12507:12510   */\n      dup3\n        /* \"#utility.yul\":12504:12505   */\n      0x02\n        /* \"#utility.yul\":12500:12511   */\n      mul\n        /* \"#utility.yul\":12494:12498   */\n      dup3\n        /* \"#utility.yul\":12491:12512   */\n      or\n        /* \"#utility.yul\":12483:12512   */\n      swap1\n      pop\n        /* \"#utility.yul\":12223:12518   */\n      swap3\n      swap2\n      pop\n      pop\n      jump\t// out\n        /* \"#utility.yul\":12523:13918   */\n    tag_61:\n        /* \"#utility.yul\":12640:12677   */\n      tag_278\n        /* \"#utility.yul\":12673:12676   */\n      dup3\n        /* \"#utility.yul\":12640:12677   */\n      tag_104\n      jump\t// in\n    tag_278:\n        /* \"#utility.yul\":12742:12760   */\n      0xffffffffffffffff\n        /* \"#utility.yul\":12734:12740   */\n      dup2\n        /* \"#utility.yul\":12731:12761   */\n      gt\n        /* \"#utility.yul\":12728:12784   */\n      iszero\n      tag_279\n      jumpi\n        /* \"#utility.yul\":12764:12782   */\n      tag_280\n      tag_97\n      jump\t// in\n    tag_280:\n        /* \"#utility.yul\":12728:12784   */\n    tag_279:\n        /* \"#utility.yul\":12808:12846   */\n      tag_281\n        /* \"#utility.yul\":12840:12844   */\n      dup3\n        /* \"#utility.yul\":12834:12845   */\n      sload\n        /* \"#utility.yul\":12808:12846   */\n      tag_63\n      jump\t// in\n    tag_281:\n        /* \"#utility.yul\":12893:12960   */\n      tag_282\n        /* \"#utility.yul\":12953:12959   */\n      dup3\n        /* \"#utility.yul\":12945:12951   */\n      dup3\n        /* \"#utility.yul\":12939:12943   */\n      dup6\n        /* \"#utility.yul\":12893:12960   */\n      tag_128\n      jump\t// in\n    tag_282:\n        /* \"#utility.yul\":12987:12988   */\n      0x00\n        /* \"#utility.yul\":13011:13015   */\n      0x20\n        /* \"#utility.yul\":12998:13015   */\n      swap1\n      pop\n        /* \"#utility.yul\":13043:13045   */\n      0x1f\n        /* \"#utility.yul\":13035:13041   */\n      dup4\n        /* \"#utility.yul\":13032:13046   */\n      gt\n        /* \"#utility.yul\":13060:13061   */\n      0x01\n        /* \"#utility.yul\":13055:13673   */\n      dup2\n      eq\n      tag_284\n      jumpi\n        /* \"#utility.yul\":13717:13718   */\n      0x00\n        /* \"#utility.yul\":13734:13740   */\n      dup5\n        /* \"#utility.yul\":13731:13808   */\n      iszero\n      tag_285\n      jumpi\n        /* \"#utility.yul\":13783:13792   */\n      dup3\n        /* \"#utility.yul\":13778:13781   */\n      dup8\n        /* \"#utility.yul\":13774:13793   */\n      add\n        /* \"#utility.yul\":13768:13794   */\n      mload\n        /* \"#utility.yul\":13759:13794   */\n      swap1\n      pop\n        /* \"#utility.yul\":13731:13808   */\n    tag_285:\n        /* \"#utility.yul\":13834:13901   */\n      tag_286\n        /* \"#utility.yul\":13894:13900   */\n      dup6\n        /* \"#utility.yul\":13887:13892   */\n      dup3\n        /* \"#utility.yul\":13834:13901   */\n      tag_131\n      jump\t// in\n    tag_286:\n        /* \"#utility.yul\":13828:13832   */\n      dup7\n        /* \"#utility.yul\":13821:13902   */\n      sstore\n        /* \"#utility.yul\":13690:13912   */\n      pop\n        /* \"#utility.yul\":13025:13912   */\n      jump(tag_283)\n        /* \"#utility.yul\":13055:13673   */\n    tag_284:\n        /* \"#utility.yul\":13107:13111   */\n      0x1f\n        /* \"#utility.yul\":13103:13112   */\n      not\n        /* \"#utility.yul\":13095:13101   */\n      dup5\n        /* \"#utility.yul\":13091:13113   */\n      and\n        /* \"#utility.yul\":13141:13178   */\n      tag_287\n        /* \"#utility.yul\":13173:13177   */\n      dup7\n        /* \"#utility.yul\":13141:13178   */\n      tag_117\n      jump\t// in\n    tag_287:\n        /* \"#utility.yul\":13200:13201   */\n      0x00\n        /* \"#utility.yul\":13214:13422   */\n    tag_288:\n        /* \"#utility.yul\":13228:13235   */\n      dup3\n        /* \"#utility.yul\":13225:13226   */\n      dup2\n        /* \"#utility.yul\":13222:13236   */\n      lt\n        /* \"#utility.yul\":13214:13422   */\n      iszero\n      tag_290\n      jumpi\n        /* \"#utility.yul\":13307:13316   */\n      dup5\n        /* \"#utility.yul\":13302:13305   */\n      dup10\n        /* \"#utility.yul\":13298:13317   */\n      add\n        /* \"#utility.yul\":13292:13318   */\n      mload\n        /* \"#utility.yul\":13284:13290   */\n      dup3\n        /* \"#utility.yul\":13277:13319   */\n      sstore\n        /* \"#utility.yul\":13358:13359   */\n      0x01\n        /* \"#utility.yul\":13350:13356   */\n      dup3\n        /* \"#utility.yul\":13346:13360   */\n      add\n        /* \"#utility.yul\":13336:13360   */\n      swap2\n      pop\n        /* \"#utility.yul\":13405:13407   */\n      0x20\n        /* \"#utility.yul\":13394:13403   */\n      dup6\n        /* \"#utility.yul\":13390:13408   */\n      add\n        /* \"#utility.yul\":13377:13408   */\n      swap5\n      pop\n        /* \"#utility.yul\":13251:13255   */\n      0x20\n        /* \"#utility.yul\":13248:13249   */\n      dup2\n        /* \"#utility.yul\":13244:13256   */\n      add\n        /* \"#utility.yul\":13239:13256   */\n      swap1\n      pop\n        /* \"#utility.yul\":13214:13422   */\n      jump(tag_288)\n    tag_290:\n        /* \"#utility.yul\":13450:13456   */\n      dup7\n        /* \"#utility.yul\":13441:13448   */\n      dup4\n        /* \"#utility.yul\":13438:13457   */\n      lt\n        /* \"#utility.yul\":13435:13614   */\n      iszero\n      tag_291\n      jumpi\n        /* \"#utility.yul\":13508:13517   */\n      dup5\n        /* \"#utility.yul\":13503:13506   */\n      dup10\n        /* \"#utility.yul\":13499:13518   */\n      add\n        /* \"#utility.yul\":13493:13519   */\n      mload\n        /* \"#utility.yul\":13551:13599   */\n      tag_292\n        /* \"#utility.yul\":13593:13597   */\n      0x1f\n        /* \"#utility.yul\":13585:13591   */\n      dup10\n        /* \"#utility.yul\":13581:13598   */\n      and\n        /* \"#utility.yul\":13570:13579   */\n      dup3\n        /* \"#utility.yul\":13551:13599   */\n      tag_130\n      jump\t// in\n    tag_292:\n        /* \"#utility.yul\":13543:13549   */\n      dup4\n        /* \"#utility.yul\":13536:13600   */\n      sstore\n        /* \"#utility.yul\":13458:13614   */\n      pop\n        /* \"#utility.yul\":13435:13614   */\n    tag_291:\n        /* \"#utility.yul\":13660:13661   */\n      0x01\n        /* \"#utility.yul\":13656:13657   */\n      0x02\n        /* \"#utility.yul\":13648:13654   */\n      dup9\n        /* \"#utility.yul\":13644:13658   */\n      mul\n        /* \"#utility.yul\":13640:13662   */\n      add\n        /* \"#utility.yul\":13634:13638   */\n      dup9\n        /* \"#utility.yul\":13627:13663   */\n      sstore\n        /* \"#utility.yul\":13062:13673   */\n      pop\n      pop\n      pop\n        /* \"#utility.yul\":13025:13912   */\n    tag_283:\n      pop\n        /* \"#utility.yul\":12615:13918   */\n      pop\n      pop\n      pop\n        /* \"#utility.yul\":12523:13918   */\n      pop\n      pop\n      jump\t// out\n        /* \"#utility.yul\":13924:14104   */\n    tag_132:\n        /* \"#utility.yul\":13972:14049   */\n      0x4e487b7100000000000000000000000000000000000000000000000000000000\n        /* \"#utility.yul\":13969:13970   */\n      0x00\n        /* \"#utility.yul\":13962:14050   */\n      mstore\n        /* \"#utility.yul\":14069:14073   */\n      0x12\n        /* \"#utility.yul\":14066:14067   */\n      0x04\n        /* \"#utility.yul\":14059:14074   */\n      mstore\n        /* \"#utility.yul\":14093:14097   */\n      0x24\n        /* \"#utility.yul\":14090:14091   */\n      0x00\n        /* \"#utility.yul\":14083:14098   */\n      revert\n        /* \"#utility.yul\":14110:14284   */\n    tag_73:\n        /* \"#utility.yul\":14141:14142   */\n      0x00\n        /* \"#utility.yul\":14158:14177   */\n      tag_295\n        /* \"#utility.yul\":14175:14176   */\n      dup3\n        /* \"#utility.yul\":14158:14177   */\n      tag_85\n      jump\t// in\n    tag_295:\n        /* \"#utility.yul\":14153:14177   */\n      swap2\n      pop\n        /* \"#utility.yul\":14191:14210   */\n      tag_296\n        /* \"#utility.yul\":14208:14209   */\n      dup4\n        /* \"#utility.yul\":14191:14210   */\n      tag_85\n      jump\t// in\n    tag_296:\n        /* \"#utility.yul\":14186:14210   */\n      swap3\n      pop\n        /* \"#utility.yul\":14229:14230   */\n      dup3\n        /* \"#utility.yul\":14219:14254   */\n      tag_297\n      jumpi\n        /* \"#utility.yul\":14234:14252   */\n      tag_298\n      tag_132\n      jump\t// in\n    tag_298:\n        /* \"#utility.yul\":14219:14254   */\n    tag_297:\n        /* \"#utility.yul\":14276:14277   */\n      dup3\n        /* \"#utility.yul\":14273:14274   */\n      dup3\n        /* \"#utility.yul\":14268:14278   */\n      smod\n        /* \"#utility.yul\":14263:14278   */\n      swap1\n      pop\n        /* \"#utility.yul\":14110:14284   */\n      swap3\n      swap2\n      pop\n      pop\n      jump\t// out\n        /* \"#utility.yul\":14290:14521   */\n    tag_78:\n        /* \"#utility.yul\":14328:14331   */\n      0x00\n        /* \"#utility.yul\":14351:14374   */\n      tag_300\n        /* \"#utility.yul\":14368:14373   */\n      dup3\n        /* \"#utility.yul\":14351:14374   */\n      tag_85\n      jump\t// in\n    tag_300:\n        /* \"#utility.yul\":14342:14374   */\n      swap2\n      pop\n        /* \"#utility.yul\":14396:14462   */\n      0x7fffffffffffffffffffffffffffffffffffffffffffffffffffffffffffffff\n        /* \"#utility.yul\":14389:14394   */\n      dup3\n        /* \"#utility.yul\":14386:14463   */\n      sub\n        /* \"#utility.yul\":14383:14486   */\n      tag_301\n      jumpi\n        /* \"#utility.yul\":14466:14484   */\n      tag_302\n      tag_113\n      jump\t// in\n    tag_302:\n        /* \"#utility.yul\":14383:14486   */\n    tag_301:\n        /* \"#utility.yul\":14513:14514   */\n      0x01\n        /* \"#utility.yul\":14506:14511   */\n      dup3\n        /* \"#utility.yul\":14502:14515   */\n      add\n        /* \"#utility.yul\":14495:14515   */\n      swap1\n      pop\n        /* \"#utility.yul\":14290:14521   */\n      swap2\n      swap1\n      pop\n      jump\t// out\n        /* \"#utility.yul\":14527:14695   */\n    tag_133:\n        /* \"#utility.yul\":14667:14687   */\n      0x4974277320616e206f6464206e756d6265720000000000000000000000000000\n        /* \"#utility.yul\":14663:14664   */\n      0x00\n        /* \"#utility.yul\":14655:14661   */\n      dup3\n        /* \"#utility.yul\":14651:14665   */\n      add\n        /* \"#utility.yul\":14644:14688   */\n      mstore\n        /* \"#utility.yul\":14527:14695   */\n      pop\n      jump\t// out\n        /* \"#utility.yul\":14701:15067   */\n    tag_134:\n        /* \"#utility.yul\":14843:14846   */\n      0x00\n        /* \"#utility.yul\":14864:14931   */\n      tag_305\n        /* \"#utility.yul\":14928:14930   */\n      0x12\n        /* \"#utility.yul\":14923:14926   */\n      dup4\n        /* \"#utility.yul\":14864:14931   */\n      tag_105\n      jump\t// in\n    tag_305:\n        /* \"#utility.yul\":14857:14931   */\n      swap2\n      pop\n        /* \"#utility.yul\":14940:15033   */\n      tag_306\n        /* \"#utility.yul\":15029:15032   */\n      dup3\n        /* \"#utility.yul\":14940:15033   */\n      tag_133\n      jump\t// in\n    tag_306:\n        /* \"#utility.yul\":15058:15060   */\n      0x20\n        /* \"#utility.yul\":15053:15056   */\n      dup3\n        /* \"#utility.yul\":15049:15061   */\n      add\n        /* \"#utility.yul\":15042:15061   */\n      swap1\n      pop\n        /* \"#utility.yul\":14701:15067   */\n      swap2\n      swap1\n      pop\n      jump\t// out\n        /* \"#utility.yul\":15073:15492   */\n    tag_84:\n        /* \"#utility.yul\":15239:15243   */\n      0x00\n        /* \"#utility.yul\":15277:15279   */\n      0x20\n        /* \"#utility.yul\":15266:15275   */\n      dup3\n        /* \"#utility.yul\":15262:15280   */\n      add\n        /* \"#utility.yul\":15254:15280   */\n      swap1\n      pop\n        /* \"#utility.yul\":15326:15335   */\n      dup2\n        /* \"#utility.yul\":15320:15324   */\n      dup2\n        /* \"#utility.yul\":15316:15336   */\n      sub\n        /* \"#utility.yul\":15312:15313   */\n      0x00\n        /* \"#utility.yul\":15301:15310   */\n      dup4\n        /* \"#utility.yul\":15297:15314   */\n      add\n        /* \"#utility.yul\":15290:15337   */\n      mstore\n        /* \"#utility.yul\":15354:15485   */\n      tag_308\n        /* \"#utility.yul\":15480:15484   */\n      dup2\n        /* \"#utility.yul\":15354:15485   */\n      tag_134\n      jump\t// in\n    tag_308:\n        /* \"#utility.yul\":15346:15485   */\n      swap1\n      pop\n        /* \"#utility.yul\":15073:15492   */\n      swap2\n      swap1\n      pop\n      jump\t// out\n\n    auxdata: 0xa2646970667358221220efebbb85073f509624a08b0faf0717834499bca952eca3ec3f1d0f2c94c5f2d564736f6c63430008190033\n}\n",
				"bytecode": {
					"linkReferences": {},
					"object": "608060405260055f5542600155600160025f6101000a81548160ff0219169083151502179055503360045f6101000a81548173ffffffffffffffffffffffffffffffffffffffff021916908373ffffffffffffffffffffffffffffffffffffffff1602179055503480156070575f80fd5b50610d348061007e5f395ff3fe608060405234801561000f575f80fd5b506004361061009c575f3560e01c8063919840ad11610064578063919840ad14610148578063baa7831714610166578063d09de08a14610196578063e21f37ce146101b4578063ed34644b146101d25761009c565b80630dbe671f146100a057806316ada547146100be5780632baeceb7146100dc57806363281b1d146100fa57806389c19ddb14610118575b5f80fd5b6100a86101ee565b6040516100b59190610491565b60405180910390f35b6100c66101f3565b6040516100d391906104c2565b60405180910390f35b6100e46101f9565b6040516100f19190610491565b60405180910390f35b610102610212565b60405161010f91906104f5565b60405180910390f35b610132600480360381019061012d919061065b565b610224565b60405161013f9190610731565b60405180910390f35b6101506102e8565b60405161015d91906104f5565b60405180910390f35b610180600480360381019061017b919061077b565b610350565b60405161018d9190610731565b60405180910390f35b61019e6103e7565b6040516101ab9190610491565b60405180910390f35b6101bc610400565b6040516101c99190610814565b60405180910390f35b6101ec60048036038101906101e7919061082d565b610428565b005b5f5481565b60015481565b5f805f815461020790610885565b919050819055905090565b60025f9054906101000a900460ff1681565b60608282604051602001610239929190610906565b604051602081830303815290604052600390816102569190610b23565b506003805461026490610956565b80601f016020809104026020016040519081016040528092919081815260200182805461029090610956565b80156102db5780601f106102b2576101008083540402835291602001916102db565b820191905f5260205f20905b8154815290600101906020018083116102be57829003601f168201915b5050505050905092915050565b5f6001151560025f9054906101000a900460ff16151503610321575f60025f6101000a81548160ff02191690831515021790555061033c565b600160025f6101000a81548160ff0219169083151502179055505b60025f9054906101000a900460ff16905090565b606060028361035f9190610c1f565b92505f83036103a5576040518060400160405280601381526020017f4974277320616e206576656e206e756d6265720000000000000000000000000081525091506103de565b6040518060400160405280601281526020017f4974277320616e206f6464206e756d626572000000000000000000000000000081525091505b81905092915050565b5f805f81546103f590610c4f565b919050819055905090565b5f60045f9054906101000a900473ffffffffffffffffffffffffffffffffffffffff16905090565b5f6002826104369190610c1f565b14610476576040517f08c379a000000000000000000000000000000000000000000000000000000000815260040161046d90610ce0565b60405180910390fd5b50565b5f819050919050565b61048b81610479565b82525050565b5f6020820190506104a45f830184610482565b92915050565b5f819050919050565b6104bc816104aa565b82525050565b5f6020820190506104d55f8301846104b3565b92915050565b5f8115159050919050565b6104ef816104db565b82525050565b5f6020820190506105085f8301846104e6565b92915050565b5f604051905090565b5f80fd5b5f80fd5b5f80fd5b5f80fd5b5f601f19601f8301169050919050565b7f4e487b71000000000000000000000000000000000000000000000000000000005f52604160045260245ffd5b61056d82610527565b810181811067ffffffffffffffff8211171561058c5761058b610537565b5b80604052505050565b5f61059e61050e565b90506105aa8282610564565b919050565b5f67ffffffffffffffff8211156105c9576105c8610537565b5b6105d282610527565b9050602081019050919050565b828183375f83830152505050565b5f6105ff6105fa846105af565b610595565b90508281526020810184848401111561061b5761061a610523565b5b6106268482856105df565b509392505050565b5f82601f8301126106425761064161051f565b5b81356106528482602086016105ed565b91505092915050565b5f806040838503121561067157610670610517565b5b5f83013567ffffffffffffffff81111561068e5761068d61051b565b5b61069a8582860161062e565b925050602083013567ffffffffffffffff8111156106bb576106ba61051b565b5b6106c78582860161062e565b9150509250929050565b5f81519050919050565b5f82825260208201905092915050565b8281835e5f83830152505050565b5f610703826106d1565b61070d81856106db565b935061071d8185602086016106eb565b61072681610527565b840191505092915050565b5f6020820190508181035f83015261074981846106f9565b905092915050565b61075a81610479565b8114610764575f80fd5b50565b5f8135905061077581610751565b92915050565b5f806040838503121561079157610790610517565b5b5f61079e85828601610767565b925050602083013567ffffffffffffffff8111156107bf576107be61051b565b5b6107cb8582860161062e565b9150509250929050565b5f73ffffffffffffffffffffffffffffffffffffffff82169050919050565b5f6107fe826107d5565b9050919050565b61080e816107f4565b82525050565b5f6020820190506108275f830184610805565b92915050565b5f6020828403121561084257610841610517565b5b5f61084f84828501610767565b91505092915050565b7f4e487b71000000000000000000000000000000000000000000000000000000005f52601160045260245ffd5b5f61088f82610479565b91507f800000000000000000000000000000000000000000000000000000000000000082036108c1576108c0610858565b5b600182039050919050565b5f81905092915050565b5f6108e0826106d1565b6108ea81856108cc565b93506108fa8185602086016106eb565b80840191505092915050565b5f61091182856108d6565b915061091d82846108d6565b91508190509392505050565b7f4e487b71000000000000000000000000000000000000000000000000000000005f52602260045260245ffd5b5f600282049050600182168061096d57607f821691505b6020821081036109805761097f610929565b5b50919050565b5f819050815f5260205f209050919050565b5f6020601f8301049050919050565b5f82821b905092915050565b5f600883026109e27fffffffffffffffffffffffffffffffffffffffffffffffffffffffffffffffff826109a7565b6109ec86836109a7565b95508019841693508086168417925050509392505050565b5f819050919050565b5f610a27610a22610a1d846104aa565b610a04565b6104aa565b9050919050565b5f819050919050565b610a4083610a0d565b610a54610a4c82610a2e565b8484546109b3565b825550505050565b5f90565b610a68610a5c565b610a73818484610a37565b505050565b5b81811015610a9657610a8b5f82610a60565b600181019050610a79565b5050565b601f821115610adb57610aac81610986565b610ab584610998565b81016020851015610ac4578190505b610ad8610ad085610998565b830182610a78565b50505b505050565b5f82821c905092915050565b5f610afb5f1984600802610ae0565b1980831691505092915050565b5f610b138383610aec565b9150826002028217905092915050565b610b2c826106d1565b67ffffffffffffffff811115610b4557610b44610537565b5b610b4f8254610956565b610b5a828285610a9a565b5f60209050601f831160018114610b8b575f8415610b79578287015190505b610b838582610b08565b865550610bea565b601f198416610b9986610986565b5f5b82811015610bc057848901518255600182019150602085019450602081019050610b9b565b86831015610bdd5784890151610bd9601f891682610aec565b8355505b6001600288020188555050505b505050505050565b7f4e487b71000000000000000000000000000000000000000000000000000000005f52601260045260245ffd5b5f610c2982610479565b9150610c3483610479565b925082610c4457610c43610bf2565b5b828207905092915050565b5f610c5982610479565b91507f7fffffffffffffffffffffffffffffffffffffffffffffffffffffffffffffff8203610c8b57610c8a610858565b5b600182019050919050565b7f4974277320616e206f6464206e756d62657200000000000000000000000000005f82015250565b5f610cca6012836106db565b9150610cd582610c96565b602082019050919050565b5f6020820190508181035f830152610cf781610cbe565b905091905056fea2646970667358221220efebbb85073f509624a08b0faf0717834499bca952eca3ec3f1d0f2c94c5f2d564736f6c63430008190033",
					"opcodes": "PUSH1 0x80 PUSH1 0x40 MSTORE PUSH1 0x5 PUSH0 SSTORE TIMESTAMP PUSH1 0x1 SSTORE PUSH1 0x1 PUSH1 0x2 PUSH0 PUSH2 0x100 EXP DUP2 SLOAD DUP2 PUSH1 0xFF MUL NOT AND SWAP1 DUP4 ISZERO ISZERO MUL OR SWAP1 SSTORE POP CALLER PUSH1 0x4 PUSH0 PUSH2 0x100 EXP DUP2 SLOAD DUP2 PUSH20 0xFFFFFFFFFFFFFFFFFFFFFFFFFFFFFFFFFFFFFFFF MUL NOT AND SWAP1 DUP4 PUSH20 0xFFFFFFFFFFFFFFFFFFFFFFFFFFFFFFFFFFFFFFFF AND MUL OR SWAP1 SSTORE POP CALLVALUE DUP1 ISZERO PUSH1 0x70 JUMPI PUSH0 DUP1 REVERT JUMPDEST POP PUSH2 0xD34 DUP1 PUSH2 0x7E PUSH0 CODECOPY PUSH0 RETURN INVALID PUSH1 0x80 PUSH1 0x40 MSTORE CALLVALUE DUP1 ISZERO PUSH2 0xF JUMPI PUSH0 DUP1 REVERT JUMPDEST POP PUSH1 0x4 CALLDATASIZE LT PUSH2 0x9C JUMPI PUSH0 CALLDATALOAD PUSH1 0xE0 SHR DUP1 PUSH4 0x919840AD GT PUSH2 0x64 JUMPI DUP1 PUSH4 0x919840AD EQ PUSH2 0x148 JUMPI DUP1 PUSH4 0xBAA78317 EQ PUSH2 0x166 JUMPI DUP1 PUSH4 0xD09DE08A EQ PUSH2 0x196 JUMPI DUP1 PUSH4 0xE21F37CE EQ PUSH2 0x1B4 JUMPI DUP1 PUSH4 0xED34644B EQ PUSH2 0x1D2 JUMPI PUSH2 0x9C JUMP JUMPDEST DUP1 PUSH4 0xDBE671F EQ PUSH2 0xA0 JUMPI DUP1 PUSH4 0x16ADA547 EQ PUSH2 0xBE JUMPI DUP1 PUSH4 0x2BAECEB7 EQ PUSH2 0xDC JUMPI DUP1 PUSH4 0x63281B1D EQ PUSH2 0xFA JUMPI DUP1 PUSH4 0x89C19DDB EQ PUSH2 0x118 JUMPI JUMPDEST PUSH0 DUP1 REVERT JUMPDEST PUSH2 0xA8 PUSH2 0x1EE JUMP JUMPDEST PUSH1 0x40 MLOAD PUSH2 0xB5 SWAP2 SWAP1 PUSH2 0x491 JUMP JUMPDEST PUSH1 0x40 MLOAD DUP1 SWAP2 SUB SWAP1 RETURN JUMPDEST PUSH2 0xC6 PUSH2 0x1F3 JUMP JUMPDEST PUSH1 0x40 MLOAD PUSH2 0xD3 SWAP2 SWAP1 PUSH2 0x4C2 JUMP JUMPDEST PUSH1 0x40 MLOAD DUP1 SWAP2 SUB SWAP1 RETURN JUMPDEST PUSH2 0xE4 PUSH2 0x1F9 JUMP JUMPDEST PUSH1 0x40 MLOAD PUSH2 0xF1 SWAP2 SWAP1 PUSH2 0x491 JUMP JUMPDEST PUSH1 0x40 MLOAD DUP1 SWAP2 SUB SWAP1 RETURN JUMPDEST PUSH2 0x102 PUSH2 0x212 JUMP JUMPDEST PUSH1 0x40 MLOAD PUSH2 0x10F SWAP2 SWAP1 PUSH2 0x4F5 JUMP JUMPDEST PUSH1 0x40 MLOAD DUP1 SWAP2 SUB SWAP1 RETURN JUMPDEST PUSH2 0x132 PUSH1 0x4 DUP1 CALLDATASIZE SUB DUP2 ADD SWAP1 PUSH2 0x12D SWAP2 SWAP1 PUSH2 0x65B JUMP JUMPDEST PUSH2 0x224 JUMP JUMPDEST PUSH1 0x40 MLOAD PUSH2 0x13F SWAP2 SWAP1 PUSH2 0x731 JUMP JUMPDEST PUSH1 0x40 MLOAD DUP1 SWAP2 SUB SWAP1 RETURN JUMPDEST PUSH2 0x150 PUSH2 0x2E8 JUMP JUMPDEST PUSH1 0x40 MLOAD PUSH2 0x15D SWAP2 SWAP1 PUSH2 0x4F5 JUMP JUMPDEST PUSH1 0x40 MLOAD DUP1 SWAP2 SUB SWAP1 RETURN JUMPDEST PUSH2 0x180 PUSH1 0x4 DUP1 CALLDATASIZE SUB DUP2 ADD SWAP1 PUSH2 0x17B SWAP2 SWAP1 PUSH2 0x77B JUMP JUMPDEST PUSH2 0x350 JUMP JUMPDEST PUSH1 0x40 MLOAD PUSH2 0x18D SWAP2 SWAP1 PUSH2 0x731 JUMP JUMPDEST PUSH1 0x40 MLOAD DUP1 SWAP2 SUB SWAP1 RETURN JUMPDEST PUSH2 0x19E PUSH2 0x3E7 JUMP JUMPDEST PUSH1 0x40 MLOAD PUSH2 0x1AB SWAP2 SWAP1 PUSH2 0x491 JUMP JUMPDEST PUSH1 0x40 MLOAD DUP1 SWAP2 SUB SWAP1 RETURN JUMPDEST PUSH2 0x1BC PUSH2 0x400 JUMP JUMPDEST PUSH1 0x40 MLOAD PUSH2 0x1C9 SWAP2 SWAP1 PUSH2 0x814 JUMP JUMPDEST PUSH1 0x40 MLOAD DUP1 SWAP2 SUB SWAP1 RETURN JUMPDEST PUSH2 0x1EC PUSH1 0x4 DUP1 CALLDATASIZE SUB DUP2 ADD SWAP1 PUSH2 0x1E7 SWAP2 SWAP1 PUSH2 0x82D JUMP JUMPDEST PUSH2 0x428 JUMP JUMPDEST STOP JUMPDEST PUSH0 SLOAD DUP2 JUMP JUMPDEST PUSH1 0x1 SLOAD DUP2 JUMP JUMPDEST PUSH0 DUP1 PUSH0 DUP2 SLOAD PUSH2 0x207 SWAP1 PUSH2 0x885 JUMP JUMPDEST SWAP2 SWAP1 POP DUP2 SWAP1 SSTORE SWAP1 POP SWAP1 JUMP JUMPDEST PUSH1 0x2 PUSH0 SWAP1 SLOAD SWAP1 PUSH2 0x100 EXP SWAP1 DIV PUSH1 0xFF AND DUP2 JUMP JUMPDEST PUSH1 0x60 DUP3 DUP3 PUSH1 0x40 MLOAD PUSH1 0x20 ADD PUSH2 0x239 SWAP3 SWAP2 SWAP1 PUSH2 0x906 JUMP JUMPDEST PUSH1 0x40 MLOAD PUSH1 0x20 DUP2 DUP4 SUB SUB DUP2 MSTORE SWAP1 PUSH1 0x40 MSTORE PUSH1 0x3 SWAP1 DUP2 PUSH2 0x256 SWAP2 SWAP1 PUSH2 0xB23 JUMP JUMPDEST POP PUSH1 0x3 DUP1 SLOAD PUSH2 0x264 SWAP1 PUSH2 0x956 JUMP JUMPDEST DUP1 PUSH1 0x1F ADD PUSH1 0x20 DUP1 SWAP2 DIV MUL PUSH1 0x20 ADD PUSH1 0x40 MLOAD SWAP1 DUP2 ADD PUSH1 0x40 MSTORE DUP1 SWAP3 SWAP2 SWAP1 DUP2 DUP2 MSTORE PUSH1 0x20 ADD DUP3 DUP1 SLOAD PUSH2 0x290 SWAP1 PUSH2 0x956 JUMP JUMPDEST DUP1 ISZERO PUSH2 0x2DB JUMPI DUP1 PUSH1 0x1F LT PUSH2 0x2B2 JUMPI PUSH2 0x100 DUP1 DUP4 SLOAD DIV MUL DUP4 MSTORE SWAP2 PUSH1 0x20 ADD SWAP2 PUSH2 0x2DB JUMP JUMPDEST DUP3 ADD SWAP2 SWAP1 PUSH0 MSTORE PUSH1 0x20 PUSH0 KECCAK256 SWAP1 JUMPDEST DUP2 SLOAD DUP2 MSTORE SWAP1 PUSH1 0x1 ADD SWAP1 PUSH1 0x20 ADD DUP1 DUP4 GT PUSH2 0x2BE JUMPI DUP3 SWAP1 SUB PUSH1 0x1F AND DUP3 ADD SWAP2 JUMPDEST POP POP POP POP POP SWAP1 POP SWAP3 SWAP2 POP POP JUMP JUMPDEST PUSH0 PUSH1 0x1 ISZERO ISZERO PUSH1 0x2 PUSH0 SWAP1 SLOAD SWAP1 PUSH2 0x100 EXP SWAP1 DIV PUSH1 0xFF AND ISZERO ISZERO SUB PUSH2 0x321 JUMPI PUSH0 PUSH1 0x2 PUSH0 PUSH2 0x100 EXP DUP2 SLOAD DUP2 PUSH1 0xFF MUL NOT AND SWAP1 DUP4 ISZERO ISZERO MUL OR SWAP1 SSTORE POP PUSH2 0x33C JUMP JUMPDEST PUSH1 0x1 PUSH1 0x2 PUSH0 PUSH2 0x100 EXP DUP2 SLOAD DUP2 PUSH1 0xFF MUL NOT AND SWAP1 DUP4 ISZERO ISZERO MUL OR SWAP1 SSTORE POP JUMPDEST PUSH1 0x2 PUSH0 SWAP1 SLOAD SWAP1 PUSH2 0x100 EXP SWAP1 DIV PUSH1 0xFF AND SWAP1 POP SWAP1 JUMP JUMPDEST PUSH1 0x60 PUSH1 0x2 DUP4 PUSH2 0x35F SWAP2 SWAP1 PUSH2 0xC1F JUMP JUMPDEST SWAP3 POP PUSH0 DUP4 SUB PUSH2 0x3A5 JUMPI PUSH1 0x40 MLOAD DUP1 PUSH1 0x40 ADD PUSH1 0x40 MSTORE DUP1 PUSH1 0x13 DUP2 MSTORE PUSH1 0x20 ADD PUSH32 0x4974277320616E206576656E206E756D62657200000000000000000000000000 DUP2 MSTORE POP SWAP2 POP PUSH2 0x3DE JUMP JUMPDEST PUSH1 0x40 MLOAD DUP1 PUSH1 0x40 ADD PUSH1 0x40 MSTORE DUP1 PUSH1 0x12 DUP2 MSTORE PUSH1 0x20 ADD PUSH32 0x4974277320616E206F6464206E756D6265720000000000000000000000000000 DUP2 MSTORE POP SWAP2 POP JUMPDEST DUP2 SWAP1 POP SWAP3 SWAP2 POP POP JUMP JUMPDEST PUSH0 DUP1 PUSH0 DUP2 SLOAD PUSH2 0x3F5 SWAP1 PUSH2 0xC4F JUMP JUMPDEST SWAP2 SWAP1 POP DUP2 SWAP1 SSTORE SWAP1 POP SWAP1 JUMP JUMPDEST PUSH0 PUSH1 0x4 PUSH0 SWAP1 SLOAD SWAP1 PUSH2 0x100 EXP SWAP1 DIV PUSH20 0xFFFFFFFFFFFFFFFFFFFFFFFFFFFFFFFFFFFFFFFF AND SWAP1 POP SWAP1 JUMP JUMPDEST PUSH0 PUSH1 0x2 DUP3 PUSH2 0x436 SWAP2 SWAP1 PUSH2 0xC1F JUMP JUMPDEST EQ PUSH2 0x476 JUMPI PUSH1 0x40 MLOAD PUSH32 0x8C379A000000000000000000000000000000000000000000000000000000000 DUP2 MSTORE PUSH1 0x4 ADD PUSH2 0x46D SWAP1 PUSH2 0xCE0 JUMP JUMPDEST PUSH1 0x40 MLOAD DUP1 SWAP2 SUB SWAP1 REVERT JUMPDEST POP JUMP JUMPDEST PUSH0 DUP2 SWAP1 POP SWAP2 SWAP1 POP JUMP JUMPDEST PUSH2 0x48B DUP2 PUSH2 0x479 JUMP JUMPDEST DUP3 MSTORE POP POP JUMP JUMPDEST PUSH0 PUSH1 0x20 DUP3 ADD SWAP1 POP PUSH2 0x4A4 PUSH0 DUP4 ADD DUP5 PUSH2 0x482 JUMP JUMPDEST SWAP3 SWAP2 POP POP JUMP JUMPDEST PUSH0 DUP2 SWAP1 POP SWAP2 SWAP1 POP JUMP JUMPDEST PUSH2 0x4BC DUP2 PUSH2 0x4AA JUMP JUMPDEST DUP3 MSTORE POP POP JUMP JUMPDEST PUSH0 PUSH1 0x20 DUP3 ADD SWAP1 POP PUSH2 0x4D5 PUSH0 DUP4 ADD DUP5 PUSH2 0x4B3 JUMP JUMPDEST SWAP3 SWAP2 POP POP JUMP JUMPDEST PUSH0 DUP2 ISZERO ISZERO SWAP1 POP SWAP2 SWAP1 POP JUMP JUMPDEST PUSH2 0x4EF DUP2 PUSH2 0x4DB JUMP JUMPDEST DUP3 MSTORE POP POP JUMP JUMPDEST PUSH0 PUSH1 0x20 DUP3 ADD SWAP1 POP PUSH2 0x508 PUSH0 DUP4 ADD DUP5 PUSH2 0x4E6 JUMP JUMPDEST SWAP3 SWAP2 POP POP JUMP JUMPDEST PUSH0 PUSH1 0x40 MLOAD SWAP1 POP SWAP1 JUMP JUMPDEST PUSH0 DUP1 REVERT JUMPDEST PUSH0 DUP1 REVERT JUMPDEST PUSH0 DUP1 REVERT JUMPDEST PUSH0 DUP1 REVERT JUMPDEST PUSH0 PUSH1 0x1F NOT PUSH1 0x1F DUP4 ADD AND SWAP1 POP SWAP2 SWAP1 POP JUMP JUMPDEST PUSH32 0x4E487B7100000000000000000000000000000000000000000000000000000000 PUSH0 MSTORE PUSH1 0x41 PUSH1 0x4 MSTORE PUSH1 0x24 PUSH0 REVERT JUMPDEST PUSH2 0x56D DUP3 PUSH2 0x527 JUMP JUMPDEST DUP2 ADD DUP2 DUP2 LT PUSH8 0xFFFFFFFFFFFFFFFF DUP3 GT OR ISZERO PUSH2 0x58C JUMPI PUSH2 0x58B PUSH2 0x537 JUMP JUMPDEST JUMPDEST DUP1 PUSH1 0x40 MSTORE POP POP POP JUMP JUMPDEST PUSH0 PUSH2 0x59E PUSH2 0x50E JUMP JUMPDEST SWAP1 POP PUSH2 0x5AA DUP3 DUP3 PUSH2 0x564 JUMP JUMPDEST SWAP2 SWAP1 POP JUMP JUMPDEST PUSH0 PUSH8 0xFFFFFFFFFFFFFFFF DUP3 GT ISZERO PUSH2 0x5C9 JUMPI PUSH2 0x5C8 PUSH2 0x537 JUMP JUMPDEST JUMPDEST PUSH2 0x5D2 DUP3 PUSH2 0x527 JUMP JUMPDEST SWAP1 POP PUSH1 0x20 DUP2 ADD SWAP1 POP SWAP2 SWAP1 POP JUMP JUMPDEST DUP3 DUP2 DUP4 CALLDATACOPY PUSH0 DUP4 DUP4 ADD MSTORE POP POP POP JUMP JUMPDEST PUSH0 PUSH2 0x5FF PUSH2 0x5FA DUP5 PUSH2 0x5AF JUMP JUMPDEST PUSH2 0x595 JUMP JUMPDEST SWAP1 POP DUP3 DUP2 MSTORE PUSH1 0x20 DUP2 ADD DUP5 DUP5 DUP5 ADD GT ISZERO PUSH2 0x61B JUMPI PUSH2 0x61A PUSH2 0x523 JUMP JUMPDEST JUMPDEST PUSH2 0x626 DUP5 DUP3 DUP6 PUSH2 0x5DF JUMP JUMPDEST POP SWAP4 SWAP3 POP POP POP JUMP JUMPDEST PUSH0 DUP3 PUSH1 0x1F DUP4 ADD SLT PUSH2 0x642 JUMPI PUSH2 0x641 PUSH2 0x51F JUMP JUMPDEST JUMPDEST DUP2 CALLDATALOAD PUSH2 0x652 DUP5 DUP3 PUSH1 0x20 DUP7 ADD PUSH2 0x5ED JUMP JUMPDEST SWAP2 POP POP SWAP3 SWAP2 POP POP JUMP JUMPDEST PUSH0 DUP1 PUSH1 0x40 DUP4 DUP6 SUB SLT ISZERO PUSH2 0x671 JUMPI PUSH2 0x670 PUSH2 0x517 JUMP JUMPDEST JUMPDEST PUSH0 DUP4 ADD CALLDATALOAD PUSH8 0xFFFFFFFFFFFFFFFF DUP2 GT ISZERO PUSH2 0x68E JUMPI PUSH2 0x68D PUSH2 0x51B JUMP JUMPDEST JUMPDEST PUSH2 0x69A DUP6 DUP3 DUP7 ADD PUSH2 0x62E JUMP JUMPDEST SWAP3 POP POP PUSH1 0x20 DUP4 ADD CALLDATALOAD PUSH8 0xFFFFFFFFFFFFFFFF DUP2 GT ISZERO PUSH2 0x6BB JUMPI PUSH2 0x6BA PUSH2 0x51B JUMP JUMPDEST JUMPDEST PUSH2 0x6C7 DUP6 DUP3 DUP7 ADD PUSH2 0x62E JUMP JUMPDEST SWAP2 POP POP SWAP3 POP SWAP3 SWAP1 POP JUMP JUMPDEST PUSH0 DUP2 MLOAD SWAP1 POP SWAP2 SWAP1 POP JUMP JUMPDEST PUSH0 DUP3 DUP3 MSTORE PUSH1 0x20 DUP3 ADD SWAP1 POP SWAP3 SWAP2 POP POP JUMP JUMPDEST DUP3 DUP2 DUP4 MCOPY PUSH0 DUP4 DUP4 ADD MSTORE POP POP POP JUMP JUMPDEST PUSH0 PUSH2 0x703 DUP3 PUSH2 0x6D1 JUMP JUMPDEST PUSH2 0x70D DUP2 DUP6 PUSH2 0x6DB JUMP JUMPDEST SWAP4 POP PUSH2 0x71D DUP2 DUP6 PUSH1 0x20 DUP7 ADD PUSH2 0x6EB JUMP JUMPDEST PUSH2 0x726 DUP2 PUSH2 0x527 JUMP JUMPDEST DUP5 ADD SWAP2 POP POP SWAP3 SWAP2 POP POP JUMP JUMPDEST PUSH0 PUSH1 0x20 DUP3 ADD SWAP1 POP DUP2 DUP2 SUB PUSH0 DUP4 ADD MSTORE PUSH2 0x749 DUP2 DUP5 PUSH2 0x6F9 JUMP JUMPDEST SWAP1 POP SWAP3 SWAP2 POP POP JUMP JUMPDEST PUSH2 0x75A DUP2 PUSH2 0x479 JUMP JUMPDEST DUP2 EQ PUSH2 0x764 JUMPI PUSH0 DUP1 REVERT JUMPDEST POP JUMP JUMPDEST PUSH0 DUP2 CALLDATALOAD SWAP1 POP PUSH2 0x775 DUP2 PUSH2 0x751 JUMP JUMPDEST SWAP3 SWAP2 POP POP JUMP JUMPDEST PUSH0 DUP1 PUSH1 0x40 DUP4 DUP6 SUB SLT ISZERO PUSH2 0x791 JUMPI PUSH2 0x790 PUSH2 0x517 JUMP JUMPDEST JUMPDEST PUSH0 PUSH2 0x79E DUP6 DUP3 DUP7 ADD PUSH2 0x767 JUMP JUMPDEST SWAP3 POP POP PUSH1 0x20 DUP4 ADD CALLDATALOAD PUSH8 0xFFFFFFFFFFFFFFFF DUP2 GT ISZERO PUSH2 0x7BF JUMPI PUSH2 0x7BE PUSH2 0x51B JUMP JUMPDEST JUMPDEST PUSH2 0x7CB DUP6 DUP3 DUP7 ADD PUSH2 0x62E JUMP JUMPDEST SWAP2 POP POP SWAP3 POP SWAP3 SWAP1 POP JUMP JUMPDEST PUSH0 PUSH20 0xFFFFFFFFFFFFFFFFFFFFFFFFFFFFFFFFFFFFFFFF DUP3 AND SWAP1 POP SWAP2 SWAP1 POP JUMP JUMPDEST PUSH0 PUSH2 0x7FE DUP3 PUSH2 0x7D5 JUMP JUMPDEST SWAP1 POP SWAP2 SWAP1 POP JUMP JUMPDEST PUSH2 0x80E DUP2 PUSH2 0x7F4 JUMP JUMPDEST DUP3 MSTORE POP POP JUMP JUMPDEST PUSH0 PUSH1 0x20 DUP3 ADD SWAP1 POP PUSH2 0x827 PUSH0 DUP4 ADD DUP5 PUSH2 0x805 JUMP JUMPDEST SWAP3 SWAP2 POP POP JUMP JUMPDEST PUSH0 PUSH1 0x20 DUP3 DUP5 SUB SLT ISZERO PUSH2 0x842 JUMPI PUSH2 0x841 PUSH2 0x517 JUMP JUMPDEST JUMPDEST PUSH0 PUSH2 0x84F DUP5 DUP3 DUP6 ADD PUSH2 0x767 JUMP JUMPDEST SWAP2 POP POP SWAP3 SWAP2 POP POP JUMP JUMPDEST PUSH32 0x4E487B7100000000000000000000000000000000000000000000000000000000 PUSH0 MSTORE PUSH1 0x11 PUSH1 0x4 MSTORE PUSH1 0x24 PUSH0 REVERT JUMPDEST PUSH0 PUSH2 0x88F DUP3 PUSH2 0x479 JUMP JUMPDEST SWAP2 POP PUSH32 0x8000000000000000000000000000000000000000000000000000000000000000 DUP3 SUB PUSH2 0x8C1 JUMPI PUSH2 0x8C0 PUSH2 0x858 JUMP JUMPDEST JUMPDEST PUSH1 0x1 DUP3 SUB SWAP1 POP SWAP2 SWAP1 POP JUMP JUMPDEST PUSH0 DUP2 SWAP1 POP SWAP3 SWAP2 POP POP JUMP JUMPDEST PUSH0 PUSH2 0x8E0 DUP3 PUSH2 0x6D1 JUMP JUMPDEST PUSH2 0x8EA DUP2 DUP6 PUSH2 0x8CC JUMP JUMPDEST SWAP4 POP PUSH2 0x8FA DUP2 DUP6 PUSH1 0x20 DUP7 ADD PUSH2 0x6EB JUMP JUMPDEST DUP1 DUP5 ADD SWAP2 POP POP SWAP3 SWAP2 POP POP JUMP JUMPDEST PUSH0 PUSH2 0x911 DUP3 DUP6 PUSH2 0x8D6 JUMP JUMPDEST SWAP2 POP PUSH2 0x91D DUP3 DUP5 PUSH2 0x8D6 JUMP JUMPDEST SWAP2 POP DUP2 SWAP1 POP SWAP4 SWAP3 POP POP POP JUMP JUMPDEST PUSH32 0x4E487B7100000000000000000000000000000000000000000000000000000000 PUSH0 MSTORE PUSH1 0x22 PUSH1 0x4 MSTORE PUSH1 0x24 PUSH0 REVERT JUMPDEST PUSH0 PUSH1 0x2 DUP3 DIV SWAP1 POP PUSH1 0x1 DUP3 AND DUP1 PUSH2 0x96D JUMPI PUSH1 0x7F DUP3 AND SWAP2 POP JUMPDEST PUSH1 0x20 DUP3 LT DUP2 SUB PUSH2 0x980 JUMPI PUSH2 0x97F PUSH2 0x929 JUMP JUMPDEST JUMPDEST POP SWAP2 SWAP1 POP JUMP JUMPDEST PUSH0 DUP2 SWAP1 POP DUP2 PUSH0 MSTORE PUSH1 0x20 PUSH0 KECCAK256 SWAP1 POP SWAP2 SWAP1 POP JUMP JUMPDEST PUSH0 PUSH1 0x20 PUSH1 0x1F DUP4 ADD DIV SWAP1 POP SWAP2 SWAP1 POP JUMP JUMPDEST PUSH0 DUP3 DUP3 SHL SWAP1 POP SWAP3 SWAP2 POP POP JUMP JUMPDEST PUSH0 PUSH1 0x8 DUP4 MUL PUSH2 0x9E2 PUSH32 0xFFFFFFFFFFFFFFFFFFFFFFFFFFFFFFFFFFFFFFFFFFFFFFFFFFFFFFFFFFFFFFFF DUP3 PUSH2 0x9A7 JUMP JUMPDEST PUSH2 0x9EC DUP7 DUP4 PUSH2 0x9A7 JUMP JUMPDEST SWAP6 POP DUP1 NOT DUP5 AND SWAP4 POP DUP1 DUP7 AND DUP5 OR SWAP3 POP POP POP SWAP4 SWAP3 POP POP POP JUMP JUMPDEST PUSH0 DUP2 SWAP1 POP SWAP2 SWAP1 POP JUMP JUMPDEST PUSH0 PUSH2 0xA27 PUSH2 0xA22 PUSH2 0xA1D DUP5 PUSH2 0x4AA JUMP JUMPDEST PUSH2 0xA04 JUMP JUMPDEST PUSH2 0x4AA JUMP JUMPDEST SWAP1 POP SWAP2 SWAP1 POP JUMP JUMPDEST PUSH0 DUP2 SWAP1 POP SWAP2 SWAP1 POP JUMP JUMPDEST PUSH2 0xA40 DUP4 PUSH2 0xA0D JUMP JUMPDEST PUSH2 0xA54 PUSH2 0xA4C DUP3 PUSH2 0xA2E JUMP JUMPDEST DUP5 DUP5 SLOAD PUSH2 0x9B3 JUMP JUMPDEST DUP3 SSTORE POP POP POP POP JUMP JUMPDEST PUSH0 SWAP1 JUMP JUMPDEST PUSH2 0xA68 PUSH2 0xA5C JUMP JUMPDEST PUSH2 0xA73 DUP2 DUP5 DUP5 PUSH2 0xA37 JUMP JUMPDEST POP POP POP JUMP JUMPDEST JUMPDEST DUP2 DUP2 LT ISZERO PUSH2 0xA96 JUMPI PUSH2 0xA8B PUSH0 DUP3 PUSH2 0xA60 JUMP JUMPDEST PUSH1 0x1 DUP2 ADD SWAP1 POP PUSH2 0xA79 JUMP JUMPDEST POP POP JUMP JUMPDEST PUSH1 0x1F DUP3 GT ISZERO PUSH2 0xADB JUMPI PUSH2 0xAAC DUP2 PUSH2 0x986 JUMP JUMPDEST PUSH2 0xAB5 DUP5 PUSH2 0x998 JUMP JUMPDEST DUP2 ADD PUSH1 0x20 DUP6 LT ISZERO PUSH2 0xAC4 JUMPI DUP2 SWAP1 POP JUMPDEST PUSH2 0xAD8 PUSH2 0xAD0 DUP6 PUSH2 0x998 JUMP JUMPDEST DUP4 ADD DUP3 PUSH2 0xA78 JUMP JUMPDEST POP POP JUMPDEST POP POP POP JUMP JUMPDEST PUSH0 DUP3 DUP3 SHR SWAP1 POP SWAP3 SWAP2 POP POP JUMP JUMPDEST PUSH0 PUSH2 0xAFB PUSH0 NOT DUP5 PUSH1 0x8 MUL PUSH2 0xAE0 JUMP JUMPDEST NOT DUP1 DUP4 AND SWAP2 POP POP SWAP3 SWAP2 POP POP JUMP JUMPDEST PUSH0 PUSH2 0xB13 DUP4 DUP4 PUSH2 0xAEC JUMP JUMPDEST SWAP2 POP DUP3 PUSH1 0x2 MUL DUP3 OR SWAP1 POP SWAP3 SWAP2 POP POP JUMP JUMPDEST PUSH2 0xB2C DUP3 PUSH2 0x6D1 JUMP JUMPDEST PUSH8 0xFFFFFFFFFFFFFFFF DUP2 GT ISZERO PUSH2 0xB45 JUMPI PUSH2 0xB44 PUSH2 0x537 JUMP JUMPDEST JUMPDEST PUSH2 0xB4F DUP3 SLOAD PUSH2 0x956 JUMP JUMPDEST PUSH2 0xB5A DUP3 DUP3 DUP6 PUSH2 0xA9A JUMP JUMPDEST PUSH0 PUSH1 0x20 SWAP1 POP PUSH1 0x1F DUP4 GT PUSH1 0x1 DUP2 EQ PUSH2 0xB8B JUMPI PUSH0 DUP5 ISZERO PUSH2 0xB79 JUMPI DUP3 DUP8 ADD MLOAD SWAP1 POP JUMPDEST PUSH2 0xB83 DUP6 DUP3 PUSH2 0xB08 JUMP JUMPDEST DUP7 SSTORE POP PUSH2 0xBEA JUMP JUMPDEST PUSH1 0x1F NOT DUP5 AND PUSH2 0xB99 DUP7 PUSH2 0x986 JUMP JUMPDEST PUSH0 JUMPDEST DUP3 DUP2 LT ISZERO PUSH2 0xBC0 JUMPI DUP5 DUP10 ADD MLOAD DUP3 SSTORE PUSH1 0x1 DUP3 ADD SWAP2 POP PUSH1 0x20 DUP6 ADD SWAP5 POP PUSH1 0x20 DUP2 ADD SWAP1 POP PUSH2 0xB9B JUMP JUMPDEST DUP7 DUP4 LT ISZERO PUSH2 0xBDD JUMPI DUP5 DUP10 ADD MLOAD PUSH2 0xBD9 PUSH1 0x1F DUP10 AND DUP3 PUSH2 0xAEC JUMP JUMPDEST DUP4 SSTORE POP JUMPDEST PUSH1 0x1 PUSH1 0x2 DUP9 MUL ADD DUP9 SSTORE POP POP POP JUMPDEST POP POP POP POP POP POP JUMP JUMPDEST PUSH32 0x4E487B7100000000000000000000000000000000000000000000000000000000 PUSH0 MSTORE PUSH1 0x12 PUSH1 0x4 MSTORE PUSH1 0x24 PUSH0 REVERT JUMPDEST PUSH0 PUSH2 0xC29 DUP3 PUSH2 0x479 JUMP JUMPDEST SWAP2 POP PUSH2 0xC34 DUP4 PUSH2 0x479 JUMP JUMPDEST SWAP3 POP DUP3 PUSH2 0xC44 JUMPI PUSH2 0xC43 PUSH2 0xBF2 JUMP JUMPDEST JUMPDEST DUP3 DUP3 SMOD SWAP1 POP SWAP3 SWAP2 POP POP JUMP JUMPDEST PUSH0 PUSH2 0xC59 DUP3 PUSH2 0x479 JUMP JUMPDEST SWAP2 POP PUSH32 0x7FFFFFFFFFFFFFFFFFFFFFFFFFFFFFFFFFFFFFFFFFFFFFFFFFFFFFFFFFFFFFFF DUP3 SUB PUSH2 0xC8B JUMPI PUSH2 0xC8A PUSH2 0x858 JUMP JUMPDEST JUMPDEST PUSH1 0x1 DUP3 ADD SWAP1 POP SWAP2 SWAP1 POP JUMP JUMPDEST PUSH32 0x4974277320616E206F6464206E756D6265720000000000000000000000000000 PUSH0 DUP3 ADD MSTORE POP JUMP JUMPDEST PUSH0 PUSH2 0xCCA PUSH1 0x12 DUP4 PUSH2 0x6DB JUMP JUMPDEST SWAP2 POP PUSH2 0xCD5 DUP3 PUSH2 0xC96 JUMP JUMPDEST PUSH1 0x20 DUP3 ADD SWAP1 POP SWAP2 SWAP1 POP JUMP JUMPDEST PUSH0 PUSH1 0x20 DUP3 ADD SWAP1 POP DUP2 DUP2 SUB PUSH0 DUP4 ADD MSTORE PUSH2 0xCF7 DUP2 PUSH2 0xCBE JUMP JUMPDEST SWAP1 POP SWAP2 SWAP1 POP JUMP INVALID LOG2 PUSH5 0x6970667358 0x22 SLT KECCAK256 0xEF 0xEB 0xBB DUP6 SMOD EXTCODEHASH POP SWAP7 0x24 LOG0 DUP12 0xF 0xAF SMOD OR DUP4 PREVRANDAO SWAP10 0xBC 0xA9 MSTORE 0xEC LOG3 0xEC EXTCODEHASH SAR 0xF 0x2C SWAP5 0xC5 CALLCODE 0xD5 PUSH5 0x736F6C6343 STOP ADDMOD NOT STOP CALLER "
				},
				"gasEstimates": {
					"creation": {
						"codeDepositCost": "676000",
						"executionCost": "93447",
						"totalCost": "769447"
					},
					"external": {
						"Found()": "2533",
						"a()": "2425",
						"check()": "28919",
						"check_even(int256)": "infinite",
						"concat(string,string)": "infinite",
						"decrement()": "infinite",
						"even_odd(int256,string)": "infinite",
						"increment()": "infinite",
						"message()": "2581",
						"time()": "2448"
					}
				},
				"methodIdentifiers": {
					"Found()": "63281b1d",
					"a()": "0dbe671f",
					"check()": "919840ad",
					"check_even(int256)": "ed34644b",
					"concat(string,string)": "89c19ddb",
					"decrement()": "2baeceb7",
					"even_odd(int256,string)": "baa78317",
					"increment()": "d09de08a",
					"message()": "e21f37ce",
					"time()": "16ada547"
				}
			},
			"storageLayout": {
				"storage": [
					{
						"astId": 4,
						"contract": "contracts/lecture_01/basics.sol:lecture01",
						"label": "a",
						"offset": 0,
						"slot": "0",
						"type": "t_int256"
					},
					{
						"astId": 8,
						"contract": "contracts/lecture_01/basics.sol:lecture01",
						"label": "time",
						"offset": 0,
						"slot": "1",
						"type": "t_uint256"
					},
					{
						"astId": 29,
						"contract": "contracts/lecture_01/basics.sol:lecture01",
						"label": "Found",
						"offset": 0,
						"slot": "2",
						"type": "t_bool"
					},
					{
						"astId": 100,
						"contract": "contracts/lecture_01/basics.sol:lecture01",
						"label": "newString",
						"offset": 0,
						"slot": "3",
						"type": "t_string_storage"
					},
					{
						"astId": 127,
						"contract": "contracts/lecture_01/basics.sol:lecture01",
						"label": "_owner",
						"offset": 0,
						"slot": "4",
						"type": "t_address"
					}
				],
				"types": {
					"t_address": {
						"encoding": "inplace",
						"label": "address",
						"numberOfBytes": "20"
					},
					"t_bool": {
						"encoding": "inplace",
						"label": "bool",
						"numberOfBytes": "1"
					},
					"t_int256": {
						"encoding": "inplace",
						"label": "int256",
						"numberOfBytes": "32"
					},
					"t_string_storage": {
						"encoding": "bytes",
						"label": "string",
						"numberOfBytes": "32"
					},
					"t_uint256": {
						"encoding": "inplace",
						"label": "uint256",
						"numberOfBytes": "32"
					}
				}
			},
			"userdoc": {
				"kind": "user",
				"methods": {},
				"version": 1
			}
		}
	}
}