{
	"contracts/lecture_01/increment_decrement.sol": {
		"lecture01": {
			"abi": [
				{
					"inputs": [],
					"name": "Found",
					"outputs": [
						{
							"internalType": "bool",
							"name": "",
							"type": "bool"
						}
					],
					"stateMutability": "view",
					"type": "function"
				},
				{
					"inputs": [],
					"name": "a",
					"outputs": [
						{
							"internalType": "int256",
							"name": "",
							"type": "int256"
						}
					],
					"stateMutability": "view",
					"type": "function"
				},
				{
					"inputs": [],
					"name": "check",
					"outputs": [
						{
							"internalType": "bool",
							"name": "",
							"type": "bool"
						}
					],
					"stateMutability": "nonpayable",
					"type": "function"
				},
				{
					"inputs": [
						{
							"internalType": "string",
							"name": "str1",
							"type": "string"
						},
						{
							"internalType": "string",
							"name": "str2",
							"type": "string"
						}
					],
					"name": "concat",
					"outputs": [
						{
							"internalType": "string",
							"name": "",
							"type": "string"
						}
					],
					"stateMutability": "nonpayable",
					"type": "function"
				},
				{
					"inputs": [],
					"name": "decrement",
					"outputs": [
						{
							"internalType": "int256",
							"name": "",
							"type": "int256"
						}
					],
					"stateMutability": "nonpayable",
					"type": "function"
				},
				{
					"inputs": [
						{
							"internalType": "int256",
							"name": "num1",
							"type": "int256"
						},
						{
							"internalType": "string",
							"name": "message",
							"type": "string"
						}
					],
					"name": "even_odd",
					"outputs": [
						{
							"internalType": "string",
							"name": "",
							"type": "string"
						}
					],
					"stateMutability": "pure",
					"type": "function"
				},
				{
					"inputs": [],
					"name": "increment",
					"outputs": [
						{
							"internalType": "int256",
							"name": "",
							"type": "int256"
						}
					],
					"stateMutability": "nonpayable",
					"type": "function"
				}
			],
			"devdoc": {
				"kind": "dev",
				"methods": {},
				"version": 1
			},
			"evm": {
				"assembly": "    /* \"contracts/lecture_01/increment_decrement.sol\":74:1290  contract lecture01 ... */\n  mstore(0x40, 0x80)\n    /* \"contracts/lecture_01/increment_decrement.sol\":124:125  5 */\n  0x05\n    /* \"contracts/lecture_01/increment_decrement.sol\":108:125  int256 public a=5 */\n  0x00\n  sstore\n    /* \"contracts/lecture_01/increment_decrement.sol\":316:320  true */\n  0x01\n    /* \"contracts/lecture_01/increment_decrement.sol\":296:320  bool public Found = true */\n  dup1\n  exp(0x0100, 0x00)\n  dup2\n  sload\n  dup2\n  0xff\n  mul\n  not\n  and\n  swap1\n  dup4\n  iszero\n  iszero\n  mul\n  or\n  swap1\n  sstore\n  pop\n    /* \"contracts/lecture_01/increment_decrement.sol\":74:1290  contract lecture01 ... */\n  callvalue\n  dup1\n  iszero\n  tag_1\n  jumpi\n  0x00\n  dup1\n  revert\ntag_1:\n  pop\n  dataSize(sub_0)\n  dup1\n  dataOffset(sub_0)\n  0x00\n  codecopy\n  0x00\n  return\nstop\n\nsub_0: assembly {\n        /* \"contracts/lecture_01/increment_decrement.sol\":74:1290  contract lecture01 ... */\n      mstore(0x40, 0x80)\n      callvalue\n      dup1\n      iszero\n      tag_1\n      jumpi\n      0x00\n      dup1\n      revert\n    tag_1:\n      pop\n      jumpi(tag_2, lt(calldatasize, 0x04))\n      shr(0xe0, calldataload(0x00))\n      dup1\n      0x89c19ddb\n      gt\n      tag_10\n      jumpi\n      dup1\n      0x89c19ddb\n      eq\n      tag_6\n      jumpi\n      dup1\n      0x919840ad\n      eq\n      tag_7\n      jumpi\n      dup1\n      0xbaa78317\n      eq\n      tag_8\n      jumpi\n      dup1\n      0xd09de08a\n      eq\n      tag_9\n      jumpi\n      jump(tag_2)\n    tag_10:\n      dup1\n      0x0dbe671f\n      eq\n      tag_3\n      jumpi\n      dup1\n      0x2baeceb7\n      eq\n      tag_4\n      jumpi\n      dup1\n      0x63281b1d\n      eq\n      tag_5\n      jumpi\n    tag_2:\n      0x00\n      dup1\n      revert\n        /* \"contracts/lecture_01/increment_decrement.sol\":108:125  int256 public a=5 */\n    tag_3:\n      tag_11\n      tag_12\n      jump\t// in\n    tag_11:\n      mload(0x40)\n      tag_13\n      swap2\n      swap1\n      tag_14\n      jump\t// in\n    tag_13:\n      mload(0x40)\n      dup1\n      swap2\n      sub\n      swap1\n      return\n        /* \"contracts/lecture_01/increment_decrement.sol\":215:288  function decrement() public returns(int256) {... */\n    tag_4:\n      tag_15\n      tag_16\n      jump\t// in\n    tag_15:\n      mload(0x40)\n      tag_17\n      swap2\n      swap1\n      tag_14\n      jump\t// in\n    tag_17:\n      mload(0x40)\n      dup1\n      swap2\n      sub\n      swap1\n      return\n        /* \"contracts/lecture_01/increment_decrement.sol\":296:320  bool public Found = true */\n    tag_5:\n      tag_18\n      tag_19\n      jump\t// in\n    tag_18:\n      mload(0x40)\n      tag_20\n      swap2\n      swap1\n      tag_21\n      jump\t// in\n    tag_20:\n      mload(0x40)\n      dup1\n      swap2\n      sub\n      swap1\n      return\n        /* \"contracts/lecture_01/increment_decrement.sol\":1109:1287  function concat(string memory str1, string memory str2) public returns(string memory){... */\n    tag_6:\n      tag_22\n      0x04\n      dup1\n      calldatasize\n      sub\n      dup2\n      add\n      swap1\n      tag_23\n      swap2\n      swap1\n      tag_24\n      jump\t// in\n    tag_23:\n      tag_25\n      jump\t// in\n    tag_22:\n      mload(0x40)\n      tag_26\n      swap2\n      swap1\n      tag_27\n      jump\t// in\n    tag_26:\n      mload(0x40)\n      dup1\n      swap2\n      sub\n      swap1\n      return\n        /* \"contracts/lecture_01/increment_decrement.sol\":329:519  function check() public returns(bool){... */\n    tag_7:\n      tag_28\n      tag_29\n      jump\t// in\n    tag_28:\n      mload(0x40)\n      tag_30\n      swap2\n      swap1\n      tag_21\n      jump\t// in\n    tag_30:\n      mload(0x40)\n      dup1\n      swap2\n      sub\n      swap1\n      return\n        /* \"contracts/lecture_01/increment_decrement.sol\":531:832  function even_odd(int256 num1, string memory message) public pure returns(string memory){... */\n    tag_8:\n      tag_31\n      0x04\n      dup1\n      calldatasize\n      sub\n      dup2\n      add\n      swap1\n      tag_32\n      swap2\n      swap1\n      tag_33\n      jump\t// in\n    tag_32:\n      tag_34\n      jump\t// in\n    tag_31:\n      mload(0x40)\n      tag_35\n      swap2\n      swap1\n      tag_27\n      jump\t// in\n    tag_35:\n      mload(0x40)\n      dup1\n      swap2\n      sub\n      swap1\n      return\n        /* \"contracts/lecture_01/increment_decrement.sol\":136:209  function increment() public returns(int256) {... */\n    tag_9:\n      tag_36\n      tag_37\n      jump\t// in\n    tag_36:\n      mload(0x40)\n      tag_38\n      swap2\n      swap1\n      tag_14\n      jump\t// in\n    tag_38:\n      mload(0x40)\n      dup1\n      swap2\n      sub\n      swap1\n      return\n        /* \"contracts/lecture_01/increment_decrement.sol\":108:125  int256 public a=5 */\n    tag_12:\n      sload(0x00)\n      dup2\n      jump\t// out\n        /* \"contracts/lecture_01/increment_decrement.sol\":215:288  function decrement() public returns(int256) {... */\n    tag_16:\n        /* \"contracts/lecture_01/increment_decrement.sol\":251:257  int256 */\n      0x00\n        /* \"contracts/lecture_01/increment_decrement.sol\":279:280  a */\n      dup1\n      0x00\n        /* \"contracts/lecture_01/increment_decrement.sol\":277:280  --a */\n      dup2\n      sload\n      tag_40\n      swap1\n      tag_41\n      jump\t// in\n    tag_40:\n      swap2\n      swap1\n      pop\n      dup2\n      swap1\n      sstore\n        /* \"contracts/lecture_01/increment_decrement.sol\":270:280  return --a */\n      swap1\n      pop\n        /* \"contracts/lecture_01/increment_decrement.sol\":215:288  function decrement() public returns(int256) {... */\n      swap1\n      jump\t// out\n        /* \"contracts/lecture_01/increment_decrement.sol\":296:320  bool public Found = true */\n    tag_19:\n      0x01\n      0x00\n      swap1\n      sload\n      swap1\n      0x0100\n      exp\n      swap1\n      div\n      0xff\n      and\n      dup2\n      jump\t// out\n        /* \"contracts/lecture_01/increment_decrement.sol\":1109:1287  function concat(string memory str1, string memory str2) public returns(string memory){... */\n    tag_25:\n        /* \"contracts/lecture_01/increment_decrement.sol\":1180:1193  string memory */\n      0x60\n        /* \"contracts/lecture_01/increment_decrement.sol\":1241:1245  str1 */\n      dup3\n        /* \"contracts/lecture_01/increment_decrement.sol\":1246:1250  str2 */\n      dup3\n        /* \"contracts/lecture_01/increment_decrement.sol\":1224:1251  abi.encodePacked(str1,str2) */\n      add(0x20, mload(0x40))\n      tag_43\n      swap3\n      swap2\n      swap1\n      tag_44\n      jump\t// in\n    tag_43:\n      mload(0x40)\n      0x20\n      dup2\n      dup4\n      sub\n      sub\n      dup2\n      mstore\n      swap1\n      0x40\n      mstore\n        /* \"contracts/lecture_01/increment_decrement.sol\":1205:1214  newString */\n      0x02\n        /* \"contracts/lecture_01/increment_decrement.sol\":1205:1252  newString = string(abi.encodePacked(str1,str2)) */\n      swap1\n      dup2\n      tag_45\n      swap2\n      swap1\n      tag_46\n      jump\t// in\n    tag_45:\n      pop\n        /* \"contracts/lecture_01/increment_decrement.sol\":1270:1279  newString */\n      0x02\n        /* \"contracts/lecture_01/increment_decrement.sol\":1263:1279  return newString */\n      dup1\n      sload\n      tag_47\n      swap1\n      tag_48\n      jump\t// in\n    tag_47:\n      dup1\n      0x1f\n      add\n      0x20\n      dup1\n      swap2\n      div\n      mul\n      0x20\n      add\n      mload(0x40)\n      swap1\n      dup2\n      add\n      0x40\n      mstore\n      dup1\n      swap3\n      swap2\n      swap1\n      dup2\n      dup2\n      mstore\n      0x20\n      add\n      dup3\n      dup1\n      sload\n      tag_49\n      swap1\n      tag_48\n      jump\t// in\n    tag_49:\n      dup1\n      iszero\n      tag_50\n      jumpi\n      dup1\n      0x1f\n      lt\n      tag_51\n      jumpi\n      0x0100\n      dup1\n      dup4\n      sload\n      div\n      mul\n      dup4\n      mstore\n      swap2\n      0x20\n      add\n      swap2\n      jump(tag_50)\n    tag_51:\n      dup3\n      add\n      swap2\n      swap1\n      0x00\n      mstore\n      keccak256(0x00, 0x20)\n      swap1\n    tag_52:\n      dup2\n      sload\n      dup2\n      mstore\n      swap1\n      0x01\n      add\n      swap1\n      0x20\n      add\n      dup1\n      dup4\n      gt\n      tag_52\n      jumpi\n      dup3\n      swap1\n      sub\n      0x1f\n      and\n      dup3\n      add\n      swap2\n    tag_50:\n      pop\n      pop\n      pop\n      pop\n      pop\n      swap1\n      pop\n        /* \"contracts/lecture_01/increment_decrement.sol\":1109:1287  function concat(string memory str1, string memory str2) public returns(string memory){... */\n      swap3\n      swap2\n      pop\n      pop\n      jump\t// out\n        /* \"contracts/lecture_01/increment_decrement.sol\":329:519  function check() public returns(bool){... */\n    tag_29:\n        /* \"contracts/lecture_01/increment_decrement.sol\":361:365  bool */\n      0x00\n        /* \"contracts/lecture_01/increment_decrement.sol\":390:394  true */\n      0x01\n        /* \"contracts/lecture_01/increment_decrement.sol\":381:394  Found == true */\n      iszero\n      iszero\n        /* \"contracts/lecture_01/increment_decrement.sol\":381:386  Found */\n      0x01\n      0x00\n      swap1\n      sload\n      swap1\n      0x0100\n      exp\n      swap1\n      div\n      0xff\n      and\n        /* \"contracts/lecture_01/increment_decrement.sol\":381:394  Found == true */\n      iszero\n      iszero\n      sub\n        /* \"contracts/lecture_01/increment_decrement.sol\":377:489  if (Found == true){... */\n      tag_54\n      jumpi\n        /* \"contracts/lecture_01/increment_decrement.sol\":418:423  false */\n      0x00\n        /* \"contracts/lecture_01/increment_decrement.sol\":410:415  Found */\n      0x01\n      0x00\n        /* \"contracts/lecture_01/increment_decrement.sol\":410:423  Found = false */\n      0x0100\n      exp\n      dup2\n      sload\n      dup2\n      0xff\n      mul\n      not\n      and\n      swap1\n      dup4\n      iszero\n      iszero\n      mul\n      or\n      swap1\n      sstore\n      pop\n        /* \"contracts/lecture_01/increment_decrement.sol\":377:489  if (Found == true){... */\n      jump(tag_55)\n    tag_54:\n        /* \"contracts/lecture_01/increment_decrement.sol\":473:477  true */\n      0x01\n        /* \"contracts/lecture_01/increment_decrement.sol\":465:470  Found */\n      dup1\n      0x00\n        /* \"contracts/lecture_01/increment_decrement.sol\":465:477  Found = true */\n      0x0100\n      exp\n      dup2\n      sload\n      dup2\n      0xff\n      mul\n      not\n      and\n      swap1\n      dup4\n      iszero\n      iszero\n      mul\n      or\n      swap1\n      sstore\n      pop\n        /* \"contracts/lecture_01/increment_decrement.sol\":377:489  if (Found == true){... */\n    tag_55:\n        /* \"contracts/lecture_01/increment_decrement.sol\":506:511  Found */\n      0x01\n      0x00\n      swap1\n      sload\n      swap1\n      0x0100\n      exp\n      swap1\n      div\n      0xff\n      and\n        /* \"contracts/lecture_01/increment_decrement.sol\":499:511  return Found */\n      swap1\n      pop\n        /* \"contracts/lecture_01/increment_decrement.sol\":329:519  function check() public returns(bool){... */\n      swap1\n      jump\t// out\n        /* \"contracts/lecture_01/increment_decrement.sol\":531:832  function even_odd(int256 num1, string memory message) public pure returns(string memory){... */\n    tag_34:\n        /* \"contracts/lecture_01/increment_decrement.sol\":605:618  string memory */\n      0x60\n        /* \"contracts/lecture_01/increment_decrement.sol\":645:646  2 */\n      0x02\n        /* \"contracts/lecture_01/increment_decrement.sol\":638:642  num1 */\n      dup4\n        /* \"contracts/lecture_01/increment_decrement.sol\":638:646  num1 % 2 */\n      tag_57\n      swap2\n      swap1\n      tag_58\n      jump\t// in\n    tag_57:\n        /* \"contracts/lecture_01/increment_decrement.sol\":630:646  num1  = num1 % 2 */\n      swap3\n      pop\n        /* \"contracts/lecture_01/increment_decrement.sol\":669:670  0 */\n      0x00\n        /* \"contracts/lecture_01/increment_decrement.sol\":661:665  num1 */\n      dup4\n        /* \"contracts/lecture_01/increment_decrement.sol\":661:670  num1 == 0 */\n      sub\n        /* \"contracts/lecture_01/increment_decrement.sol\":657:800  if (num1 == 0){... */\n      tag_59\n      jumpi\n        /* \"contracts/lecture_01/increment_decrement.sol\":686:717  message = \"It's an even number\" */\n      mload(0x40)\n      dup1\n      0x40\n      add\n      0x40\n      mstore\n      dup1\n      0x13\n      dup2\n      mstore\n      0x20\n      add\n      0x4974277320616e206576656e206e756d62657200000000000000000000000000\n      dup2\n      mstore\n      pop\n      swap2\n      pop\n        /* \"contracts/lecture_01/increment_decrement.sol\":657:800  if (num1 == 0){... */\n      jump(tag_60)\n    tag_59:\n        /* \"contracts/lecture_01/increment_decrement.sol\":758:788  message = \"It's an odd number\" */\n      mload(0x40)\n      dup1\n      0x40\n      add\n      0x40\n      mstore\n      dup1\n      0x12\n      dup2\n      mstore\n      0x20\n      add\n      0x4974277320616e206f6464206e756d6265720000000000000000000000000000\n      dup2\n      mstore\n      pop\n      swap2\n      pop\n        /* \"contracts/lecture_01/increment_decrement.sol\":657:800  if (num1 == 0){... */\n    tag_60:\n        /* \"contracts/lecture_01/increment_decrement.sol\":817:824  message */\n      dup2\n        /* \"contracts/lecture_01/increment_decrement.sol\":810:824  return message */\n      swap1\n      pop\n        /* \"contracts/lecture_01/increment_decrement.sol\":531:832  function even_odd(int256 num1, string memory message) public pure returns(string memory){... */\n      swap3\n      swap2\n      pop\n      pop\n      jump\t// out\n        /* \"contracts/lecture_01/increment_decrement.sol\":136:209  function increment() public returns(int256) {... */\n    tag_37:\n        /* \"contracts/lecture_01/increment_decrement.sol\":172:178  int256 */\n      0x00\n        /* \"contracts/lecture_01/increment_decrement.sol\":200:201  a */\n      dup1\n      0x00\n        /* \"contracts/lecture_01/increment_decrement.sol\":198:201  ++a */\n      dup2\n      sload\n      tag_62\n      swap1\n      tag_63\n      jump\t// in\n    tag_62:\n      swap2\n      swap1\n      pop\n      dup2\n      swap1\n      sstore\n        /* \"contracts/lecture_01/increment_decrement.sol\":191:201  return ++a */\n      swap1\n      pop\n        /* \"contracts/lecture_01/increment_decrement.sol\":136:209  function increment() public returns(int256) {... */\n      swap1\n      jump\t// out\n        /* \"#utility.yul\":7:83   */\n    tag_64:\n        /* \"#utility.yul\":43:50   */\n      0x00\n        /* \"#utility.yul\":72:77   */\n      dup2\n        /* \"#utility.yul\":61:77   */\n      swap1\n      pop\n        /* \"#utility.yul\":7:83   */\n      swap2\n      swap1\n      pop\n      jump\t// out\n        /* \"#utility.yul\":89:204   */\n    tag_65:\n        /* \"#utility.yul\":174:197   */\n      tag_111\n        /* \"#utility.yul\":191:196   */\n      dup2\n        /* \"#utility.yul\":174:197   */\n      tag_64\n      jump\t// in\n    tag_111:\n        /* \"#utility.yul\":169:172   */\n      dup3\n        /* \"#utility.yul\":162:198   */\n      mstore\n        /* \"#utility.yul\":89:204   */\n      pop\n      pop\n      jump\t// out\n        /* \"#utility.yul\":210:428   */\n    tag_14:\n        /* \"#utility.yul\":301:305   */\n      0x00\n        /* \"#utility.yul\":339:341   */\n      0x20\n        /* \"#utility.yul\":328:337   */\n      dup3\n        /* \"#utility.yul\":324:342   */\n      add\n        /* \"#utility.yul\":316:342   */\n      swap1\n      pop\n        /* \"#utility.yul\":352:421   */\n      tag_113\n        /* \"#utility.yul\":418:419   */\n      0x00\n        /* \"#utility.yul\":407:416   */\n      dup4\n        /* \"#utility.yul\":403:420   */\n      add\n        /* \"#utility.yul\":394:400   */\n      dup5\n        /* \"#utility.yul\":352:421   */\n      tag_65\n      jump\t// in\n    tag_113:\n        /* \"#utility.yul\":210:428   */\n      swap3\n      swap2\n      pop\n      pop\n      jump\t// out\n        /* \"#utility.yul\":434:524   */\n    tag_66:\n        /* \"#utility.yul\":468:475   */\n      0x00\n        /* \"#utility.yul\":511:516   */\n      dup2\n        /* \"#utility.yul\":504:517   */\n      iszero\n        /* \"#utility.yul\":497:518   */\n      iszero\n        /* \"#utility.yul\":486:518   */\n      swap1\n      pop\n        /* \"#utility.yul\":434:524   */\n      swap2\n      swap1\n      pop\n      jump\t// out\n        /* \"#utility.yul\":530:639   */\n    tag_67:\n        /* \"#utility.yul\":611:632   */\n      tag_116\n        /* \"#utility.yul\":626:631   */\n      dup2\n        /* \"#utility.yul\":611:632   */\n      tag_66\n      jump\t// in\n    tag_116:\n        /* \"#utility.yul\":606:609   */\n      dup3\n        /* \"#utility.yul\":599:633   */\n      mstore\n        /* \"#utility.yul\":530:639   */\n      pop\n      pop\n      jump\t// out\n        /* \"#utility.yul\":645:855   */\n    tag_21:\n        /* \"#utility.yul\":732:736   */\n      0x00\n        /* \"#utility.yul\":770:772   */\n      0x20\n        /* \"#utility.yul\":759:768   */\n      dup3\n        /* \"#utility.yul\":755:773   */\n      add\n        /* \"#utility.yul\":747:773   */\n      swap1\n      pop\n        /* \"#utility.yul\":783:848   */\n      tag_118\n        /* \"#utility.yul\":845:846   */\n      0x00\n        /* \"#utility.yul\":834:843   */\n      dup4\n        /* \"#utility.yul\":830:847   */\n      add\n        /* \"#utility.yul\":821:827   */\n      dup5\n        /* \"#utility.yul\":783:848   */\n      tag_67\n      jump\t// in\n    tag_118:\n        /* \"#utility.yul\":645:855   */\n      swap3\n      swap2\n      pop\n      pop\n      jump\t// out\n        /* \"#utility.yul\":861:936   */\n    tag_68:\n        /* \"#utility.yul\":894:900   */\n      0x00\n        /* \"#utility.yul\":927:929   */\n      0x40\n        /* \"#utility.yul\":921:930   */\n      mload\n        /* \"#utility.yul\":911:930   */\n      swap1\n      pop\n        /* \"#utility.yul\":861:936   */\n      swap1\n      jump\t// out\n        /* \"#utility.yul\":942:1059   */\n    tag_69:\n        /* \"#utility.yul\":1051:1052   */\n      0x00\n        /* \"#utility.yul\":1048:1049   */\n      dup1\n        /* \"#utility.yul\":1041:1053   */\n      revert\n        /* \"#utility.yul\":1065:1182   */\n    tag_70:\n        /* \"#utility.yul\":1174:1175   */\n      0x00\n        /* \"#utility.yul\":1171:1172   */\n      dup1\n        /* \"#utility.yul\":1164:1176   */\n      revert\n        /* \"#utility.yul\":1188:1305   */\n    tag_71:\n        /* \"#utility.yul\":1297:1298   */\n      0x00\n        /* \"#utility.yul\":1294:1295   */\n      dup1\n        /* \"#utility.yul\":1287:1299   */\n      revert\n        /* \"#utility.yul\":1311:1428   */\n    tag_72:\n        /* \"#utility.yul\":1420:1421   */\n      0x00\n        /* \"#utility.yul\":1417:1418   */\n      dup1\n        /* \"#utility.yul\":1410:1422   */\n      revert\n        /* \"#utility.yul\":1434:1536   */\n    tag_73:\n        /* \"#utility.yul\":1475:1481   */\n      0x00\n        /* \"#utility.yul\":1526:1528   */\n      0x1f\n        /* \"#utility.yul\":1522:1529   */\n      not\n        /* \"#utility.yul\":1517:1519   */\n      0x1f\n        /* \"#utility.yul\":1510:1515   */\n      dup4\n        /* \"#utility.yul\":1506:1520   */\n      add\n        /* \"#utility.yul\":1502:1530   */\n      and\n        /* \"#utility.yul\":1492:1530   */\n      swap1\n      pop\n        /* \"#utility.yul\":1434:1536   */\n      swap2\n      swap1\n      pop\n      jump\t// out\n        /* \"#utility.yul\":1542:1722   */\n    tag_74:\n        /* \"#utility.yul\":1590:1667   */\n      0x4e487b7100000000000000000000000000000000000000000000000000000000\n        /* \"#utility.yul\":1587:1588   */\n      0x00\n        /* \"#utility.yul\":1580:1668   */\n      mstore\n        /* \"#utility.yul\":1687:1691   */\n      0x41\n        /* \"#utility.yul\":1684:1685   */\n      0x04\n        /* \"#utility.yul\":1677:1692   */\n      mstore\n        /* \"#utility.yul\":1711:1715   */\n      0x24\n        /* \"#utility.yul\":1708:1709   */\n      0x00\n        /* \"#utility.yul\":1701:1716   */\n      revert\n        /* \"#utility.yul\":1728:2009   */\n    tag_75:\n        /* \"#utility.yul\":1811:1838   */\n      tag_127\n        /* \"#utility.yul\":1833:1837   */\n      dup3\n        /* \"#utility.yul\":1811:1838   */\n      tag_73\n      jump\t// in\n    tag_127:\n        /* \"#utility.yul\":1803:1809   */\n      dup2\n        /* \"#utility.yul\":1799:1839   */\n      add\n        /* \"#utility.yul\":1941:1947   */\n      dup2\n        /* \"#utility.yul\":1929:1939   */\n      dup2\n        /* \"#utility.yul\":1926:1948   */\n      lt\n        /* \"#utility.yul\":1905:1923   */\n      0xffffffffffffffff\n        /* \"#utility.yul\":1893:1903   */\n      dup3\n        /* \"#utility.yul\":1890:1924   */\n      gt\n        /* \"#utility.yul\":1887:1949   */\n      or\n        /* \"#utility.yul\":1884:1972   */\n      iszero\n      tag_128\n      jumpi\n        /* \"#utility.yul\":1952:1970   */\n      tag_129\n      tag_74\n      jump\t// in\n    tag_129:\n        /* \"#utility.yul\":1884:1972   */\n    tag_128:\n        /* \"#utility.yul\":1992:2002   */\n      dup1\n        /* \"#utility.yul\":1988:1990   */\n      0x40\n        /* \"#utility.yul\":1981:2003   */\n      mstore\n        /* \"#utility.yul\":1771:2009   */\n      pop\n        /* \"#utility.yul\":1728:2009   */\n      pop\n      pop\n      jump\t// out\n        /* \"#utility.yul\":2015:2144   */\n    tag_76:\n        /* \"#utility.yul\":2049:2055   */\n      0x00\n        /* \"#utility.yul\":2076:2096   */\n      tag_131\n      tag_68\n      jump\t// in\n    tag_131:\n        /* \"#utility.yul\":2066:2096   */\n      swap1\n      pop\n        /* \"#utility.yul\":2105:2138   */\n      tag_132\n        /* \"#utility.yul\":2133:2137   */\n      dup3\n        /* \"#utility.yul\":2125:2131   */\n      dup3\n        /* \"#utility.yul\":2105:2138   */\n      tag_75\n      jump\t// in\n    tag_132:\n        /* \"#utility.yul\":2015:2144   */\n      swap2\n      swap1\n      pop\n      jump\t// out\n        /* \"#utility.yul\":2150:2458   */\n    tag_77:\n        /* \"#utility.yul\":2212:2216   */\n      0x00\n        /* \"#utility.yul\":2302:2320   */\n      0xffffffffffffffff\n        /* \"#utility.yul\":2294:2300   */\n      dup3\n        /* \"#utility.yul\":2291:2321   */\n      gt\n        /* \"#utility.yul\":2288:2344   */\n      iszero\n      tag_134\n      jumpi\n        /* \"#utility.yul\":2324:2342   */\n      tag_135\n      tag_74\n      jump\t// in\n    tag_135:\n        /* \"#utility.yul\":2288:2344   */\n    tag_134:\n        /* \"#utility.yul\":2362:2391   */\n      tag_136\n        /* \"#utility.yul\":2384:2390   */\n      dup3\n        /* \"#utility.yul\":2362:2391   */\n      tag_73\n      jump\t// in\n    tag_136:\n        /* \"#utility.yul\":2354:2391   */\n      swap1\n      pop\n        /* \"#utility.yul\":2446:2450   */\n      0x20\n        /* \"#utility.yul\":2440:2444   */\n      dup2\n        /* \"#utility.yul\":2436:2451   */\n      add\n        /* \"#utility.yul\":2428:2451   */\n      swap1\n      pop\n        /* \"#utility.yul\":2150:2458   */\n      swap2\n      swap1\n      pop\n      jump\t// out\n        /* \"#utility.yul\":2464:2612   */\n    tag_78:\n        /* \"#utility.yul\":2562:2568   */\n      dup3\n        /* \"#utility.yul\":2557:2560   */\n      dup2\n        /* \"#utility.yul\":2552:2555   */\n      dup4\n        /* \"#utility.yul\":2539:2569   */\n      calldatacopy\n        /* \"#utility.yul\":2603:2604   */\n      0x00\n        /* \"#utility.yul\":2594:2600   */\n      dup4\n        /* \"#utility.yul\":2589:2592   */\n      dup4\n        /* \"#utility.yul\":2585:2601   */\n      add\n        /* \"#utility.yul\":2578:2605   */\n      mstore\n        /* \"#utility.yul\":2464:2612   */\n      pop\n      pop\n      pop\n      jump\t// out\n        /* \"#utility.yul\":2618:3043   */\n    tag_79:\n        /* \"#utility.yul\":2696:2701   */\n      0x00\n        /* \"#utility.yul\":2721:2787   */\n      tag_139\n        /* \"#utility.yul\":2737:2786   */\n      tag_140\n        /* \"#utility.yul\":2779:2785   */\n      dup5\n        /* \"#utility.yul\":2737:2786   */\n      tag_77\n      jump\t// in\n    tag_140:\n        /* \"#utility.yul\":2721:2787   */\n      tag_76\n      jump\t// in\n    tag_139:\n        /* \"#utility.yul\":2712:2787   */\n      swap1\n      pop\n        /* \"#utility.yul\":2810:2816   */\n      dup3\n        /* \"#utility.yul\":2803:2808   */\n      dup2\n        /* \"#utility.yul\":2796:2817   */\n      mstore\n        /* \"#utility.yul\":2848:2852   */\n      0x20\n        /* \"#utility.yul\":2841:2846   */\n      dup2\n        /* \"#utility.yul\":2837:2853   */\n      add\n        /* \"#utility.yul\":2886:2889   */\n      dup5\n        /* \"#utility.yul\":2877:2883   */\n      dup5\n        /* \"#utility.yul\":2872:2875   */\n      dup5\n        /* \"#utility.yul\":2868:2884   */\n      add\n        /* \"#utility.yul\":2865:2890   */\n      gt\n        /* \"#utility.yul\":2862:2974   */\n      iszero\n      tag_141\n      jumpi\n        /* \"#utility.yul\":2893:2972   */\n      tag_142\n      tag_72\n      jump\t// in\n    tag_142:\n        /* \"#utility.yul\":2862:2974   */\n    tag_141:\n        /* \"#utility.yul\":2983:3037   */\n      tag_143\n        /* \"#utility.yul\":3030:3036   */\n      dup5\n        /* \"#utility.yul\":3025:3028   */\n      dup3\n        /* \"#utility.yul\":3020:3023   */\n      dup6\n        /* \"#utility.yul\":2983:3037   */\n      tag_78\n      jump\t// in\n    tag_143:\n        /* \"#utility.yul\":2702:3043   */\n      pop\n        /* \"#utility.yul\":2618:3043   */\n      swap4\n      swap3\n      pop\n      pop\n      pop\n      jump\t// out\n        /* \"#utility.yul\":3063:3403   */\n    tag_80:\n        /* \"#utility.yul\":3119:3124   */\n      0x00\n        /* \"#utility.yul\":3168:3171   */\n      dup3\n        /* \"#utility.yul\":3161:3165   */\n      0x1f\n        /* \"#utility.yul\":3153:3159   */\n      dup4\n        /* \"#utility.yul\":3149:3166   */\n      add\n        /* \"#utility.yul\":3145:3172   */\n      slt\n        /* \"#utility.yul\":3135:3257   */\n      tag_145\n      jumpi\n        /* \"#utility.yul\":3176:3255   */\n      tag_146\n      tag_71\n      jump\t// in\n    tag_146:\n        /* \"#utility.yul\":3135:3257   */\n    tag_145:\n        /* \"#utility.yul\":3293:3299   */\n      dup2\n        /* \"#utility.yul\":3280:3300   */\n      calldataload\n        /* \"#utility.yul\":3318:3397   */\n      tag_147\n        /* \"#utility.yul\":3393:3396   */\n      dup5\n        /* \"#utility.yul\":3385:3391   */\n      dup3\n        /* \"#utility.yul\":3378:3382   */\n      0x20\n        /* \"#utility.yul\":3370:3376   */\n      dup7\n        /* \"#utility.yul\":3366:3383   */\n      add\n        /* \"#utility.yul\":3318:3397   */\n      tag_79\n      jump\t// in\n    tag_147:\n        /* \"#utility.yul\":3309:3397   */\n      swap2\n      pop\n        /* \"#utility.yul\":3125:3403   */\n      pop\n        /* \"#utility.yul\":3063:3403   */\n      swap3\n      swap2\n      pop\n      pop\n      jump\t// out\n        /* \"#utility.yul\":3409:4243   */\n    tag_24:\n        /* \"#utility.yul\":3497:3503   */\n      0x00\n        /* \"#utility.yul\":3505:3511   */\n      dup1\n        /* \"#utility.yul\":3554:3556   */\n      0x40\n        /* \"#utility.yul\":3542:3551   */\n      dup4\n        /* \"#utility.yul\":3533:3540   */\n      dup6\n        /* \"#utility.yul\":3529:3552   */\n      sub\n        /* \"#utility.yul\":3525:3557   */\n      slt\n        /* \"#utility.yul\":3522:3641   */\n      iszero\n      tag_149\n      jumpi\n        /* \"#utility.yul\":3560:3639   */\n      tag_150\n      tag_69\n      jump\t// in\n    tag_150:\n        /* \"#utility.yul\":3522:3641   */\n    tag_149:\n        /* \"#utility.yul\":3708:3709   */\n      0x00\n        /* \"#utility.yul\":3697:3706   */\n      dup4\n        /* \"#utility.yul\":3693:3710   */\n      add\n        /* \"#utility.yul\":3680:3711   */\n      calldataload\n        /* \"#utility.yul\":3738:3756   */\n      0xffffffffffffffff\n        /* \"#utility.yul\":3730:3736   */\n      dup2\n        /* \"#utility.yul\":3727:3757   */\n      gt\n        /* \"#utility.yul\":3724:3841   */\n      iszero\n      tag_151\n      jumpi\n        /* \"#utility.yul\":3760:3839   */\n      tag_152\n      tag_70\n      jump\t// in\n    tag_152:\n        /* \"#utility.yul\":3724:3841   */\n    tag_151:\n        /* \"#utility.yul\":3865:3928   */\n      tag_153\n        /* \"#utility.yul\":3920:3927   */\n      dup6\n        /* \"#utility.yul\":3911:3917   */\n      dup3\n        /* \"#utility.yul\":3900:3909   */\n      dup7\n        /* \"#utility.yul\":3896:3918   */\n      add\n        /* \"#utility.yul\":3865:3928   */\n      tag_80\n      jump\t// in\n    tag_153:\n        /* \"#utility.yul\":3855:3928   */\n      swap3\n      pop\n        /* \"#utility.yul\":3651:3938   */\n      pop\n        /* \"#utility.yul\":4005:4007   */\n      0x20\n        /* \"#utility.yul\":3994:4003   */\n      dup4\n        /* \"#utility.yul\":3990:4008   */\n      add\n        /* \"#utility.yul\":3977:4009   */\n      calldataload\n        /* \"#utility.yul\":4036:4054   */\n      0xffffffffffffffff\n        /* \"#utility.yul\":4028:4034   */\n      dup2\n        /* \"#utility.yul\":4025:4055   */\n      gt\n        /* \"#utility.yul\":4022:4139   */\n      iszero\n      tag_154\n      jumpi\n        /* \"#utility.yul\":4058:4137   */\n      tag_155\n      tag_70\n      jump\t// in\n    tag_155:\n        /* \"#utility.yul\":4022:4139   */\n    tag_154:\n        /* \"#utility.yul\":4163:4226   */\n      tag_156\n        /* \"#utility.yul\":4218:4225   */\n      dup6\n        /* \"#utility.yul\":4209:4215   */\n      dup3\n        /* \"#utility.yul\":4198:4207   */\n      dup7\n        /* \"#utility.yul\":4194:4216   */\n      add\n        /* \"#utility.yul\":4163:4226   */\n      tag_80\n      jump\t// in\n    tag_156:\n        /* \"#utility.yul\":4153:4226   */\n      swap2\n      pop\n        /* \"#utility.yul\":3948:4236   */\n      pop\n        /* \"#utility.yul\":3409:4243   */\n      swap3\n      pop\n      swap3\n      swap1\n      pop\n      jump\t// out\n        /* \"#utility.yul\":4249:4348   */\n    tag_81:\n        /* \"#utility.yul\":4301:4307   */\n      0x00\n        /* \"#utility.yul\":4335:4340   */\n      dup2\n        /* \"#utility.yul\":4329:4341   */\n      mload\n        /* \"#utility.yul\":4319:4341   */\n      swap1\n      pop\n        /* \"#utility.yul\":4249:4348   */\n      swap2\n      swap1\n      pop\n      jump\t// out\n        /* \"#utility.yul\":4354:4523   */\n    tag_82:\n        /* \"#utility.yul\":4438:4449   */\n      0x00\n        /* \"#utility.yul\":4472:4478   */\n      dup3\n        /* \"#utility.yul\":4467:4470   */\n      dup3\n        /* \"#utility.yul\":4460:4479   */\n      mstore\n        /* \"#utility.yul\":4512:4516   */\n      0x20\n        /* \"#utility.yul\":4507:4510   */\n      dup3\n        /* \"#utility.yul\":4503:4517   */\n      add\n        /* \"#utility.yul\":4488:4517   */\n      swap1\n      pop\n        /* \"#utility.yul\":4354:4523   */\n      swap3\n      swap2\n      pop\n      pop\n      jump\t// out\n        /* \"#utility.yul\":4529:4668   */\n    tag_83:\n        /* \"#utility.yul\":4618:4624   */\n      dup3\n        /* \"#utility.yul\":4613:4616   */\n      dup2\n        /* \"#utility.yul\":4608:4611   */\n      dup4\n        /* \"#utility.yul\":4602:4625   */\n      mcopy\n        /* \"#utility.yul\":4659:4660   */\n      0x00\n        /* \"#utility.yul\":4650:4656   */\n      dup4\n        /* \"#utility.yul\":4645:4648   */\n      dup4\n        /* \"#utility.yul\":4641:4657   */\n      add\n        /* \"#utility.yul\":4634:4661   */\n      mstore\n        /* \"#utility.yul\":4529:4668   */\n      pop\n      pop\n      pop\n      jump\t// out\n        /* \"#utility.yul\":4674:5051   */\n    tag_84:\n        /* \"#utility.yul\":4762:4765   */\n      0x00\n        /* \"#utility.yul\":4790:4829   */\n      tag_161\n        /* \"#utility.yul\":4823:4828   */\n      dup3\n        /* \"#utility.yul\":4790:4829   */\n      tag_81\n      jump\t// in\n    tag_161:\n        /* \"#utility.yul\":4845:4916   */\n      tag_162\n        /* \"#utility.yul\":4909:4915   */\n      dup2\n        /* \"#utility.yul\":4904:4907   */\n      dup6\n        /* \"#utility.yul\":4845:4916   */\n      tag_82\n      jump\t// in\n    tag_162:\n        /* \"#utility.yul\":4838:4916   */\n      swap4\n      pop\n        /* \"#utility.yul\":4925:4990   */\n      tag_163\n        /* \"#utility.yul\":4983:4989   */\n      dup2\n        /* \"#utility.yul\":4978:4981   */\n      dup6\n        /* \"#utility.yul\":4971:4975   */\n      0x20\n        /* \"#utility.yul\":4964:4969   */\n      dup7\n        /* \"#utility.yul\":4960:4976   */\n      add\n        /* \"#utility.yul\":4925:4990   */\n      tag_83\n      jump\t// in\n    tag_163:\n        /* \"#utility.yul\":5015:5044   */\n      tag_164\n        /* \"#utility.yul\":5037:5043   */\n      dup2\n        /* \"#utility.yul\":5015:5044   */\n      tag_73\n      jump\t// in\n    tag_164:\n        /* \"#utility.yul\":5010:5013   */\n      dup5\n        /* \"#utility.yul\":5006:5045   */\n      add\n        /* \"#utility.yul\":4999:5045   */\n      swap2\n      pop\n        /* \"#utility.yul\":4766:5051   */\n      pop\n        /* \"#utility.yul\":4674:5051   */\n      swap3\n      swap2\n      pop\n      pop\n      jump\t// out\n        /* \"#utility.yul\":5057:5370   */\n    tag_27:\n        /* \"#utility.yul\":5170:5174   */\n      0x00\n        /* \"#utility.yul\":5208:5210   */\n      0x20\n        /* \"#utility.yul\":5197:5206   */\n      dup3\n        /* \"#utility.yul\":5193:5211   */\n      add\n        /* \"#utility.yul\":5185:5211   */\n      swap1\n      pop\n        /* \"#utility.yul\":5257:5266   */\n      dup2\n        /* \"#utility.yul\":5251:5255   */\n      dup2\n        /* \"#utility.yul\":5247:5267   */\n      sub\n        /* \"#utility.yul\":5243:5244   */\n      0x00\n        /* \"#utility.yul\":5232:5241   */\n      dup4\n        /* \"#utility.yul\":5228:5245   */\n      add\n        /* \"#utility.yul\":5221:5268   */\n      mstore\n        /* \"#utility.yul\":5285:5363   */\n      tag_166\n        /* \"#utility.yul\":5358:5362   */\n      dup2\n        /* \"#utility.yul\":5349:5355   */\n      dup5\n        /* \"#utility.yul\":5285:5363   */\n      tag_84\n      jump\t// in\n    tag_166:\n        /* \"#utility.yul\":5277:5363   */\n      swap1\n      pop\n        /* \"#utility.yul\":5057:5370   */\n      swap3\n      swap2\n      pop\n      pop\n      jump\t// out\n        /* \"#utility.yul\":5376:5496   */\n    tag_85:\n        /* \"#utility.yul\":5448:5471   */\n      tag_168\n        /* \"#utility.yul\":5465:5470   */\n      dup2\n        /* \"#utility.yul\":5448:5471   */\n      tag_64\n      jump\t// in\n    tag_168:\n        /* \"#utility.yul\":5441:5446   */\n      dup2\n        /* \"#utility.yul\":5438:5472   */\n      eq\n        /* \"#utility.yul\":5428:5490   */\n      tag_169\n      jumpi\n        /* \"#utility.yul\":5486:5487   */\n      0x00\n        /* \"#utility.yul\":5483:5484   */\n      dup1\n        /* \"#utility.yul\":5476:5488   */\n      revert\n        /* \"#utility.yul\":5428:5490   */\n    tag_169:\n        /* \"#utility.yul\":5376:5496   */\n      pop\n      jump\t// out\n        /* \"#utility.yul\":5502:5639   */\n    tag_86:\n        /* \"#utility.yul\":5547:5552   */\n      0x00\n        /* \"#utility.yul\":5585:5591   */\n      dup2\n        /* \"#utility.yul\":5572:5592   */\n      calldataload\n        /* \"#utility.yul\":5563:5592   */\n      swap1\n      pop\n        /* \"#utility.yul\":5601:5633   */\n      tag_171\n        /* \"#utility.yul\":5627:5632   */\n      dup2\n        /* \"#utility.yul\":5601:5633   */\n      tag_85\n      jump\t// in\n    tag_171:\n        /* \"#utility.yul\":5502:5639   */\n      swap3\n      swap2\n      pop\n      pop\n      jump\t// out\n        /* \"#utility.yul\":5645:6297   */\n    tag_33:\n        /* \"#utility.yul\":5722:5728   */\n      0x00\n        /* \"#utility.yul\":5730:5736   */\n      dup1\n        /* \"#utility.yul\":5779:5781   */\n      0x40\n        /* \"#utility.yul\":5767:5776   */\n      dup4\n        /* \"#utility.yul\":5758:5765   */\n      dup6\n        /* \"#utility.yul\":5754:5777   */\n      sub\n        /* \"#utility.yul\":5750:5782   */\n      slt\n        /* \"#utility.yul\":5747:5866   */\n      iszero\n      tag_173\n      jumpi\n        /* \"#utility.yul\":5785:5864   */\n      tag_174\n      tag_69\n      jump\t// in\n    tag_174:\n        /* \"#utility.yul\":5747:5866   */\n    tag_173:\n        /* \"#utility.yul\":5905:5906   */\n      0x00\n        /* \"#utility.yul\":5930:5982   */\n      tag_175\n        /* \"#utility.yul\":5974:5981   */\n      dup6\n        /* \"#utility.yul\":5965:5971   */\n      dup3\n        /* \"#utility.yul\":5954:5963   */\n      dup7\n        /* \"#utility.yul\":5950:5972   */\n      add\n        /* \"#utility.yul\":5930:5982   */\n      tag_86\n      jump\t// in\n    tag_175:\n        /* \"#utility.yul\":5920:5982   */\n      swap3\n      pop\n        /* \"#utility.yul\":5876:5992   */\n      pop\n        /* \"#utility.yul\":6059:6061   */\n      0x20\n        /* \"#utility.yul\":6048:6057   */\n      dup4\n        /* \"#utility.yul\":6044:6062   */\n      add\n        /* \"#utility.yul\":6031:6063   */\n      calldataload\n        /* \"#utility.yul\":6090:6108   */\n      0xffffffffffffffff\n        /* \"#utility.yul\":6082:6088   */\n      dup2\n        /* \"#utility.yul\":6079:6109   */\n      gt\n        /* \"#utility.yul\":6076:6193   */\n      iszero\n      tag_176\n      jumpi\n        /* \"#utility.yul\":6112:6191   */\n      tag_177\n      tag_70\n      jump\t// in\n    tag_177:\n        /* \"#utility.yul\":6076:6193   */\n    tag_176:\n        /* \"#utility.yul\":6217:6280   */\n      tag_178\n        /* \"#utility.yul\":6272:6279   */\n      dup6\n        /* \"#utility.yul\":6263:6269   */\n      dup3\n        /* \"#utility.yul\":6252:6261   */\n      dup7\n        /* \"#utility.yul\":6248:6270   */\n      add\n        /* \"#utility.yul\":6217:6280   */\n      tag_80\n      jump\t// in\n    tag_178:\n        /* \"#utility.yul\":6207:6280   */\n      swap2\n      pop\n        /* \"#utility.yul\":6002:6290   */\n      pop\n        /* \"#utility.yul\":5645:6297   */\n      swap3\n      pop\n      swap3\n      swap1\n      pop\n      jump\t// out\n        /* \"#utility.yul\":6303:6483   */\n    tag_87:\n        /* \"#utility.yul\":6351:6428   */\n      0x4e487b7100000000000000000000000000000000000000000000000000000000\n        /* \"#utility.yul\":6348:6349   */\n      0x00\n        /* \"#utility.yul\":6341:6429   */\n      mstore\n        /* \"#utility.yul\":6448:6452   */\n      0x11\n        /* \"#utility.yul\":6445:6446   */\n      0x04\n        /* \"#utility.yul\":6438:6453   */\n      mstore\n        /* \"#utility.yul\":6472:6476   */\n      0x24\n        /* \"#utility.yul\":6469:6470   */\n      0x00\n        /* \"#utility.yul\":6462:6477   */\n      revert\n        /* \"#utility.yul\":6489:6720   */\n    tag_41:\n        /* \"#utility.yul\":6527:6530   */\n      0x00\n        /* \"#utility.yul\":6550:6573   */\n      tag_181\n        /* \"#utility.yul\":6567:6572   */\n      dup3\n        /* \"#utility.yul\":6550:6573   */\n      tag_64\n      jump\t// in\n    tag_181:\n        /* \"#utility.yul\":6541:6573   */\n      swap2\n      pop\n        /* \"#utility.yul\":6595:6661   */\n      0x8000000000000000000000000000000000000000000000000000000000000000\n        /* \"#utility.yul\":6588:6593   */\n      dup3\n        /* \"#utility.yul\":6585:6662   */\n      sub\n        /* \"#utility.yul\":6582:6685   */\n      tag_182\n      jumpi\n        /* \"#utility.yul\":6665:6683   */\n      tag_183\n      tag_87\n      jump\t// in\n    tag_183:\n        /* \"#utility.yul\":6582:6685   */\n    tag_182:\n        /* \"#utility.yul\":6712:6713   */\n      0x01\n        /* \"#utility.yul\":6705:6710   */\n      dup3\n        /* \"#utility.yul\":6701:6714   */\n      sub\n        /* \"#utility.yul\":6694:6714   */\n      swap1\n      pop\n        /* \"#utility.yul\":6489:6720   */\n      swap2\n      swap1\n      pop\n      jump\t// out\n        /* \"#utility.yul\":6726:6874   */\n    tag_88:\n        /* \"#utility.yul\":6828:6839   */\n      0x00\n        /* \"#utility.yul\":6865:6868   */\n      dup2\n        /* \"#utility.yul\":6850:6868   */\n      swap1\n      pop\n        /* \"#utility.yul\":6726:6874   */\n      swap3\n      swap2\n      pop\n      pop\n      jump\t// out\n        /* \"#utility.yul\":6880:7270   */\n    tag_89:\n        /* \"#utility.yul\":6986:6989   */\n      0x00\n        /* \"#utility.yul\":7014:7053   */\n      tag_186\n        /* \"#utility.yul\":7047:7052   */\n      dup3\n        /* \"#utility.yul\":7014:7053   */\n      tag_81\n      jump\t// in\n    tag_186:\n        /* \"#utility.yul\":7069:7158   */\n      tag_187\n        /* \"#utility.yul\":7151:7157   */\n      dup2\n        /* \"#utility.yul\":7146:7149   */\n      dup6\n        /* \"#utility.yul\":7069:7158   */\n      tag_88\n      jump\t// in\n    tag_187:\n        /* \"#utility.yul\":7062:7158   */\n      swap4\n      pop\n        /* \"#utility.yul\":7167:7232   */\n      tag_188\n        /* \"#utility.yul\":7225:7231   */\n      dup2\n        /* \"#utility.yul\":7220:7223   */\n      dup6\n        /* \"#utility.yul\":7213:7217   */\n      0x20\n        /* \"#utility.yul\":7206:7211   */\n      dup7\n        /* \"#utility.yul\":7202:7218   */\n      add\n        /* \"#utility.yul\":7167:7232   */\n      tag_83\n      jump\t// in\n    tag_188:\n        /* \"#utility.yul\":7257:7263   */\n      dup1\n        /* \"#utility.yul\":7252:7255   */\n      dup5\n        /* \"#utility.yul\":7248:7264   */\n      add\n        /* \"#utility.yul\":7241:7264   */\n      swap2\n      pop\n        /* \"#utility.yul\":6990:7270   */\n      pop\n        /* \"#utility.yul\":6880:7270   */\n      swap3\n      swap2\n      pop\n      pop\n      jump\t// out\n        /* \"#utility.yul\":7276:7711   */\n    tag_44:\n        /* \"#utility.yul\":7456:7459   */\n      0x00\n        /* \"#utility.yul\":7478:7573   */\n      tag_190\n        /* \"#utility.yul\":7569:7572   */\n      dup3\n        /* \"#utility.yul\":7560:7566   */\n      dup6\n        /* \"#utility.yul\":7478:7573   */\n      tag_89\n      jump\t// in\n    tag_190:\n        /* \"#utility.yul\":7471:7573   */\n      swap2\n      pop\n        /* \"#utility.yul\":7590:7685   */\n      tag_191\n        /* \"#utility.yul\":7681:7684   */\n      dup3\n        /* \"#utility.yul\":7672:7678   */\n      dup5\n        /* \"#utility.yul\":7590:7685   */\n      tag_89\n      jump\t// in\n    tag_191:\n        /* \"#utility.yul\":7583:7685   */\n      swap2\n      pop\n        /* \"#utility.yul\":7702:7705   */\n      dup2\n        /* \"#utility.yul\":7695:7705   */\n      swap1\n      pop\n        /* \"#utility.yul\":7276:7711   */\n      swap4\n      swap3\n      pop\n      pop\n      pop\n      jump\t// out\n        /* \"#utility.yul\":7717:7897   */\n    tag_90:\n        /* \"#utility.yul\":7765:7842   */\n      0x4e487b7100000000000000000000000000000000000000000000000000000000\n        /* \"#utility.yul\":7762:7763   */\n      0x00\n        /* \"#utility.yul\":7755:7843   */\n      mstore\n        /* \"#utility.yul\":7862:7866   */\n      0x22\n        /* \"#utility.yul\":7859:7860   */\n      0x04\n        /* \"#utility.yul\":7852:7867   */\n      mstore\n        /* \"#utility.yul\":7886:7890   */\n      0x24\n        /* \"#utility.yul\":7883:7884   */\n      0x00\n        /* \"#utility.yul\":7876:7891   */\n      revert\n        /* \"#utility.yul\":7903:8223   */\n    tag_48:\n        /* \"#utility.yul\":7947:7953   */\n      0x00\n        /* \"#utility.yul\":7984:7985   */\n      0x02\n        /* \"#utility.yul\":7978:7982   */\n      dup3\n        /* \"#utility.yul\":7974:7986   */\n      div\n        /* \"#utility.yul\":7964:7986   */\n      swap1\n      pop\n        /* \"#utility.yul\":8031:8032   */\n      0x01\n        /* \"#utility.yul\":8025:8029   */\n      dup3\n        /* \"#utility.yul\":8021:8033   */\n      and\n        /* \"#utility.yul\":8052:8070   */\n      dup1\n        /* \"#utility.yul\":8042:8123   */\n      tag_194\n      jumpi\n        /* \"#utility.yul\":8108:8112   */\n      0x7f\n        /* \"#utility.yul\":8100:8106   */\n      dup3\n        /* \"#utility.yul\":8096:8113   */\n      and\n        /* \"#utility.yul\":8086:8113   */\n      swap2\n      pop\n        /* \"#utility.yul\":8042:8123   */\n    tag_194:\n        /* \"#utility.yul\":8170:8172   */\n      0x20\n        /* \"#utility.yul\":8162:8168   */\n      dup3\n        /* \"#utility.yul\":8159:8173   */\n      lt\n        /* \"#utility.yul\":8139:8157   */\n      dup2\n        /* \"#utility.yul\":8136:8174   */\n      sub\n        /* \"#utility.yul\":8133:8217   */\n      tag_195\n      jumpi\n        /* \"#utility.yul\":8189:8207   */\n      tag_196\n      tag_90\n      jump\t// in\n    tag_196:\n        /* \"#utility.yul\":8133:8217   */\n    tag_195:\n        /* \"#utility.yul\":7954:8223   */\n      pop\n        /* \"#utility.yul\":7903:8223   */\n      swap2\n      swap1\n      pop\n      jump\t// out\n        /* \"#utility.yul\":8229:8370   */\n    tag_91:\n        /* \"#utility.yul\":8278:8282   */\n      0x00\n        /* \"#utility.yul\":8301:8304   */\n      dup2\n        /* \"#utility.yul\":8293:8304   */\n      swap1\n      pop\n        /* \"#utility.yul\":8324:8327   */\n      dup2\n        /* \"#utility.yul\":8321:8322   */\n      0x00\n        /* \"#utility.yul\":8314:8328   */\n      mstore\n        /* \"#utility.yul\":8358:8362   */\n      0x20\n        /* \"#utility.yul\":8355:8356   */\n      0x00\n        /* \"#utility.yul\":8345:8363   */\n      keccak256\n        /* \"#utility.yul\":8337:8363   */\n      swap1\n      pop\n        /* \"#utility.yul\":8229:8370   */\n      swap2\n      swap1\n      pop\n      jump\t// out\n        /* \"#utility.yul\":8376:8469   */\n    tag_92:\n        /* \"#utility.yul\":8413:8419   */\n      0x00\n        /* \"#utility.yul\":8460:8462   */\n      0x20\n        /* \"#utility.yul\":8455:8457   */\n      0x1f\n        /* \"#utility.yul\":8448:8453   */\n      dup4\n        /* \"#utility.yul\":8444:8458   */\n      add\n        /* \"#utility.yul\":8440:8463   */\n      div\n        /* \"#utility.yul\":8430:8463   */\n      swap1\n      pop\n        /* \"#utility.yul\":8376:8469   */\n      swap2\n      swap1\n      pop\n      jump\t// out\n        /* \"#utility.yul\":8475:8582   */\n    tag_93:\n        /* \"#utility.yul\":8519:8527   */\n      0x00\n        /* \"#utility.yul\":8569:8574   */\n      dup3\n        /* \"#utility.yul\":8563:8567   */\n      dup3\n        /* \"#utility.yul\":8559:8575   */\n      shl\n        /* \"#utility.yul\":8538:8575   */\n      swap1\n      pop\n        /* \"#utility.yul\":8475:8582   */\n      swap3\n      swap2\n      pop\n      pop\n      jump\t// out\n        /* \"#utility.yul\":8588:8981   */\n    tag_94:\n        /* \"#utility.yul\":8657:8663   */\n      0x00\n        /* \"#utility.yul\":8707:8708   */\n      0x08\n        /* \"#utility.yul\":8695:8705   */\n      dup4\n        /* \"#utility.yul\":8691:8709   */\n      mul\n        /* \"#utility.yul\":8730:8827   */\n      tag_201\n        /* \"#utility.yul\":8760:8826   */\n      0xffffffffffffffffffffffffffffffffffffffffffffffffffffffffffffffff\n        /* \"#utility.yul\":8749:8758   */\n      dup3\n        /* \"#utility.yul\":8730:8827   */\n      tag_93\n      jump\t// in\n    tag_201:\n        /* \"#utility.yul\":8848:8887   */\n      tag_202\n        /* \"#utility.yul\":8878:8886   */\n      dup7\n        /* \"#utility.yul\":8867:8876   */\n      dup4\n        /* \"#utility.yul\":8848:8887   */\n      tag_93\n      jump\t// in\n    tag_202:\n        /* \"#utility.yul\":8836:8887   */\n      swap6\n      pop\n        /* \"#utility.yul\":8920:8924   */\n      dup1\n        /* \"#utility.yul\":8916:8925   */\n      not\n        /* \"#utility.yul\":8909:8914   */\n      dup5\n        /* \"#utility.yul\":8905:8926   */\n      and\n        /* \"#utility.yul\":8896:8926   */\n      swap4\n      pop\n        /* \"#utility.yul\":8969:8973   */\n      dup1\n        /* \"#utility.yul\":8959:8967   */\n      dup7\n        /* \"#utility.yul\":8955:8974   */\n      and\n        /* \"#utility.yul\":8948:8953   */\n      dup5\n        /* \"#utility.yul\":8945:8975   */\n      or\n        /* \"#utility.yul\":8935:8975   */\n      swap3\n      pop\n        /* \"#utility.yul\":8664:8981   */\n      pop\n      pop\n        /* \"#utility.yul\":8588:8981   */\n      swap4\n      swap3\n      pop\n      pop\n      pop\n      jump\t// out\n        /* \"#utility.yul\":8987:9064   */\n    tag_95:\n        /* \"#utility.yul\":9024:9031   */\n      0x00\n        /* \"#utility.yul\":9053:9058   */\n      dup2\n        /* \"#utility.yul\":9042:9058   */\n      swap1\n      pop\n        /* \"#utility.yul\":8987:9064   */\n      swap2\n      swap1\n      pop\n      jump\t// out\n        /* \"#utility.yul\":9070:9130   */\n    tag_96:\n        /* \"#utility.yul\":9098:9101   */\n      0x00\n        /* \"#utility.yul\":9119:9124   */\n      dup2\n        /* \"#utility.yul\":9112:9124   */\n      swap1\n      pop\n        /* \"#utility.yul\":9070:9130   */\n      swap2\n      swap1\n      pop\n      jump\t// out\n        /* \"#utility.yul\":9136:9278   */\n    tag_97:\n        /* \"#utility.yul\":9186:9195   */\n      0x00\n        /* \"#utility.yul\":9219:9272   */\n      tag_206\n        /* \"#utility.yul\":9237:9271   */\n      tag_207\n        /* \"#utility.yul\":9246:9270   */\n      tag_208\n        /* \"#utility.yul\":9264:9269   */\n      dup5\n        /* \"#utility.yul\":9246:9270   */\n      tag_95\n      jump\t// in\n    tag_208:\n        /* \"#utility.yul\":9237:9271   */\n      tag_96\n      jump\t// in\n    tag_207:\n        /* \"#utility.yul\":9219:9272   */\n      tag_95\n      jump\t// in\n    tag_206:\n        /* \"#utility.yul\":9206:9272   */\n      swap1\n      pop\n        /* \"#utility.yul\":9136:9278   */\n      swap2\n      swap1\n      pop\n      jump\t// out\n        /* \"#utility.yul\":9284:9359   */\n    tag_98:\n        /* \"#utility.yul\":9327:9330   */\n      0x00\n        /* \"#utility.yul\":9348:9353   */\n      dup2\n        /* \"#utility.yul\":9341:9353   */\n      swap1\n      pop\n        /* \"#utility.yul\":9284:9359   */\n      swap2\n      swap1\n      pop\n      jump\t// out\n        /* \"#utility.yul\":9365:9634   */\n    tag_99:\n        /* \"#utility.yul\":9475:9514   */\n      tag_211\n        /* \"#utility.yul\":9506:9513   */\n      dup4\n        /* \"#utility.yul\":9475:9514   */\n      tag_97\n      jump\t// in\n    tag_211:\n        /* \"#utility.yul\":9536:9627   */\n      tag_212\n        /* \"#utility.yul\":9585:9626   */\n      tag_213\n        /* \"#utility.yul\":9609:9625   */\n      dup3\n        /* \"#utility.yul\":9585:9626   */\n      tag_98\n      jump\t// in\n    tag_213:\n        /* \"#utility.yul\":9577:9583   */\n      dup5\n        /* \"#utility.yul\":9570:9574   */\n      dup5\n        /* \"#utility.yul\":9564:9575   */\n      sload\n        /* \"#utility.yul\":9536:9627   */\n      tag_94\n      jump\t// in\n    tag_212:\n        /* \"#utility.yul\":9530:9534   */\n      dup3\n        /* \"#utility.yul\":9523:9628   */\n      sstore\n        /* \"#utility.yul\":9441:9634   */\n      pop\n        /* \"#utility.yul\":9365:9634   */\n      pop\n      pop\n      pop\n      jump\t// out\n        /* \"#utility.yul\":9640:9713   */\n    tag_100:\n        /* \"#utility.yul\":9685:9688   */\n      0x00\n        /* \"#utility.yul\":9640:9713   */\n      swap1\n      jump\t// out\n        /* \"#utility.yul\":9719:9908   */\n    tag_101:\n        /* \"#utility.yul\":9796:9828   */\n      tag_216\n      tag_100\n      jump\t// in\n    tag_216:\n        /* \"#utility.yul\":9837:9902   */\n      tag_217\n        /* \"#utility.yul\":9895:9901   */\n      dup2\n        /* \"#utility.yul\":9887:9893   */\n      dup5\n        /* \"#utility.yul\":9881:9885   */\n      dup5\n        /* \"#utility.yul\":9837:9902   */\n      tag_99\n      jump\t// in\n    tag_217:\n        /* \"#utility.yul\":9772:9908   */\n      pop\n        /* \"#utility.yul\":9719:9908   */\n      pop\n      pop\n      jump\t// out\n        /* \"#utility.yul\":9914:10100   */\n    tag_102:\n        /* \"#utility.yul\":9974:10094   */\n    tag_219:\n        /* \"#utility.yul\":9991:9994   */\n      dup2\n        /* \"#utility.yul\":9984:9989   */\n      dup2\n        /* \"#utility.yul\":9981:9995   */\n      lt\n        /* \"#utility.yul\":9974:10094   */\n      iszero\n      tag_221\n      jumpi\n        /* \"#utility.yul\":10045:10084   */\n      tag_222\n        /* \"#utility.yul\":10082:10083   */\n      0x00\n        /* \"#utility.yul\":10075:10080   */\n      dup3\n        /* \"#utility.yul\":10045:10084   */\n      tag_101\n      jump\t// in\n    tag_222:\n        /* \"#utility.yul\":10018:10019   */\n      0x01\n        /* \"#utility.yul\":10011:10016   */\n      dup2\n        /* \"#utility.yul\":10007:10020   */\n      add\n        /* \"#utility.yul\":9998:10020   */\n      swap1\n      pop\n        /* \"#utility.yul\":9974:10094   */\n      jump(tag_219)\n    tag_221:\n        /* \"#utility.yul\":9914:10100   */\n      pop\n      pop\n      jump\t// out\n        /* \"#utility.yul\":10106:10649   */\n    tag_103:\n        /* \"#utility.yul\":10207:10209   */\n      0x1f\n        /* \"#utility.yul\":10202:10205   */\n      dup3\n        /* \"#utility.yul\":10199:10210   */\n      gt\n        /* \"#utility.yul\":10196:10642   */\n      iszero\n      tag_224\n      jumpi\n        /* \"#utility.yul\":10241:10279   */\n      tag_225\n        /* \"#utility.yul\":10273:10278   */\n      dup2\n        /* \"#utility.yul\":10241:10279   */\n      tag_91\n      jump\t// in\n    tag_225:\n        /* \"#utility.yul\":10325:10354   */\n      tag_226\n        /* \"#utility.yul\":10343:10353   */\n      dup5\n        /* \"#utility.yul\":10325:10354   */\n      tag_92\n      jump\t// in\n    tag_226:\n        /* \"#utility.yul\":10315:10323   */\n      dup2\n        /* \"#utility.yul\":10311:10355   */\n      add\n        /* \"#utility.yul\":10508:10510   */\n      0x20\n        /* \"#utility.yul\":10496:10506   */\n      dup6\n        /* \"#utility.yul\":10493:10511   */\n      lt\n        /* \"#utility.yul\":10490:10539   */\n      iszero\n      tag_227\n      jumpi\n        /* \"#utility.yul\":10529:10537   */\n      dup2\n        /* \"#utility.yul\":10514:10537   */\n      swap1\n      pop\n        /* \"#utility.yul\":10490:10539   */\n    tag_227:\n        /* \"#utility.yul\":10552:10632   */\n      tag_228\n        /* \"#utility.yul\":10608:10630   */\n      tag_229\n        /* \"#utility.yul\":10626:10629   */\n      dup6\n        /* \"#utility.yul\":10608:10630   */\n      tag_92\n      jump\t// in\n    tag_229:\n        /* \"#utility.yul\":10598:10606   */\n      dup4\n        /* \"#utility.yul\":10594:10631   */\n      add\n        /* \"#utility.yul\":10581:10592   */\n      dup3\n        /* \"#utility.yul\":10552:10632   */\n      tag_102\n      jump\t// in\n    tag_228:\n        /* \"#utility.yul\":10211:10642   */\n      pop\n      pop\n        /* \"#utility.yul\":10196:10642   */\n    tag_224:\n        /* \"#utility.yul\":10106:10649   */\n      pop\n      pop\n      pop\n      jump\t// out\n        /* \"#utility.yul\":10655:10772   */\n    tag_104:\n        /* \"#utility.yul\":10709:10717   */\n      0x00\n        /* \"#utility.yul\":10759:10764   */\n      dup3\n        /* \"#utility.yul\":10753:10757   */\n      dup3\n        /* \"#utility.yul\":10749:10765   */\n      shr\n        /* \"#utility.yul\":10728:10765   */\n      swap1\n      pop\n        /* \"#utility.yul\":10655:10772   */\n      swap3\n      swap2\n      pop\n      pop\n      jump\t// out\n        /* \"#utility.yul\":10778:10947   */\n    tag_105:\n        /* \"#utility.yul\":10822:10828   */\n      0x00\n        /* \"#utility.yul\":10855:10906   */\n      tag_232\n        /* \"#utility.yul\":10903:10904   */\n      0x00\n        /* \"#utility.yul\":10899:10905   */\n      not\n        /* \"#utility.yul\":10891:10896   */\n      dup5\n        /* \"#utility.yul\":10888:10889   */\n      0x08\n        /* \"#utility.yul\":10884:10897   */\n      mul\n        /* \"#utility.yul\":10855:10906   */\n      tag_104\n      jump\t// in\n    tag_232:\n        /* \"#utility.yul\":10851:10907   */\n      not\n        /* \"#utility.yul\":10936:10940   */\n      dup1\n        /* \"#utility.yul\":10930:10934   */\n      dup4\n        /* \"#utility.yul\":10926:10941   */\n      and\n        /* \"#utility.yul\":10916:10941   */\n      swap2\n      pop\n        /* \"#utility.yul\":10829:10947   */\n      pop\n        /* \"#utility.yul\":10778:10947   */\n      swap3\n      swap2\n      pop\n      pop\n      jump\t// out\n        /* \"#utility.yul\":10952:11247   */\n    tag_106:\n        /* \"#utility.yul\":11028:11032   */\n      0x00\n        /* \"#utility.yul\":11174:11203   */\n      tag_234\n        /* \"#utility.yul\":11199:11202   */\n      dup4\n        /* \"#utility.yul\":11193:11197   */\n      dup4\n        /* \"#utility.yul\":11174:11203   */\n      tag_105\n      jump\t// in\n    tag_234:\n        /* \"#utility.yul\":11166:11203   */\n      swap2\n      pop\n        /* \"#utility.yul\":11236:11239   */\n      dup3\n        /* \"#utility.yul\":11233:11234   */\n      0x02\n        /* \"#utility.yul\":11229:11240   */\n      mul\n        /* \"#utility.yul\":11223:11227   */\n      dup3\n        /* \"#utility.yul\":11220:11241   */\n      or\n        /* \"#utility.yul\":11212:11241   */\n      swap1\n      pop\n        /* \"#utility.yul\":10952:11247   */\n      swap3\n      swap2\n      pop\n      pop\n      jump\t// out\n        /* \"#utility.yul\":11252:12647   */\n    tag_46:\n        /* \"#utility.yul\":11369:11406   */\n      tag_236\n        /* \"#utility.yul\":11402:11405   */\n      dup3\n        /* \"#utility.yul\":11369:11406   */\n      tag_81\n      jump\t// in\n    tag_236:\n        /* \"#utility.yul\":11471:11489   */\n      0xffffffffffffffff\n        /* \"#utility.yul\":11463:11469   */\n      dup2\n        /* \"#utility.yul\":11460:11490   */\n      gt\n        /* \"#utility.yul\":11457:11513   */\n      iszero\n      tag_237\n      jumpi\n        /* \"#utility.yul\":11493:11511   */\n      tag_238\n      tag_74\n      jump\t// in\n    tag_238:\n        /* \"#utility.yul\":11457:11513   */\n    tag_237:\n        /* \"#utility.yul\":11537:11575   */\n      tag_239\n        /* \"#utility.yul\":11569:11573   */\n      dup3\n        /* \"#utility.yul\":11563:11574   */\n      sload\n        /* \"#utility.yul\":11537:11575   */\n      tag_48\n      jump\t// in\n    tag_239:\n        /* \"#utility.yul\":11622:11689   */\n      tag_240\n        /* \"#utility.yul\":11682:11688   */\n      dup3\n        /* \"#utility.yul\":11674:11680   */\n      dup3\n        /* \"#utility.yul\":11668:11672   */\n      dup6\n        /* \"#utility.yul\":11622:11689   */\n      tag_103\n      jump\t// in\n    tag_240:\n        /* \"#utility.yul\":11716:11717   */\n      0x00\n        /* \"#utility.yul\":11740:11744   */\n      0x20\n        /* \"#utility.yul\":11727:11744   */\n      swap1\n      pop\n        /* \"#utility.yul\":11772:11774   */\n      0x1f\n        /* \"#utility.yul\":11764:11770   */\n      dup4\n        /* \"#utility.yul\":11761:11775   */\n      gt\n        /* \"#utility.yul\":11789:11790   */\n      0x01\n        /* \"#utility.yul\":11784:12402   */\n      dup2\n      eq\n      tag_242\n      jumpi\n        /* \"#utility.yul\":12446:12447   */\n      0x00\n        /* \"#utility.yul\":12463:12469   */\n      dup5\n        /* \"#utility.yul\":12460:12537   */\n      iszero\n      tag_243\n      jumpi\n        /* \"#utility.yul\":12512:12521   */\n      dup3\n        /* \"#utility.yul\":12507:12510   */\n      dup8\n        /* \"#utility.yul\":12503:12522   */\n      add\n        /* \"#utility.yul\":12497:12523   */\n      mload\n        /* \"#utility.yul\":12488:12523   */\n      swap1\n      pop\n        /* \"#utility.yul\":12460:12537   */\n    tag_243:\n        /* \"#utility.yul\":12563:12630   */\n      tag_244\n        /* \"#utility.yul\":12623:12629   */\n      dup6\n        /* \"#utility.yul\":12616:12621   */\n      dup3\n        /* \"#utility.yul\":12563:12630   */\n      tag_106\n      jump\t// in\n    tag_244:\n        /* \"#utility.yul\":12557:12561   */\n      dup7\n        /* \"#utility.yul\":12550:12631   */\n      sstore\n        /* \"#utility.yul\":12419:12641   */\n      pop\n        /* \"#utility.yul\":11754:12641   */\n      jump(tag_241)\n        /* \"#utility.yul\":11784:12402   */\n    tag_242:\n        /* \"#utility.yul\":11836:11840   */\n      0x1f\n        /* \"#utility.yul\":11832:11841   */\n      not\n        /* \"#utility.yul\":11824:11830   */\n      dup5\n        /* \"#utility.yul\":11820:11842   */\n      and\n        /* \"#utility.yul\":11870:11907   */\n      tag_245\n        /* \"#utility.yul\":11902:11906   */\n      dup7\n        /* \"#utility.yul\":11870:11907   */\n      tag_91\n      jump\t// in\n    tag_245:\n        /* \"#utility.yul\":11929:11930   */\n      0x00\n        /* \"#utility.yul\":11943:12151   */\n    tag_246:\n        /* \"#utility.yul\":11957:11964   */\n      dup3\n        /* \"#utility.yul\":11954:11955   */\n      dup2\n        /* \"#utility.yul\":11951:11965   */\n      lt\n        /* \"#utility.yul\":11943:12151   */\n      iszero\n      tag_248\n      jumpi\n        /* \"#utility.yul\":12036:12045   */\n      dup5\n        /* \"#utility.yul\":12031:12034   */\n      dup10\n        /* \"#utility.yul\":12027:12046   */\n      add\n        /* \"#utility.yul\":12021:12047   */\n      mload\n        /* \"#utility.yul\":12013:12019   */\n      dup3\n        /* \"#utility.yul\":12006:12048   */\n      sstore\n        /* \"#utility.yul\":12087:12088   */\n      0x01\n        /* \"#utility.yul\":12079:12085   */\n      dup3\n        /* \"#utility.yul\":12075:12089   */\n      add\n        /* \"#utility.yul\":12065:12089   */\n      swap2\n      pop\n        /* \"#utility.yul\":12134:12136   */\n      0x20\n        /* \"#utility.yul\":12123:12132   */\n      dup6\n        /* \"#utility.yul\":12119:12137   */\n      add\n        /* \"#utility.yul\":12106:12137   */\n      swap5\n      pop\n        /* \"#utility.yul\":11980:11984   */\n      0x20\n        /* \"#utility.yul\":11977:11978   */\n      dup2\n        /* \"#utility.yul\":11973:11985   */\n      add\n        /* \"#utility.yul\":11968:11985   */\n      swap1\n      pop\n        /* \"#utility.yul\":11943:12151   */\n      jump(tag_246)\n    tag_248:\n        /* \"#utility.yul\":12179:12185   */\n      dup7\n        /* \"#utility.yul\":12170:12177   */\n      dup4\n        /* \"#utility.yul\":12167:12186   */\n      lt\n        /* \"#utility.yul\":12164:12343   */\n      iszero\n      tag_249\n      jumpi\n        /* \"#utility.yul\":12237:12246   */\n      dup5\n        /* \"#utility.yul\":12232:12235   */\n      dup10\n        /* \"#utility.yul\":12228:12247   */\n      add\n        /* \"#utility.yul\":12222:12248   */\n      mload\n        /* \"#utility.yul\":12280:12328   */\n      tag_250\n        /* \"#utility.yul\":12322:12326   */\n      0x1f\n        /* \"#utility.yul\":12314:12320   */\n      dup10\n        /* \"#utility.yul\":12310:12327   */\n      and\n        /* \"#utility.yul\":12299:12308   */\n      dup3\n        /* \"#utility.yul\":12280:12328   */\n      tag_105\n      jump\t// in\n    tag_250:\n        /* \"#utility.yul\":12272:12278   */\n      dup4\n        /* \"#utility.yul\":12265:12329   */\n      sstore\n        /* \"#utility.yul\":12187:12343   */\n      pop\n        /* \"#utility.yul\":12164:12343   */\n    tag_249:\n        /* \"#utility.yul\":12389:12390   */\n      0x01\n        /* \"#utility.yul\":12385:12386   */\n      0x02\n        /* \"#utility.yul\":12377:12383   */\n      dup9\n        /* \"#utility.yul\":12373:12387   */\n      mul\n        /* \"#utility.yul\":12369:12391   */\n      add\n        /* \"#utility.yul\":12363:12367   */\n      dup9\n        /* \"#utility.yul\":12356:12392   */\n      sstore\n        /* \"#utility.yul\":11791:12402   */\n      pop\n      pop\n      pop\n        /* \"#utility.yul\":11754:12641   */\n    tag_241:\n      pop\n        /* \"#utility.yul\":11344:12647   */\n      pop\n      pop\n      pop\n        /* \"#utility.yul\":11252:12647   */\n      pop\n      pop\n      jump\t// out\n        /* \"#utility.yul\":12653:12833   */\n    tag_107:\n        /* \"#utility.yul\":12701:12778   */\n      0x4e487b7100000000000000000000000000000000000000000000000000000000\n        /* \"#utility.yul\":12698:12699   */\n      0x00\n        /* \"#utility.yul\":12691:12779   */\n      mstore\n        /* \"#utility.yul\":12798:12802   */\n      0x12\n        /* \"#utility.yul\":12795:12796   */\n      0x04\n        /* \"#utility.yul\":12788:12803   */\n      mstore\n        /* \"#utility.yul\":12822:12826   */\n      0x24\n        /* \"#utility.yul\":12819:12820   */\n      0x00\n        /* \"#utility.yul\":12812:12827   */\n      revert\n        /* \"#utility.yul\":12839:13013   */\n    tag_58:\n        /* \"#utility.yul\":12870:12871   */\n      0x00\n        /* \"#utility.yul\":12887:12906   */\n      tag_253\n        /* \"#utility.yul\":12904:12905   */\n      dup3\n        /* \"#utility.yul\":12887:12906   */\n      tag_64\n      jump\t// in\n    tag_253:\n        /* \"#utility.yul\":12882:12906   */\n      swap2\n      pop\n        /* \"#utility.yul\":12920:12939   */\n      tag_254\n        /* \"#utility.yul\":12937:12938   */\n      dup4\n        /* \"#utility.yul\":12920:12939   */\n      tag_64\n      jump\t// in\n    tag_254:\n        /* \"#utility.yul\":12915:12939   */\n      swap3\n      pop\n        /* \"#utility.yul\":12958:12959   */\n      dup3\n        /* \"#utility.yul\":12948:12983   */\n      tag_255\n      jumpi\n        /* \"#utility.yul\":12963:12981   */\n      tag_256\n      tag_107\n      jump\t// in\n    tag_256:\n        /* \"#utility.yul\":12948:12983   */\n    tag_255:\n        /* \"#utility.yul\":13005:13006   */\n      dup3\n        /* \"#utility.yul\":13002:13003   */\n      dup3\n        /* \"#utility.yul\":12997:13007   */\n      smod\n        /* \"#utility.yul\":12992:13007   */\n      swap1\n      pop\n        /* \"#utility.yul\":12839:13013   */\n      swap3\n      swap2\n      pop\n      pop\n      jump\t// out\n        /* \"#utility.yul\":13019:13250   */\n    tag_63:\n        /* \"#utility.yul\":13057:13060   */\n      0x00\n        /* \"#utility.yul\":13080:13103   */\n      tag_258\n        /* \"#utility.yul\":13097:13102   */\n      dup3\n        /* \"#utility.yul\":13080:13103   */\n      tag_64\n      jump\t// in\n    tag_258:\n        /* \"#utility.yul\":13071:13103   */\n      swap2\n      pop\n        /* \"#utility.yul\":13125:13191   */\n      0x7fffffffffffffffffffffffffffffffffffffffffffffffffffffffffffffff\n        /* \"#utility.yul\":13118:13123   */\n      dup3\n        /* \"#utility.yul\":13115:13192   */\n      sub\n        /* \"#utility.yul\":13112:13215   */\n      tag_259\n      jumpi\n        /* \"#utility.yul\":13195:13213   */\n      tag_260\n      tag_87\n      jump\t// in\n    tag_260:\n        /* \"#utility.yul\":13112:13215   */\n    tag_259:\n        /* \"#utility.yul\":13242:13243   */\n      0x01\n        /* \"#utility.yul\":13235:13240   */\n      dup3\n        /* \"#utility.yul\":13231:13244   */\n      add\n        /* \"#utility.yul\":13224:13244   */\n      swap1\n      pop\n        /* \"#utility.yul\":13019:13250   */\n      swap2\n      swap1\n      pop\n      jump\t// out\n\n    auxdata: 0xa2646970667358221220dcb2d43f8c01f0aa5c38e80f994a78ad6473942df496c341b09d38f38ae09fe064736f6c634300081a0033\n}\n",
				"bytecode": {
					"linkReferences": {},
					"object": "608060405260055f556001805f6101000a81548160ff021916908315150217905550348015602b575f80fd5b50610b28806100395f395ff3fe608060405234801561000f575f80fd5b506004361061007b575f3560e01c806389c19ddb1161005957806389c19ddb146100d9578063919840ad14610109578063baa7831714610127578063d09de08a146101575761007b565b80630dbe671f1461007f5780632baeceb71461009d57806363281b1d146100bb575b5f80fd5b610087610175565b6040516100949190610398565b60405180910390f35b6100a561017a565b6040516100b29190610398565b60405180910390f35b6100c3610193565b6040516100d091906103cb565b60405180910390f35b6100f360048036038101906100ee9190610531565b6101a5565b6040516101009190610607565b60405180910390f35b610111610269565b60405161011e91906103cb565b60405180910390f35b610141600480360381019061013c9190610651565b6102d0565b60405161014e9190610607565b60405180910390f35b61015f610367565b60405161016c9190610398565b60405180910390f35b5f5481565b5f805f8154610188906106d8565b919050819055905090565b60015f9054906101000a900460ff1681565b606082826040516020016101ba929190610759565b604051602081830303815290604052600290816101d7919061097f565b50600280546101e5906107a9565b80601f0160208091040260200160405190810160405280929190818152602001828054610211906107a9565b801561025c5780601f106102335761010080835404028352916020019161025c565b820191905f5260205f20905b81548152906001019060200180831161023f57829003601f168201915b5050505050905092915050565b5f6001151560015f9054906101000a900460ff161515036102a2575f60015f6101000a81548160ff0219169083151502179055506102bc565b6001805f6101000a81548160ff0219169083151502179055505b60015f9054906101000a900460ff16905090565b60606002836102df9190610a7b565b92505f8303610325576040518060400160405280601381526020017f4974277320616e206576656e206e756d62657200000000000000000000000000815250915061035e565b6040518060400160405280601281526020017f4974277320616e206f6464206e756d626572000000000000000000000000000081525091505b81905092915050565b5f805f815461037590610aab565b919050819055905090565b5f819050919050565b61039281610380565b82525050565b5f6020820190506103ab5f830184610389565b92915050565b5f8115159050919050565b6103c5816103b1565b82525050565b5f6020820190506103de5f8301846103bc565b92915050565b5f604051905090565b5f80fd5b5f80fd5b5f80fd5b5f80fd5b5f601f19601f8301169050919050565b7f4e487b71000000000000000000000000000000000000000000000000000000005f52604160045260245ffd5b610443826103fd565b810181811067ffffffffffffffff821117156104625761046161040d565b5b80604052505050565b5f6104746103e4565b9050610480828261043a565b919050565b5f67ffffffffffffffff82111561049f5761049e61040d565b5b6104a8826103fd565b9050602081019050919050565b828183375f83830152505050565b5f6104d56104d084610485565b61046b565b9050828152602081018484840111156104f1576104f06103f9565b5b6104fc8482856104b5565b509392505050565b5f82601f830112610518576105176103f5565b5b81356105288482602086016104c3565b91505092915050565b5f8060408385031215610547576105466103ed565b5b5f83013567ffffffffffffffff811115610564576105636103f1565b5b61057085828601610504565b925050602083013567ffffffffffffffff811115610591576105906103f1565b5b61059d85828601610504565b9150509250929050565b5f81519050919050565b5f82825260208201905092915050565b8281835e5f83830152505050565b5f6105d9826105a7565b6105e381856105b1565b93506105f38185602086016105c1565b6105fc816103fd565b840191505092915050565b5f6020820190508181035f83015261061f81846105cf565b905092915050565b61063081610380565b811461063a575f80fd5b50565b5f8135905061064b81610627565b92915050565b5f8060408385031215610667576106666103ed565b5b5f6106748582860161063d565b925050602083013567ffffffffffffffff811115610695576106946103f1565b5b6106a185828601610504565b9150509250929050565b7f4e487b71000000000000000000000000000000000000000000000000000000005f52601160045260245ffd5b5f6106e282610380565b91507f80000000000000000000000000000000000000000000000000000000000000008203610714576107136106ab565b5b600182039050919050565b5f81905092915050565b5f610733826105a7565b61073d818561071f565b935061074d8185602086016105c1565b80840191505092915050565b5f6107648285610729565b91506107708284610729565b91508190509392505050565b7f4e487b71000000000000000000000000000000000000000000000000000000005f52602260045260245ffd5b5f60028204905060018216806107c057607f821691505b6020821081036107d3576107d261077c565b5b50919050565b5f819050815f5260205f209050919050565b5f6020601f8301049050919050565b5f82821b905092915050565b5f600883026108357fffffffffffffffffffffffffffffffffffffffffffffffffffffffffffffffff826107fa565b61083f86836107fa565b95508019841693508086168417925050509392505050565b5f819050919050565b5f819050919050565b5f61088361087e61087984610857565b610860565b610857565b9050919050565b5f819050919050565b61089c83610869565b6108b06108a88261088a565b848454610806565b825550505050565b5f90565b6108c46108b8565b6108cf818484610893565b505050565b5b818110156108f2576108e75f826108bc565b6001810190506108d5565b5050565b601f82111561093757610908816107d9565b610911846107eb565b81016020851015610920578190505b61093461092c856107eb565b8301826108d4565b50505b505050565b5f82821c905092915050565b5f6109575f198460080261093c565b1980831691505092915050565b5f61096f8383610948565b9150826002028217905092915050565b610988826105a7565b67ffffffffffffffff8111156109a1576109a061040d565b5b6109ab82546107a9565b6109b68282856108f6565b5f60209050601f8311600181146109e7575f84156109d5578287015190505b6109df8582610964565b865550610a46565b601f1984166109f5866107d9565b5f5b82811015610a1c578489015182556001820191506020850194506020810190506109f7565b86831015610a395784890151610a35601f891682610948565b8355505b6001600288020188555050505b505050505050565b7f4e487b71000000000000000000000000000000000000000000000000000000005f52601260045260245ffd5b5f610a8582610380565b9150610a9083610380565b925082610aa057610a9f610a4e565b5b828207905092915050565b5f610ab582610380565b91507f7fffffffffffffffffffffffffffffffffffffffffffffffffffffffffffffff8203610ae757610ae66106ab565b5b60018201905091905056fea2646970667358221220dcb2d43f8c01f0aa5c38e80f994a78ad6473942df496c341b09d38f38ae09fe064736f6c634300081a0033",
					"opcodes": "PUSH1 0x80 PUSH1 0x40 MSTORE PUSH1 0x5 PUSH0 SSTORE PUSH1 0x1 DUP1 PUSH0 PUSH2 0x100 EXP DUP2 SLOAD DUP2 PUSH1 0xFF MUL NOT AND SWAP1 DUP4 ISZERO ISZERO MUL OR SWAP1 SSTORE POP CALLVALUE DUP1 ISZERO PUSH1 0x2B JUMPI PUSH0 DUP1 REVERT JUMPDEST POP PUSH2 0xB28 DUP1 PUSH2 0x39 PUSH0 CODECOPY PUSH0 RETURN INVALID PUSH1 0x80 PUSH1 0x40 MSTORE CALLVALUE DUP1 ISZERO PUSH2 0xF JUMPI PUSH0 DUP1 REVERT JUMPDEST POP PUSH1 0x4 CALLDATASIZE LT PUSH2 0x7B JUMPI PUSH0 CALLDATALOAD PUSH1 0xE0 SHR DUP1 PUSH4 0x89C19DDB GT PUSH2 0x59 JUMPI DUP1 PUSH4 0x89C19DDB EQ PUSH2 0xD9 JUMPI DUP1 PUSH4 0x919840AD EQ PUSH2 0x109 JUMPI DUP1 PUSH4 0xBAA78317 EQ PUSH2 0x127 JUMPI DUP1 PUSH4 0xD09DE08A EQ PUSH2 0x157 JUMPI PUSH2 0x7B JUMP JUMPDEST DUP1 PUSH4 0xDBE671F EQ PUSH2 0x7F JUMPI DUP1 PUSH4 0x2BAECEB7 EQ PUSH2 0x9D JUMPI DUP1 PUSH4 0x63281B1D EQ PUSH2 0xBB JUMPI JUMPDEST PUSH0 DUP1 REVERT JUMPDEST PUSH2 0x87 PUSH2 0x175 JUMP JUMPDEST PUSH1 0x40 MLOAD PUSH2 0x94 SWAP2 SWAP1 PUSH2 0x398 JUMP JUMPDEST PUSH1 0x40 MLOAD DUP1 SWAP2 SUB SWAP1 RETURN JUMPDEST PUSH2 0xA5 PUSH2 0x17A JUMP JUMPDEST PUSH1 0x40 MLOAD PUSH2 0xB2 SWAP2 SWAP1 PUSH2 0x398 JUMP JUMPDEST PUSH1 0x40 MLOAD DUP1 SWAP2 SUB SWAP1 RETURN JUMPDEST PUSH2 0xC3 PUSH2 0x193 JUMP JUMPDEST PUSH1 0x40 MLOAD PUSH2 0xD0 SWAP2 SWAP1 PUSH2 0x3CB JUMP JUMPDEST PUSH1 0x40 MLOAD DUP1 SWAP2 SUB SWAP1 RETURN JUMPDEST PUSH2 0xF3 PUSH1 0x4 DUP1 CALLDATASIZE SUB DUP2 ADD SWAP1 PUSH2 0xEE SWAP2 SWAP1 PUSH2 0x531 JUMP JUMPDEST PUSH2 0x1A5 JUMP JUMPDEST PUSH1 0x40 MLOAD PUSH2 0x100 SWAP2 SWAP1 PUSH2 0x607 JUMP JUMPDEST PUSH1 0x40 MLOAD DUP1 SWAP2 SUB SWAP1 RETURN JUMPDEST PUSH2 0x111 PUSH2 0x269 JUMP JUMPDEST PUSH1 0x40 MLOAD PUSH2 0x11E SWAP2 SWAP1 PUSH2 0x3CB JUMP JUMPDEST PUSH1 0x40 MLOAD DUP1 SWAP2 SUB SWAP1 RETURN JUMPDEST PUSH2 0x141 PUSH1 0x4 DUP1 CALLDATASIZE SUB DUP2 ADD SWAP1 PUSH2 0x13C SWAP2 SWAP1 PUSH2 0x651 JUMP JUMPDEST PUSH2 0x2D0 JUMP JUMPDEST PUSH1 0x40 MLOAD PUSH2 0x14E SWAP2 SWAP1 PUSH2 0x607 JUMP JUMPDEST PUSH1 0x40 MLOAD DUP1 SWAP2 SUB SWAP1 RETURN JUMPDEST PUSH2 0x15F PUSH2 0x367 JUMP JUMPDEST PUSH1 0x40 MLOAD PUSH2 0x16C SWAP2 SWAP1 PUSH2 0x398 JUMP JUMPDEST PUSH1 0x40 MLOAD DUP1 SWAP2 SUB SWAP1 RETURN JUMPDEST PUSH0 SLOAD DUP2 JUMP JUMPDEST PUSH0 DUP1 PUSH0 DUP2 SLOAD PUSH2 0x188 SWAP1 PUSH2 0x6D8 JUMP JUMPDEST SWAP2 SWAP1 POP DUP2 SWAP1 SSTORE SWAP1 POP SWAP1 JUMP JUMPDEST PUSH1 0x1 PUSH0 SWAP1 SLOAD SWAP1 PUSH2 0x100 EXP SWAP1 DIV PUSH1 0xFF AND DUP2 JUMP JUMPDEST PUSH1 0x60 DUP3 DUP3 PUSH1 0x40 MLOAD PUSH1 0x20 ADD PUSH2 0x1BA SWAP3 SWAP2 SWAP1 PUSH2 0x759 JUMP JUMPDEST PUSH1 0x40 MLOAD PUSH1 0x20 DUP2 DUP4 SUB SUB DUP2 MSTORE SWAP1 PUSH1 0x40 MSTORE PUSH1 0x2 SWAP1 DUP2 PUSH2 0x1D7 SWAP2 SWAP1 PUSH2 0x97F JUMP JUMPDEST POP PUSH1 0x2 DUP1 SLOAD PUSH2 0x1E5 SWAP1 PUSH2 0x7A9 JUMP JUMPDEST DUP1 PUSH1 0x1F ADD PUSH1 0x20 DUP1 SWAP2 DIV MUL PUSH1 0x20 ADD PUSH1 0x40 MLOAD SWAP1 DUP2 ADD PUSH1 0x40 MSTORE DUP1 SWAP3 SWAP2 SWAP1 DUP2 DUP2 MSTORE PUSH1 0x20 ADD DUP3 DUP1 SLOAD PUSH2 0x211 SWAP1 PUSH2 0x7A9 JUMP JUMPDEST DUP1 ISZERO PUSH2 0x25C JUMPI DUP1 PUSH1 0x1F LT PUSH2 0x233 JUMPI PUSH2 0x100 DUP1 DUP4 SLOAD DIV MUL DUP4 MSTORE SWAP2 PUSH1 0x20 ADD SWAP2 PUSH2 0x25C JUMP JUMPDEST DUP3 ADD SWAP2 SWAP1 PUSH0 MSTORE PUSH1 0x20 PUSH0 KECCAK256 SWAP1 JUMPDEST DUP2 SLOAD DUP2 MSTORE SWAP1 PUSH1 0x1 ADD SWAP1 PUSH1 0x20 ADD DUP1 DUP4 GT PUSH2 0x23F JUMPI DUP3 SWAP1 SUB PUSH1 0x1F AND DUP3 ADD SWAP2 JUMPDEST POP POP POP POP POP SWAP1 POP SWAP3 SWAP2 POP POP JUMP JUMPDEST PUSH0 PUSH1 0x1 ISZERO ISZERO PUSH1 0x1 PUSH0 SWAP1 SLOAD SWAP1 PUSH2 0x100 EXP SWAP1 DIV PUSH1 0xFF AND ISZERO ISZERO SUB PUSH2 0x2A2 JUMPI PUSH0 PUSH1 0x1 PUSH0 PUSH2 0x100 EXP DUP2 SLOAD DUP2 PUSH1 0xFF MUL NOT AND SWAP1 DUP4 ISZERO ISZERO MUL OR SWAP1 SSTORE POP PUSH2 0x2BC JUMP JUMPDEST PUSH1 0x1 DUP1 PUSH0 PUSH2 0x100 EXP DUP2 SLOAD DUP2 PUSH1 0xFF MUL NOT AND SWAP1 DUP4 ISZERO ISZERO MUL OR SWAP1 SSTORE POP JUMPDEST PUSH1 0x1 PUSH0 SWAP1 SLOAD SWAP1 PUSH2 0x100 EXP SWAP1 DIV PUSH1 0xFF AND SWAP1 POP SWAP1 JUMP JUMPDEST PUSH1 0x60 PUSH1 0x2 DUP4 PUSH2 0x2DF SWAP2 SWAP1 PUSH2 0xA7B JUMP JUMPDEST SWAP3 POP PUSH0 DUP4 SUB PUSH2 0x325 JUMPI PUSH1 0x40 MLOAD DUP1 PUSH1 0x40 ADD PUSH1 0x40 MSTORE DUP1 PUSH1 0x13 DUP2 MSTORE PUSH1 0x20 ADD PUSH32 0x4974277320616E206576656E206E756D62657200000000000000000000000000 DUP2 MSTORE POP SWAP2 POP PUSH2 0x35E JUMP JUMPDEST PUSH1 0x40 MLOAD DUP1 PUSH1 0x40 ADD PUSH1 0x40 MSTORE DUP1 PUSH1 0x12 DUP2 MSTORE PUSH1 0x20 ADD PUSH32 0x4974277320616E206F6464206E756D6265720000000000000000000000000000 DUP2 MSTORE POP SWAP2 POP JUMPDEST DUP2 SWAP1 POP SWAP3 SWAP2 POP POP JUMP JUMPDEST PUSH0 DUP1 PUSH0 DUP2 SLOAD PUSH2 0x375 SWAP1 PUSH2 0xAAB JUMP JUMPDEST SWAP2 SWAP1 POP DUP2 SWAP1 SSTORE SWAP1 POP SWAP1 JUMP JUMPDEST PUSH0 DUP2 SWAP1 POP SWAP2 SWAP1 POP JUMP JUMPDEST PUSH2 0x392 DUP2 PUSH2 0x380 JUMP JUMPDEST DUP3 MSTORE POP POP JUMP JUMPDEST PUSH0 PUSH1 0x20 DUP3 ADD SWAP1 POP PUSH2 0x3AB PUSH0 DUP4 ADD DUP5 PUSH2 0x389 JUMP JUMPDEST SWAP3 SWAP2 POP POP JUMP JUMPDEST PUSH0 DUP2 ISZERO ISZERO SWAP1 POP SWAP2 SWAP1 POP JUMP JUMPDEST PUSH2 0x3C5 DUP2 PUSH2 0x3B1 JUMP JUMPDEST DUP3 MSTORE POP POP JUMP JUMPDEST PUSH0 PUSH1 0x20 DUP3 ADD SWAP1 POP PUSH2 0x3DE PUSH0 DUP4 ADD DUP5 PUSH2 0x3BC JUMP JUMPDEST SWAP3 SWAP2 POP POP JUMP JUMPDEST PUSH0 PUSH1 0x40 MLOAD SWAP1 POP SWAP1 JUMP JUMPDEST PUSH0 DUP1 REVERT JUMPDEST PUSH0 DUP1 REVERT JUMPDEST PUSH0 DUP1 REVERT JUMPDEST PUSH0 DUP1 REVERT JUMPDEST PUSH0 PUSH1 0x1F NOT PUSH1 0x1F DUP4 ADD AND SWAP1 POP SWAP2 SWAP1 POP JUMP JUMPDEST PUSH32 0x4E487B7100000000000000000000000000000000000000000000000000000000 PUSH0 MSTORE PUSH1 0x41 PUSH1 0x4 MSTORE PUSH1 0x24 PUSH0 REVERT JUMPDEST PUSH2 0x443 DUP3 PUSH2 0x3FD JUMP JUMPDEST DUP2 ADD DUP2 DUP2 LT PUSH8 0xFFFFFFFFFFFFFFFF DUP3 GT OR ISZERO PUSH2 0x462 JUMPI PUSH2 0x461 PUSH2 0x40D JUMP JUMPDEST JUMPDEST DUP1 PUSH1 0x40 MSTORE POP POP POP JUMP JUMPDEST PUSH0 PUSH2 0x474 PUSH2 0x3E4 JUMP JUMPDEST SWAP1 POP PUSH2 0x480 DUP3 DUP3 PUSH2 0x43A JUMP JUMPDEST SWAP2 SWAP1 POP JUMP JUMPDEST PUSH0 PUSH8 0xFFFFFFFFFFFFFFFF DUP3 GT ISZERO PUSH2 0x49F JUMPI PUSH2 0x49E PUSH2 0x40D JUMP JUMPDEST JUMPDEST PUSH2 0x4A8 DUP3 PUSH2 0x3FD JUMP JUMPDEST SWAP1 POP PUSH1 0x20 DUP2 ADD SWAP1 POP SWAP2 SWAP1 POP JUMP JUMPDEST DUP3 DUP2 DUP4 CALLDATACOPY PUSH0 DUP4 DUP4 ADD MSTORE POP POP POP JUMP JUMPDEST PUSH0 PUSH2 0x4D5 PUSH2 0x4D0 DUP5 PUSH2 0x485 JUMP JUMPDEST PUSH2 0x46B JUMP JUMPDEST SWAP1 POP DUP3 DUP2 MSTORE PUSH1 0x20 DUP2 ADD DUP5 DUP5 DUP5 ADD GT ISZERO PUSH2 0x4F1 JUMPI PUSH2 0x4F0 PUSH2 0x3F9 JUMP JUMPDEST JUMPDEST PUSH2 0x4FC DUP5 DUP3 DUP6 PUSH2 0x4B5 JUMP JUMPDEST POP SWAP4 SWAP3 POP POP POP JUMP JUMPDEST PUSH0 DUP3 PUSH1 0x1F DUP4 ADD SLT PUSH2 0x518 JUMPI PUSH2 0x517 PUSH2 0x3F5 JUMP JUMPDEST JUMPDEST DUP2 CALLDATALOAD PUSH2 0x528 DUP5 DUP3 PUSH1 0x20 DUP7 ADD PUSH2 0x4C3 JUMP JUMPDEST SWAP2 POP POP SWAP3 SWAP2 POP POP JUMP JUMPDEST PUSH0 DUP1 PUSH1 0x40 DUP4 DUP6 SUB SLT ISZERO PUSH2 0x547 JUMPI PUSH2 0x546 PUSH2 0x3ED JUMP JUMPDEST JUMPDEST PUSH0 DUP4 ADD CALLDATALOAD PUSH8 0xFFFFFFFFFFFFFFFF DUP2 GT ISZERO PUSH2 0x564 JUMPI PUSH2 0x563 PUSH2 0x3F1 JUMP JUMPDEST JUMPDEST PUSH2 0x570 DUP6 DUP3 DUP7 ADD PUSH2 0x504 JUMP JUMPDEST SWAP3 POP POP PUSH1 0x20 DUP4 ADD CALLDATALOAD PUSH8 0xFFFFFFFFFFFFFFFF DUP2 GT ISZERO PUSH2 0x591 JUMPI PUSH2 0x590 PUSH2 0x3F1 JUMP JUMPDEST JUMPDEST PUSH2 0x59D DUP6 DUP3 DUP7 ADD PUSH2 0x504 JUMP JUMPDEST SWAP2 POP POP SWAP3 POP SWAP3 SWAP1 POP JUMP JUMPDEST PUSH0 DUP2 MLOAD SWAP1 POP SWAP2 SWAP1 POP JUMP JUMPDEST PUSH0 DUP3 DUP3 MSTORE PUSH1 0x20 DUP3 ADD SWAP1 POP SWAP3 SWAP2 POP POP JUMP JUMPDEST DUP3 DUP2 DUP4 MCOPY PUSH0 DUP4 DUP4 ADD MSTORE POP POP POP JUMP JUMPDEST PUSH0 PUSH2 0x5D9 DUP3 PUSH2 0x5A7 JUMP JUMPDEST PUSH2 0x5E3 DUP2 DUP6 PUSH2 0x5B1 JUMP JUMPDEST SWAP4 POP PUSH2 0x5F3 DUP2 DUP6 PUSH1 0x20 DUP7 ADD PUSH2 0x5C1 JUMP JUMPDEST PUSH2 0x5FC DUP2 PUSH2 0x3FD JUMP JUMPDEST DUP5 ADD SWAP2 POP POP SWAP3 SWAP2 POP POP JUMP JUMPDEST PUSH0 PUSH1 0x20 DUP3 ADD SWAP1 POP DUP2 DUP2 SUB PUSH0 DUP4 ADD MSTORE PUSH2 0x61F DUP2 DUP5 PUSH2 0x5CF JUMP JUMPDEST SWAP1 POP SWAP3 SWAP2 POP POP JUMP JUMPDEST PUSH2 0x630 DUP2 PUSH2 0x380 JUMP JUMPDEST DUP2 EQ PUSH2 0x63A JUMPI PUSH0 DUP1 REVERT JUMPDEST POP JUMP JUMPDEST PUSH0 DUP2 CALLDATALOAD SWAP1 POP PUSH2 0x64B DUP2 PUSH2 0x627 JUMP JUMPDEST SWAP3 SWAP2 POP POP JUMP JUMPDEST PUSH0 DUP1 PUSH1 0x40 DUP4 DUP6 SUB SLT ISZERO PUSH2 0x667 JUMPI PUSH2 0x666 PUSH2 0x3ED JUMP JUMPDEST JUMPDEST PUSH0 PUSH2 0x674 DUP6 DUP3 DUP7 ADD PUSH2 0x63D JUMP JUMPDEST SWAP3 POP POP PUSH1 0x20 DUP4 ADD CALLDATALOAD PUSH8 0xFFFFFFFFFFFFFFFF DUP2 GT ISZERO PUSH2 0x695 JUMPI PUSH2 0x694 PUSH2 0x3F1 JUMP JUMPDEST JUMPDEST PUSH2 0x6A1 DUP6 DUP3 DUP7 ADD PUSH2 0x504 JUMP JUMPDEST SWAP2 POP POP SWAP3 POP SWAP3 SWAP1 POP JUMP JUMPDEST PUSH32 0x4E487B7100000000000000000000000000000000000000000000000000000000 PUSH0 MSTORE PUSH1 0x11 PUSH1 0x4 MSTORE PUSH1 0x24 PUSH0 REVERT JUMPDEST PUSH0 PUSH2 0x6E2 DUP3 PUSH2 0x380 JUMP JUMPDEST SWAP2 POP PUSH32 0x8000000000000000000000000000000000000000000000000000000000000000 DUP3 SUB PUSH2 0x714 JUMPI PUSH2 0x713 PUSH2 0x6AB JUMP JUMPDEST JUMPDEST PUSH1 0x1 DUP3 SUB SWAP1 POP SWAP2 SWAP1 POP JUMP JUMPDEST PUSH0 DUP2 SWAP1 POP SWAP3 SWAP2 POP POP JUMP JUMPDEST PUSH0 PUSH2 0x733 DUP3 PUSH2 0x5A7 JUMP JUMPDEST PUSH2 0x73D DUP2 DUP6 PUSH2 0x71F JUMP JUMPDEST SWAP4 POP PUSH2 0x74D DUP2 DUP6 PUSH1 0x20 DUP7 ADD PUSH2 0x5C1 JUMP JUMPDEST DUP1 DUP5 ADD SWAP2 POP POP SWAP3 SWAP2 POP POP JUMP JUMPDEST PUSH0 PUSH2 0x764 DUP3 DUP6 PUSH2 0x729 JUMP JUMPDEST SWAP2 POP PUSH2 0x770 DUP3 DUP5 PUSH2 0x729 JUMP JUMPDEST SWAP2 POP DUP2 SWAP1 POP SWAP4 SWAP3 POP POP POP JUMP JUMPDEST PUSH32 0x4E487B7100000000000000000000000000000000000000000000000000000000 PUSH0 MSTORE PUSH1 0x22 PUSH1 0x4 MSTORE PUSH1 0x24 PUSH0 REVERT JUMPDEST PUSH0 PUSH1 0x2 DUP3 DIV SWAP1 POP PUSH1 0x1 DUP3 AND DUP1 PUSH2 0x7C0 JUMPI PUSH1 0x7F DUP3 AND SWAP2 POP JUMPDEST PUSH1 0x20 DUP3 LT DUP2 SUB PUSH2 0x7D3 JUMPI PUSH2 0x7D2 PUSH2 0x77C JUMP JUMPDEST JUMPDEST POP SWAP2 SWAP1 POP JUMP JUMPDEST PUSH0 DUP2 SWAP1 POP DUP2 PUSH0 MSTORE PUSH1 0x20 PUSH0 KECCAK256 SWAP1 POP SWAP2 SWAP1 POP JUMP JUMPDEST PUSH0 PUSH1 0x20 PUSH1 0x1F DUP4 ADD DIV SWAP1 POP SWAP2 SWAP1 POP JUMP JUMPDEST PUSH0 DUP3 DUP3 SHL SWAP1 POP SWAP3 SWAP2 POP POP JUMP JUMPDEST PUSH0 PUSH1 0x8 DUP4 MUL PUSH2 0x835 PUSH32 0xFFFFFFFFFFFFFFFFFFFFFFFFFFFFFFFFFFFFFFFFFFFFFFFFFFFFFFFFFFFFFFFF DUP3 PUSH2 0x7FA JUMP JUMPDEST PUSH2 0x83F DUP7 DUP4 PUSH2 0x7FA JUMP JUMPDEST SWAP6 POP DUP1 NOT DUP5 AND SWAP4 POP DUP1 DUP7 AND DUP5 OR SWAP3 POP POP POP SWAP4 SWAP3 POP POP POP JUMP JUMPDEST PUSH0 DUP2 SWAP1 POP SWAP2 SWAP1 POP JUMP JUMPDEST PUSH0 DUP2 SWAP1 POP SWAP2 SWAP1 POP JUMP JUMPDEST PUSH0 PUSH2 0x883 PUSH2 0x87E PUSH2 0x879 DUP5 PUSH2 0x857 JUMP JUMPDEST PUSH2 0x860 JUMP JUMPDEST PUSH2 0x857 JUMP JUMPDEST SWAP1 POP SWAP2 SWAP1 POP JUMP JUMPDEST PUSH0 DUP2 SWAP1 POP SWAP2 SWAP1 POP JUMP JUMPDEST PUSH2 0x89C DUP4 PUSH2 0x869 JUMP JUMPDEST PUSH2 0x8B0 PUSH2 0x8A8 DUP3 PUSH2 0x88A JUMP JUMPDEST DUP5 DUP5 SLOAD PUSH2 0x806 JUMP JUMPDEST DUP3 SSTORE POP POP POP POP JUMP JUMPDEST PUSH0 SWAP1 JUMP JUMPDEST PUSH2 0x8C4 PUSH2 0x8B8 JUMP JUMPDEST PUSH2 0x8CF DUP2 DUP5 DUP5 PUSH2 0x893 JUMP JUMPDEST POP POP POP JUMP JUMPDEST JUMPDEST DUP2 DUP2 LT ISZERO PUSH2 0x8F2 JUMPI PUSH2 0x8E7 PUSH0 DUP3 PUSH2 0x8BC JUMP JUMPDEST PUSH1 0x1 DUP2 ADD SWAP1 POP PUSH2 0x8D5 JUMP JUMPDEST POP POP JUMP JUMPDEST PUSH1 0x1F DUP3 GT ISZERO PUSH2 0x937 JUMPI PUSH2 0x908 DUP2 PUSH2 0x7D9 JUMP JUMPDEST PUSH2 0x911 DUP5 PUSH2 0x7EB JUMP JUMPDEST DUP2 ADD PUSH1 0x20 DUP6 LT ISZERO PUSH2 0x920 JUMPI DUP2 SWAP1 POP JUMPDEST PUSH2 0x934 PUSH2 0x92C DUP6 PUSH2 0x7EB JUMP JUMPDEST DUP4 ADD DUP3 PUSH2 0x8D4 JUMP JUMPDEST POP POP JUMPDEST POP POP POP JUMP JUMPDEST PUSH0 DUP3 DUP3 SHR SWAP1 POP SWAP3 SWAP2 POP POP JUMP JUMPDEST PUSH0 PUSH2 0x957 PUSH0 NOT DUP5 PUSH1 0x8 MUL PUSH2 0x93C JUMP JUMPDEST NOT DUP1 DUP4 AND SWAP2 POP POP SWAP3 SWAP2 POP POP JUMP JUMPDEST PUSH0 PUSH2 0x96F DUP4 DUP4 PUSH2 0x948 JUMP JUMPDEST SWAP2 POP DUP3 PUSH1 0x2 MUL DUP3 OR SWAP1 POP SWAP3 SWAP2 POP POP JUMP JUMPDEST PUSH2 0x988 DUP3 PUSH2 0x5A7 JUMP JUMPDEST PUSH8 0xFFFFFFFFFFFFFFFF DUP2 GT ISZERO PUSH2 0x9A1 JUMPI PUSH2 0x9A0 PUSH2 0x40D JUMP JUMPDEST JUMPDEST PUSH2 0x9AB DUP3 SLOAD PUSH2 0x7A9 JUMP JUMPDEST PUSH2 0x9B6 DUP3 DUP3 DUP6 PUSH2 0x8F6 JUMP JUMPDEST PUSH0 PUSH1 0x20 SWAP1 POP PUSH1 0x1F DUP4 GT PUSH1 0x1 DUP2 EQ PUSH2 0x9E7 JUMPI PUSH0 DUP5 ISZERO PUSH2 0x9D5 JUMPI DUP3 DUP8 ADD MLOAD SWAP1 POP JUMPDEST PUSH2 0x9DF DUP6 DUP3 PUSH2 0x964 JUMP JUMPDEST DUP7 SSTORE POP PUSH2 0xA46 JUMP JUMPDEST PUSH1 0x1F NOT DUP5 AND PUSH2 0x9F5 DUP7 PUSH2 0x7D9 JUMP JUMPDEST PUSH0 JUMPDEST DUP3 DUP2 LT ISZERO PUSH2 0xA1C JUMPI DUP5 DUP10 ADD MLOAD DUP3 SSTORE PUSH1 0x1 DUP3 ADD SWAP2 POP PUSH1 0x20 DUP6 ADD SWAP5 POP PUSH1 0x20 DUP2 ADD SWAP1 POP PUSH2 0x9F7 JUMP JUMPDEST DUP7 DUP4 LT ISZERO PUSH2 0xA39 JUMPI DUP5 DUP10 ADD MLOAD PUSH2 0xA35 PUSH1 0x1F DUP10 AND DUP3 PUSH2 0x948 JUMP JUMPDEST DUP4 SSTORE POP JUMPDEST PUSH1 0x1 PUSH1 0x2 DUP9 MUL ADD DUP9 SSTORE POP POP POP JUMPDEST POP POP POP POP POP POP JUMP JUMPDEST PUSH32 0x4E487B7100000000000000000000000000000000000000000000000000000000 PUSH0 MSTORE PUSH1 0x12 PUSH1 0x4 MSTORE PUSH1 0x24 PUSH0 REVERT JUMPDEST PUSH0 PUSH2 0xA85 DUP3 PUSH2 0x380 JUMP JUMPDEST SWAP2 POP PUSH2 0xA90 DUP4 PUSH2 0x380 JUMP JUMPDEST SWAP3 POP DUP3 PUSH2 0xAA0 JUMPI PUSH2 0xA9F PUSH2 0xA4E JUMP JUMPDEST JUMPDEST DUP3 DUP3 SMOD SWAP1 POP SWAP3 SWAP2 POP POP JUMP JUMPDEST PUSH0 PUSH2 0xAB5 DUP3 PUSH2 0x380 JUMP JUMPDEST SWAP2 POP PUSH32 0x7FFFFFFFFFFFFFFFFFFFFFFFFFFFFFFFFFFFFFFFFFFFFFFFFFFFFFFFFFFFFFFF DUP3 SUB PUSH2 0xAE7 JUMPI PUSH2 0xAE6 PUSH2 0x6AB JUMP JUMPDEST JUMPDEST PUSH1 0x1 DUP3 ADD SWAP1 POP SWAP2 SWAP1 POP JUMP INVALID LOG2 PUSH5 0x6970667358 0x22 SLT KECCAK256 0xDC 0xB2 0xD4 EXTCODEHASH DUP13 ADD CREATE 0xAA TLOAD CODESIZE 0xE8 0xF SWAP10 BLOBBASEFEE PUSH25 0xAD6473942DF496C341B09D38F38AE09FE064736F6C63430008 BYTE STOP CALLER "
				},
				"gasEstimates": {
					"creation": {
						"codeDepositCost": "571200",
						"executionCost": "46975",
						"totalCost": "618175"
					},
					"external": {
						"Found()": "2511",
						"a()": "2425",
						"check()": "28941",
						"concat(string,string)": "infinite",
						"decrement()": "infinite",
						"even_odd(int256,string)": "infinite",
						"increment()": "infinite"
					}
				},
				"methodIdentifiers": {
					"Found()": "63281b1d",
					"a()": "0dbe671f",
					"check()": "919840ad",
					"concat(string,string)": "89c19ddb",
					"decrement()": "2baeceb7",
					"even_odd(int256,string)": "baa78317",
					"increment()": "d09de08a"
				}
			},
			"storageLayout": {
				"storage": [
					{
						"astId": 4,
						"contract": "contracts/lecture_01/increment_decrement.sol:lecture01",
						"label": "a",
						"offset": 0,
						"slot": "0",
						"type": "t_int256"
					},
					{
						"astId": 25,
						"contract": "contracts/lecture_01/increment_decrement.sol:lecture01",
						"label": "Found",
						"offset": 0,
						"slot": "1",
						"type": "t_bool"
					},
					{
						"astId": 81,
						"contract": "contracts/lecture_01/increment_decrement.sol:lecture01",
						"label": "newString",
						"offset": 0,
						"slot": "2",
						"type": "t_string_storage"
					}
				],
				"types": {
					"t_bool": {
						"encoding": "inplace",
						"label": "bool",
						"numberOfBytes": "1"
					},
					"t_int256": {
						"encoding": "inplace",
						"label": "int256",
						"numberOfBytes": "32"
					},
					"t_string_storage": {
						"encoding": "bytes",
						"label": "string",
						"numberOfBytes": "32"
					}
				}
			},
			"userdoc": {
				"kind": "user",
				"methods": {},
				"version": 1
			}
		}
	}
}